BL51 BANKED LINKER/LOCATER V5.11                                                        10/05/2015  09:30:23  PAGE 1


BL51 BANKED LINKER/LOCATER V5.11, INVOKED BY:
C:\KEIL\C51\BIN\BL51.EXE BANK0 {.\Output\Timer.obj}, BANK0 {.\Output\Auto.obj}, BANK0 {.\Output\FrameSync.obj}, BANK0 {.
>> \Output\Main.obj}, BANK0 {.\Output\Mode.obj}, BANK0 {.\Output\Struct.obj}, BANK0 {.\Output\Sync.obj}, BANK0 {.\Output
>> \Adjust.obj}, BANK0 {.\Output\Adjust_customer.obj}, BANK0 {.\Output\Uart.obj}, BANK0 {.\Output\video.obj}, BANK0 {.\O
>> utput\eeprom.obj}, BANK0 {.\Output\Memory.obj}, BANK0 {.\Output\YPbPr.obj}, BANK0 {.\Output\Power.obj}, BANK0 {.\Outp
>> ut\Scaler.obj}, BANK0 {.\Output\Source.obj}, BANK0 {.\Output\Misc.obj}, BANK0 {.\Output\Hdmi.obj}, BANK0 {.\Output\Ke
>> y.obj}, BANK0 {.\Output\IR_Nec.obj}, BANK0 {.\Output\Key_PCB2660_001.obj}, BANK0 {.\Output\Key_PCB2660_002.obj}, BANK
>> 0 {.\Output\Key_PCB2660_003.obj}, BANK0 {.\Output\Key_PCB2660_003_5Key.obj}, BANK0 {.\Output\Key_PCB2660_007.obj}, BA
>> NK0 {.\Output\Func.obj}, BANK1 {.\Output\OsdProc001.obj}, BANK1 {.\Output\OsdMenuFunc001.obj}, BANK1 {.\Output\OsdRes
>> 001.obj}, BANK1 {.\Output\OsdTable001.obj}, BANK1 {.\Output\OsdProc002.obj}, BANK1 {.\Output\OsdMenuFunc002.obj}, BAN
>> K1 {.\Output\OsdRes002.obj}, BANK1 {.\Output\OsdTable002.obj}, BANK1 {.\Output\Osd002Func.obj}, BANK1 {.\Output\OsdMe
>> nuFunc003.obj}, BANK1 {.\Output\OsdProc003.obj}, BANK1 {.\Output\OsdRes003.obj}, BANK1 {.\Output\OsdTable003.obj}, BA
>> NK1 {.\Output\OSD_FAC.obj}, BANK1 {.\Output\OsdPub007.obj}, BANK1 {.\Output\OsdVga007.obj}, BANK1 {.\Output\OsdAV007.
>> obj}, BANK1 {.\Output\OsdTV007.obj}, BANK0 {.\Output\TV.obj}, BANK0 {.\Output\JS_6B1.obj}, BANK0 {.\Output\JS_6B2.obj
>> }, BANK0 {.\Output\TDQ6F6.obj}, BANK0 {.\Output\TN8337.obj}, BANK0 {.\Output\TNJ8355.obj}, BANK0 {.\Lib\GmiFunc.LIB},
>>  BANK1 {.\Output\gmiOSDFunc.obj}, COMMON {.\Output\GUartSend.obj}, COMMON {.\Output\Int.obj}, COMMON {.\Output\Mcu.ob
>> j}, COMMON {.\Output\RTDAccess.obj}, COMMON {.\Output\I2c.obj}, COMMON {.\Output\L51_BANK.obj}, COMMON {.\Output\STAR
>> TUP.obj} TO .\Output\RTD2662 BANKAREA (0X1E0C, 0XFFFF) PRINT (.\Output\RTD2662.m51) RAMSIZE (256) BANK0 (?CO?MAIN (0X
>> 1E0C), ?CO?MODE, ?CO?EEPROM, ?CO?SCALER, ?CO?ADJUST_CUSTOMER, ?CO?VIDEO, ?CO?ADJUST) BANK1 (?CO?GMIOSDFUNC (0X1E0C), 
>> ?CO?OSDTABLE003, ?CO?OSDPROC003, ?CO?OSDRES003) OVERLAY (ADJUSTMENUITEM ~ ?PR?OSDPROC003, TEXTOUTCALCWIDTH ~ ?PR?OSDP
>> ROC003, DRAW2BIT3X2ICON ~ ?PR?OSDPROC003, GETSHOWINDEX ~ ?PR?OSDPROC003, CSHOWTVNUMBER ~ ?PR?OSDPROC003, GETSHOWCOUNT
>>  ~ ?PR?OSDPROC003, LOADCHI_T_FONT ~ ?PR?OSDPROC003, LOADCHI_S_FONT ~ ?PR?OSDPROC003, INITOSDFRAME ~ ?PR?OSDPROC003) X
>> DATA (0XFB00-0XFEEF)




PROGRAM RECURSIONS REMOVED FROM CALL TREE
=========================================
+--> ?CO?OSDTABLE003
|  | ?PR?MMENUNONEPROC?OSDMENUFUNC003
|  | ?PR?MMENUNONEENTERSUBMENU?OSDMENUFUNC003
|  | ?PR?DRAWMAINMENU?OSDMENUFUNC003
|  | ?PR?INITMAINOSD?OSDMENUFUNC003
<--+ ?PR?OSDMENUFUNC003



MEMORY MODEL: LARGE WITH FLOATING POINT ARITHMETIC


INPUT MODULES INCLUDED:
  .\Output\Timer.obj (TIMER)
  .\Output\Auto.obj (AUTO)
  .\Output\FrameSync.obj (FRAMESYNC)
  .\Output\Main.obj (MAIN)
  .\Output\Mode.obj (MODE)
  .\Output\Struct.obj (STRUCT)
  .\Output\Sync.obj (SYNC)
  .\Output\Adjust.obj (ADJUST)
  .\Output\Adjust_customer.obj (ADJUST_CUSTOMER)
  .\Output\Uart.obj (UART)
  .\Output\video.obj (VIDEO)
  .\Output\eeprom.obj (EEPROM)
  .\Output\Memory.obj (MEMORY)
  .\Output\YPbPr.obj (YPBPR)
  .\Output\Power.obj (POWER)
  .\Output\Scaler.obj (SCALER)
BL51 BANKED LINKER/LOCATER V5.11                                                      10/05/2015  09:30:23  PAGE 2


  .\Output\Source.obj (SOURCE)
  .\Output\Misc.obj (MISC)
  .\Output\Hdmi.obj (HDMI)
  .\Output\Key.obj (KEY)
  .\Output\IR_Nec.obj (IR_NEC)
  .\Output\Key_PCB2660_001.obj (KEY_PCB2660_001)
  .\Output\Key_PCB2660_002.obj (KEY_PCB2660_002)
  .\Output\Key_PCB2660_003.obj (KEY_PCB2660_003)
  .\Output\Key_PCB2660_003_5Key.obj (KEY_PCB2660_003_5KEY)
  .\Output\Key_PCB2660_007.obj (KEY_PCB2660_007)
  .\Output\Func.obj (FUNC)
  .\Output\OsdProc001.obj (OSDPROC001)
  .\Output\OsdMenuFunc001.obj (OSDMENUFUNC001)
  .\Output\OsdRes001.obj (OSDRES001)
  .\Output\OsdTable001.obj (OSDTABLE001)
  .\Output\OsdProc002.obj (OSDPROC002)
  .\Output\OsdMenuFunc002.obj (OSDMENUFUNC002)
  .\Output\OsdRes002.obj (OSDRES002)
  .\Output\OsdTable002.obj (OSDTABLE002)
  .\Output\Osd002Func.obj (OSD002FUNC)
  .\Output\OsdMenuFunc003.obj (OSDMENUFUNC003)
  .\Output\OsdProc003.obj (OSDPROC003)
  .\Output\OsdRes003.obj (OSDRES003)
  .\Output\OsdTable003.obj (OSDTABLE003)
  .\Output\OSD_FAC.obj (OSD_FAC)
  .\Output\OsdPub007.obj (OSDPUB007)
  .\Output\OsdVga007.obj (OSDVGA007)
  .\Output\OsdAV007.obj (OSDAV007)
  .\Output\OsdTV007.obj (OSDTV007)
  .\Output\TV.obj (TV)
  .\Output\JS_6B1.obj (JS_6B1)
  .\Output\JS_6B2.obj (JS_6B2)
  .\Output\TDQ6F6.obj (TDQ6F6)
  .\Output\TN8337.obj (TN8337)
  .\Output\TNJ8355.obj (TNJ8355)
  .\Lib\GmiFunc.LIB (AV_TV)
  .\Lib\GmiFunc.LIB (RTD2662)
  .\Lib\GmiFunc.LIB (GMIBASE)
  .\Output\gmiOSDFunc.obj (GMIOSDFUNC)
  .\Output\GUartSend.obj (GUARTSEND)
  .\Output\Int.obj (INT)
  .\Output\Mcu.obj (MCU)
  .\Output\RTDAccess.obj (RTDACCESS)
  .\Output\I2c.obj (I2C)
  .\Output\L51_BANK.obj (?BANK?SWITCHING)
  .\Output\STARTUP.obj (?C_STARTUP)
  C:\KEIL\C51\LIB\C51FPL.LIB (?C?FPMUL)
  C:\KEIL\C51\LIB\C51FPL.LIB (?C?FCAST)
  C:\KEIL\C51\LIB\C51FPL.LIB (?C?CASTF)
  C:\KEIL\C51\LIB\C51FPL.LIB (?C?FPGETOPN)
  C:\KEIL\C51\LIB\C51L.LIB (?C_INIT)
  C:\KEIL\C51\LIB\C51L.LIB (?C?COPY)
  C:\KEIL\C51\LIB\C51L.LIB (?C?CLDPTR)
  C:\KEIL\C51\LIB\C51L.LIB (?C?CLDOPTR)
  C:\KEIL\C51\LIB\C51L.LIB (?C?CILDPTR)
  C:\KEIL\C51\LIB\C51L.LIB (?C?CSTPTR)
  C:\KEIL\C51\LIB\C51L.LIB (?C?CSTOPTR)
BL51 BANKED LINKER/LOCATER V5.11                                                      10/05/2015  09:30:23  PAGE 3


  C:\KEIL\C51\LIB\C51L.LIB (?C?IMUL)
  C:\KEIL\C51\LIB\C51L.LIB (?C?UIDIV)
  C:\KEIL\C51\LIB\C51L.LIB (?C?SIDIV)
  C:\KEIL\C51\LIB\C51L.LIB (?C?IILDX)
  C:\KEIL\C51\LIB\C51L.LIB (?C?ILDIX)
  C:\KEIL\C51\LIB\C51L.LIB (?C?ILDPTR)
  C:\KEIL\C51\LIB\C51L.LIB (?C?ILDOPTR)
  C:\KEIL\C51\LIB\C51L.LIB (?C?IILDPTR)
  C:\KEIL\C51\LIB\C51L.LIB (?C?ISTPTR)
  C:\KEIL\C51\LIB\C51L.LIB (?C?ISTOPTR)
  C:\KEIL\C51\LIB\C51L.LIB (?C?LMUL)
  C:\KEIL\C51\LIB\C51L.LIB (?C?ULDIV)
  C:\KEIL\C51\LIB\C51L.LIB (?C?SLDIV)
  C:\KEIL\C51\LIB\C51L.LIB (?C?LNEG)
  C:\KEIL\C51\LIB\C51L.LIB (?C?SLCMP)
  C:\KEIL\C51\LIB\C51L.LIB (?C?ULCMP)
  C:\KEIL\C51\LIB\C51L.LIB (?C?ULSHR)
  C:\KEIL\C51\LIB\C51L.LIB (?C?SLSHR)
  C:\KEIL\C51\LIB\C51L.LIB (?C?LSHL)
  C:\KEIL\C51\LIB\C51L.LIB (?C?LLDIDATA)
  C:\KEIL\C51\LIB\C51L.LIB (?C?LLDIDATA0)
  C:\KEIL\C51\LIB\C51L.LIB (?C?LSTIDATA)
  C:\KEIL\C51\LIB\C51L.LIB (?C?LSTXDATA)
  C:\KEIL\C51\LIB\C51L.LIB (?C?LSTKXDATA)
  C:\KEIL\C51\LIB\C51L.LIB (?C?OFFXADD)
  C:\KEIL\C51\LIB\C51L.LIB (?C?CCASE)
  C:\KEIL\C51\LIB\C51L.LIB (?C?ICALL)
  C:\KEIL\C51\LIB\C51L.LIB (ABS)


LINK MAP OF MODULE:  .\Output\RTD2662 (TIMER)


            TYPE    BASE      LENGTH    RELOCATION   SEGMENT NAME
            -----------------------------------------------------

            * * * * * * *   D A T A   M E M O R Y   * * * * * * *
            REG     0000H     0008H     ABSOLUTE     "REG BANK 0"
            DATA    0008H     0010H     UNIT         ?DT?MAIN
            DATA    0018H     0002H     UNIT         ?DT?SCALER
            DATA    001AH     0002H     UNIT         ?DT?INT
            DATA    001CH     0001H     UNIT         ?BANK?DATA
            IDATA   001DH     0003H     UNIT         ?ID?SYNC
            BIT     0020H.0   0000H.6   UNIT         _BIT_GROUP_
            BIT     0020H.6   0000H.3   UNIT         ?BI?SYNC
            BIT     0021H.1   0000H.2   UNIT         ?BI?TIMER
            BIT     0021H.3   0000H.2   UNIT         ?BI?AUTO
            BIT     0021H.5   0000H.2   UNIT         ?BI?OSDPROC003
            BIT     0021H.7   0000H.2   UNIT         ?BI?AV_TV
            BIT     0022H.1   0000H.1   UNIT         ?BI?MODE
            BIT     0022H.2   0000H.1   UNIT         ?BI?POWER
            BIT     0022H.3   0000H.1   UNIT         ?BI?SOURCE
            BIT     0022H.4   0000H.1   UNIT         ?BI?MISC
            BIT     0022H.5   0000H.1   UNIT         ?BI?GMIOSDFUNC
                    0022H.6   0000H.2                *** GAP ***
            DATA    0023H     000AH     UNIT         _DATA_GROUP_
            IDATA   002DH     0028H     UNIT         ?ID?TIMER
BL51 BANKED LINKER/LOCATER V5.11                                                      10/05/2015  09:30:23  PAGE 4


            IDATA   0055H     001EH     UNIT         ?ID?STRUCT
            IDATA   0073H     000FH     UNIT         ?ID?ADJUST
            IDATA   0082H     0008H     UNIT         ?ID?AUTO
            IDATA   008AH     0007H     UNIT         ?ID?MODE
            IDATA   0091H     0004H     UNIT         ?ID?VIDEO
            IDATA   0095H     0004H     UNIT         ?ID?MISC
            IDATA   0099H     0004H     UNIT         ?ID?KEY
            IDATA   009DH     0002H     UNIT         ?ID?IR_NEC
            IDATA   009FH     0002H     UNIT         ?ID?GMIOSDFUNC
            IDATA   00A1H     0001H     UNIT         ?ID?POWER
            IDATA   00A2H     0001H     UNIT         ?ID?HDMI
            IDATA   00A3H     0001H     UNIT         ?ID?TV
            IDATA   00A4H     0001H     UNIT         ?ID?INT
            IDATA   00A5H     0001H     UNIT         ?ID?RTDACCESS
            IDATA   00A6H     0001H     UNIT         _IDATA_GROUP_
            IDATA   00A7H     0001H     UNIT         ?STACK

            * * * * * * *  X D A T A   M E M O R Y  * * * * * * *
                    0000H     FB00H                  *** GAP ***
            XDATA   FB00H     0080H     ABSOLUTE     
            XDATA   FB80H     0068H     UNIT         _XDATA_GROUP_
            XDATA   FBE8H     0057H     UNIT         ?XD?STRUCT
            XDATA   FC3FH     000AH     UNIT         ?XD?IR_NEC
            XDATA   FC49H     0005H     UNIT         ?XD?GMIOSDFUNC
            XDATA   FC4EH     0004H     UNIT         ?XD?MODE
            XDATA   FC52H     0003H     UNIT         ?XD?VIDEO
            XDATA   FC55H     0003H     UNIT         ?XD?MISC
            XDATA   FC58H     0003H     UNIT         ?XD?HDMI
            XDATA   FC5BH     0003H     UNIT         ?XD?OSDPROC003
            XDATA   FC5EH     0003H     UNIT         ?XD?_GMI_CSELECTINPUTCHANNEL?RTD2662
            XDATA   FC61H     0002H     UNIT         ?XD?SCALER
            XDATA   FC63H     0002H     UNIT         ?XD?AV_TV
            XDATA   FC65H     0001H     UNIT         ?XD?ADJUST
                    FC66H     011AH                  *** GAP ***
            XDATA   FD80H     0100H     ABSOLUTE     
                    FE80H     0080H                  *** GAP ***
            XDATA   FF00H     0001H     ABSOLUTE     
            XDATA   FF01H     0001H     ABSOLUTE     
                    FF02H     0006H                  *** GAP ***
            XDATA   FF08H     0001H     ABSOLUTE     
            XDATA   FF09H     0001H     ABSOLUTE     
            XDATA   FF0AH     0001H     ABSOLUTE     
            XDATA   FF0BH     0001H     ABSOLUTE     
            XDATA   FF0CH     0001H     ABSOLUTE     
            XDATA   FF0DH     0001H     ABSOLUTE     
                    FF0EH     0001H                  *** GAP ***
            XDATA   FF0FH     0001H     ABSOLUTE     
                    FF10H     000BH                  *** GAP ***
            XDATA   FF1BH     0001H     ABSOLUTE     
                    FF1CH     0002H                  *** GAP ***
            XDATA   FF1EH     0001H     ABSOLUTE     
                    FF1FH     0002H                  *** GAP ***
            XDATA   FF21H     0001H     ABSOLUTE     
                    FF22H     0001H                  *** GAP ***
            XDATA   FF23H     0001H     ABSOLUTE     
            XDATA   FF24H     0001H     ABSOLUTE     
            XDATA   FF25H     0001H     ABSOLUTE     
BL51 BANKED LINKER/LOCATER V5.11                                                      10/05/2015  09:30:23  PAGE 5


            XDATA   FF26H     0001H     ABSOLUTE     
            XDATA   FF27H     0001H     ABSOLUTE     
            XDATA   FF28H     0001H     ABSOLUTE     
            XDATA   FF29H     0001H     ABSOLUTE     
            XDATA   FF2AH     0001H     ABSOLUTE     
            XDATA   FF2BH     0001H     ABSOLUTE     
            XDATA   FF2CH     0001H     ABSOLUTE     
                    FF2DH     000DH                  *** GAP ***
            XDATA   FF3AH     0001H     ABSOLUTE     
            XDATA   FF3BH     0001H     ABSOLUTE     
            XDATA   FF3CH     0001H     ABSOLUTE     
            XDATA   FF3DH     0001H     ABSOLUTE     
            XDATA   FF3EH     0001H     ABSOLUTE     
            XDATA   FF3FH     0001H     ABSOLUTE     
            XDATA   FF40H     0001H     ABSOLUTE     
            XDATA   FF41H     0001H     ABSOLUTE     
            XDATA   FF42H     0001H     ABSOLUTE     
            XDATA   FF43H     0001H     ABSOLUTE     
            XDATA   FF44H     0001H     ABSOLUTE     
            XDATA   FF45H     0001H     ABSOLUTE     
            XDATA   FF46H     0001H     ABSOLUTE     
            XDATA   FF47H     0001H     ABSOLUTE     
            XDATA   FF48H     0001H     ABSOLUTE     
            XDATA   FF49H     0001H     ABSOLUTE     
            XDATA   FF4AH     0001H     ABSOLUTE     
            XDATA   FF4BH     0001H     ABSOLUTE     
            XDATA   FF4CH     0001H     ABSOLUTE     
            XDATA   FF4DH     0001H     ABSOLUTE     
            XDATA   FF4EH     0001H     ABSOLUTE     
            XDATA   FF4FH     0001H     ABSOLUTE     
            XDATA   FF50H     0001H     ABSOLUTE     
            XDATA   FF51H     0001H     ABSOLUTE     
            XDATA   FF52H     0001H     ABSOLUTE     
                    FF53H     000DH                  *** GAP ***
            XDATA   FF60H     0001H     ABSOLUTE     
            XDATA   FF61H     0001H     ABSOLUTE     
                    FF62H     0002H                  *** GAP ***
            XDATA   FF64H     0001H     ABSOLUTE     
            XDATA   FF65H     0001H     ABSOLUTE     
            XDATA   FF66H     0001H     ABSOLUTE     
            XDATA   FF67H     0001H     ABSOLUTE     
            XDATA   FF68H     0001H     ABSOLUTE     
            XDATA   FF69H     0001H     ABSOLUTE     
                    FF6AH     0005H                  *** GAP ***
            XDATA   FF6FH     0001H     ABSOLUTE     
                    FF70H     0001H                  *** GAP ***
            XDATA   FF71H     0001H     ABSOLUTE     
                    FF72H     000EH                  *** GAP ***
            XDATA   FF80H     0001H     ABSOLUTE     
            XDATA   FF81H     0001H     ABSOLUTE     
            XDATA   FF82H     0001H     ABSOLUTE     
            XDATA   FF83H     0001H     ABSOLUTE     
            XDATA   FF84H     0001H     ABSOLUTE     
            XDATA   FF85H     0001H     ABSOLUTE     
            XDATA   FF86H     0001H     ABSOLUTE     
            XDATA   FF87H     0001H     ABSOLUTE     
            XDATA   FF88H     0001H     ABSOLUTE     
BL51 BANKED LINKER/LOCATER V5.11                                                      10/05/2015  09:30:23  PAGE 6


            XDATA   FF89H     0001H     ABSOLUTE     
            XDATA   FF8AH     0001H     ABSOLUTE     
            XDATA   FF8BH     0001H     ABSOLUTE     
            XDATA   FF8CH     0001H     ABSOLUTE     
            XDATA   FF8DH     0001H     ABSOLUTE     
            XDATA   FF8EH     0001H     ABSOLUTE     
            XDATA   FF8FH     0001H     ABSOLUTE     
            XDATA   FF90H     0001H     ABSOLUTE     
            XDATA   FF91H     0001H     ABSOLUTE     
            XDATA   FF92H     0001H     ABSOLUTE     
            XDATA   FF93H     0001H     ABSOLUTE     
                    FF94H     0002H                  *** GAP ***
            XDATA   FF96H     0001H     ABSOLUTE     
            XDATA   FF97H     0001H     ABSOLUTE     
            XDATA   FF98H     0001H     ABSOLUTE     
            XDATA   FF99H     0001H     ABSOLUTE     
            XDATA   FF9AH     0001H     ABSOLUTE     
            XDATA   FF9BH     0001H     ABSOLUTE     
            XDATA   FF9CH     0001H     ABSOLUTE     
            XDATA   FF9DH     0001H     ABSOLUTE     
            XDATA   FF9EH     0001H     ABSOLUTE     
            XDATA   FF9FH     0001H     ABSOLUTE     
            XDATA   FFA0H     0001H     ABSOLUTE     
            XDATA   FFA1H     0001H     ABSOLUTE     
            XDATA   FFA2H     0001H     ABSOLUTE     
            XDATA   FFA3H     0001H     ABSOLUTE     
            XDATA   FFA4H     0001H     ABSOLUTE     
                    FFA5H     0001H                  *** GAP ***
            XDATA   FFA6H     0001H     ABSOLUTE     
                    FFA7H     0019H                  *** GAP ***
            XDATA   FFC0H     0001H     ABSOLUTE     
            XDATA   FFC1H     0001H     ABSOLUTE     
            XDATA   FFC2H     0001H     ABSOLUTE     
            XDATA   FFC3H     0001H     ABSOLUTE     
            XDATA   FFC4H     0001H     ABSOLUTE     
            XDATA   FFC5H     0001H     ABSOLUTE     
            XDATA   FFC6H     0001H     ABSOLUTE     
            XDATA   FFC7H     0001H     ABSOLUTE     
            XDATA   FFC8H     0001H     ABSOLUTE     
            XDATA   FFC9H     0001H     ABSOLUTE     
            XDATA   FFCAH     0001H     ABSOLUTE     
            XDATA   FFCBH     0001H     ABSOLUTE     
            XDATA   FFCCH     0001H     ABSOLUTE     
            XDATA   FFCDH     0001H     ABSOLUTE     
            XDATA   FFCEH     0001H     ABSOLUTE     
            XDATA   FFCFH     0001H     ABSOLUTE     
            XDATA   FFD0H     0001H     ABSOLUTE     
            XDATA   FFD1H     0001H     ABSOLUTE     
            XDATA   FFD2H     0001H     ABSOLUTE     
            XDATA   FFD3H     0001H     ABSOLUTE     
            XDATA   FFD4H     0001H     ABSOLUTE     
            XDATA   FFD5H     0001H     ABSOLUTE     
            XDATA   FFD6H     0001H     ABSOLUTE     
            XDATA   FFD7H     0001H     ABSOLUTE     
            XDATA   FFD8H     0001H     ABSOLUTE     
            XDATA   FFD9H     0001H     ABSOLUTE     
            XDATA   FFDAH     0001H     ABSOLUTE     
BL51 BANKED LINKER/LOCATER V5.11                                                      10/05/2015  09:30:23  PAGE 7


            XDATA   FFDBH     0001H     ABSOLUTE     
            XDATA   FFDCH     0001H     ABSOLUTE     
                    FFDDH     000DH                  *** GAP ***
            XDATA   FFEAH     0001H     ABSOLUTE     
                    FFEBH     0002H                  *** GAP ***
            XDATA   FFEDH     0001H     ABSOLUTE     
            XDATA   FFEEH     0001H     ABSOLUTE     
                    FFEFH     0004H                  *** GAP ***
            XDATA   FFF3H     0001H     ABSOLUTE     
            XDATA   FFF4H     0001H     ABSOLUTE     
            XDATA   FFF5H     0001H     ABSOLUTE     
                    FFF6H     0006H                  *** GAP ***
            XDATA   FFFCH     0001H     ABSOLUTE     
            XDATA   FFFDH     0001H     ABSOLUTE     
            XDATA   FFFEH     0001H     ABSOLUTE     

            * * * * * * *   C O D E   M E M O R Y   * * * * * * *
            CODE    0000H     0003H     ABSOLUTE     
            CODE    0003H     0003H     ABSOLUTE     
                    0006H     0005H                  *** GAP ***
            CODE    000BH     0003H     ABSOLUTE     
                    000EH     0005H                  *** GAP ***
            CODE    0013H     0003H     ABSOLUTE     
            CODE    0016H     072DH     UNIT         ?C?LIB_CODE
            CODE    0743H     00B4H     UNIT         ?PR?_CI2CWRITE?I2C
            CODE    07F7H     0009H     UNIT         ?PR?_CSCALERPAGESELECT?RTDACCESS
            CODE    0800H     0305H     INBLOCK      ?BANK?SELECT
            CODE    0B05H     0167H     UNIT         ?CO?RTDACCESS
            CODE    0C6CH     0110H     UNIT         ?PR?_CSCALERLOADHARDWAREVLCFONT?RTDACCESS
            CODE    0D7CH     0102H     UNIT         ?CO?KEY
            CODE    0E7EH     00ADH     UNIT         ?C_INITSEG
            CODE    0F2BH     0095H     UNIT         ?PR?CMCUINITIAL?MCU
            CODE    0FC0H     0094H     UNIT         ?PR?INTPROCDDCCI?INT
            CODE    1054H     0091H     UNIT         ?C_C51STARTUP
            CODE    10E5H     0090H     UNIT         ?PR?_CSCALERSETDATAPORTBIT?RTDACCESS
            CODE    1175H     008FH     UNIT         ?PR?CSCALERGETVLD?RTDACCESS
            CODE    1204H     0065H     UNIT         ?PR?_CSCALERCODEW?RTDACCESS
            CODE    1269H     0063H     UNIT         ?PR?INTPROCTIMER0?INT
            CODE    12CCH     005DH     UNIT         ?PR?RTDACCESS
            CODE    1329H     0057H     UNIT         ?PR?_CI2CREAD?I2C
            CODE    1380H     004CH     UNIT         ?PR?_CSCALERSETDATAPORTBYTE?RTDACCESS
            CODE    13CCH     0044H     UNIT         ?C?LDIV
            CODE    1410H     0039H     UNIT         ?PR?_CI2CWRITESTART?I2C
            CODE    1449H     0031H     UNIT         ?PR?_CSCALERSETBIT?RTDACCESS
            CODE    147AH     002FH     UNIT         ?PR?_CSCALERREAD?RTDACCESS
            CODE    14A9H     002DH     UNIT         ?CO?RTD2662
            CODE    14D6H     002DH     UNIT         ?PR?_CI2CSENDBYTE?I2C
            CODE    1503H     002CH     UNIT         ?CO?HDMI
            CODE    152FH     0026H     UNIT         ?PR?_CSCALERWRITE?RTDACCESS
            CODE    1555H     0026H     UNIT         ?PR?CSCALERGETBITVLD?RTDACCESS
            CODE    157BH     0025H     UNIT         ?CO?OSDMENUFUNC003
            CODE    15A0H     0024H     UNIT         ?PR?I2C
            CODE    15C4H     0023H     UNIT         ?PR?DELAY5US?I2C
            CODE    15E7H     0021H     UNIT         ?PR?CI2CGETBYTE?I2C
            CODE    1608H     001FH     UNIT         ?PR?_CSCALERWRITEAMOUNT?RTDACCESS
            CODE    1627H     001BH     UNIT         ?PR?_CI2CSTART?I2C
            CODE    1642H     0018H     UNIT         ?CO?IR_NEC
BL51 BANKED LINKER/LOCATER V5.11                                                      10/05/2015  09:30:23  PAGE 8


            CODE    165AH     0018H     UNIT         ?PR?_CSCALERGETBIT?RTDACCESS
            CODE    1672H     0016H     UNIT         ?PR?CI2CGETACK?I2C
            CODE    1688H     0013H     UNIT         ?PR?_CSCALERSENDADDR?RTDACCESS
            CODE    169BH     0012H     UNIT         ?PR?_ABS?ABS
            CODE    16ADH     0011H     UNIT         ?PR?_CSCALERSETBYTE?RTDACCESS
            CODE    16BEH     000FH     UNIT         ?PR?MCU
            CODE    16CDH     0009H     UNIT         ?PR?CI2CSENDNOACK?I2C
            CODE    16D6H     0008H     UNIT         ?PR?CI2CSTOP?I2C
            CODE    16DEH     0007H     UNIT         ?PR?INTPROCDDCC0?INT
            CODE    16E5H     0006H     UNIT         ?PR?CI2CSENDACK?I2C
                    16EBH     0015H                  *** GAP ***
            CODE    1700H     001BH     PAGE         ?BANK?SWITCH

            * * * * * * *   C O D E   B A N K   0   * * * * * * *
                    0000H     1E0CH                  *** GAP ***
            BANK0   1E0CH     11F3H     UNIT         ?CO?MAIN
            BANK0   2FFFH     07BCH     UNIT         ?CO?MODE
            BANK0   37BBH     009EH     UNIT         ?CO?EEPROM
            BANK0   3859H     03EFH     UNIT         ?CO?SCALER
            BANK0   3C48H     009CH     UNIT         ?CO?ADJUST_CUSTOMER
            BANK0   3CE4H     0292H     UNIT         ?CO?VIDEO
            BANK0   3F76H     000EH     UNIT         ?CO?ADJUST
            BANK0   3F84H     0483H     UNIT         ?PR?CHDMIAUDIOFIRSTTRACKING?HDMI
            BANK0   4407H     0383H     UNIT         ?PR?_CADJUSTAPLLFASTLOCK?ADJUST
            BANK0   478AH     0373H     UNIT         ?PR?ADJUST
            BANK0   4AFDH     036FH     UNIT         ?PR?MODE
            BANK0   4E6CH     034AH     UNIT         ?PR?CAUTODOAUTOCLOCK?AUTO
            BANK0   51B6H     032DH     UNIT         ?PR?_CADJUSTADCCLOCKYPBPR?ADJUST
            BANK0   54E3H     0324H     UNIT         ?PR?AUTO
            BANK0   5807H     0306H     UNIT         ?PR?_CMODESETSCALING?MODE
            BANK0   5B0DH     02E6H     UNIT         ?PR?_CADJUSTADCCLOCK?ADJUST
            BANK0   5DF3H     02B5H     UNIT         ?PR?_CADJUSTADCCLOCK_OSD?ADJUST
            BANK0   60A8H     02A8H     UNIT         ?PR?CMODESEARCHACCEPTIVEMODEVGA?MODE
            BANK0   6350H     026AH     UNIT         ?PR?_CADJUSTIVS2DVSDELAY?ADJUST
            BANK0   65BAH     0261H     UNIT         ?PR?ADJUST_CUSTOMER
            BANK0   681BH     0255H     UNIT         ?PR?CAUTODOAUTOPHASE?AUTO
            BANK0   6A70H     0241H     UNIT         ?PR?CMODERESETMODE?MODE
            BANK0   6CB1H     023CH     UNIT         ?PR?_CADJUSTSATURATIONHUE?ADJUST_CUSTOMER
            BANK0   6EEDH     0233H     UNIT         ?PR?_CSOURCESCANINPUTPORTDVI?SOURCE
            BANK0   7120H     022EH     UNIT         ?PR?CSYNCGETSYNCTYPEAUTORUN?SYNC
            BANK0   734EH     0214H     UNIT         ?PR?CSYNCPROCESS?SYNC
            BANK0   7562H     0211H     UNIT         ?PR?CAUTOTUNEBALANCE?AUTO
            BANK0   7773H     0203H     UNIT         ?PR?_CADJUSTDPLL?ADJUST
            BANK0   7976H     01FDH     UNIT         ?PR?CFRAMESYNCDO?FRAMESYNC
            BANK0   7B73H     01EAH     UNIT         ?PR?_CADJUSTPEAKINGFILTER?ADJUST_CUSTOMER
            BANK0   7D5DH     01CEH     UNIT         ?PR?_CADJUSTPHASE?ADJUST
            BANK0   7F2BH     01CEH     UNIT         ?PR?CVIDEODISPLAYSET?VIDEO
            BANK0   80F9H     01B6H     UNIT         ?PR?EEPROM
            BANK0   82AFH     0196H     UNIT         ?PR?_CADJUSTGAMMA?ADJUST
            BANK0   8445H     0183H     UNIT         ?PR?_CADJUSTHUESATSET?ADJUST_CUSTOMER
            BANK0   85C8H     017AH     UNIT         ?PR?CADJUSTHDMICBCR422?ADJUST
            BANK0   8742H     017AH     UNIT         ?PR?CHDMIVIDEOSETTING?HDMI
            BANK0   88BCH     0179H     UNIT         ?PR?_CAUTOPHASESEARCH?AUTO
            BANK0   8A35H     016AH     UNIT         ?PR?_CMODESETDISPLAY?MODE
            BANK0   8B9FH     0165H     UNIT         ?PR?_CADJUSTMATRIXMULTIPLY?ADJUST_CUSTOMER
            BANK0   8D04H     0158H     UNIT         ?PR?CAUTODOAUTOPOSITION?AUTO
            BANK0   8E5CH     0158H     UNIT         ?PR?CMODESEARCHMODEDVI?MODE
BL51 BANKED LINKER/LOCATER V5.11                                                      10/05/2015  09:30:23  PAGE 9


            BANK0   8FB4H     0158H     UNIT         ?PR?_CACCADJUST?MODE
            BANK0   910CH     0136H     UNIT         ?PR?_CADJUSTSETHUEUVDELTA?ADJUST_CUSTOMER
            BANK0   9242H     0135H     UNIT         ?PR?CMODEDETECTCOMMON?MODE
            BANK0   9377H     0133H     UNIT         ?PR?_CADJUSTSINE?ADJUST_CUSTOMER
            BANK0   94AAH     0127H     UNIT         ?PR?CFRAMESYNCFASTDO?FRAMESYNC
            BANK0   95D1H     0126H     UNIT         ?PR?CMODEGETSCALESETTING?MODE
            BANK0   96F7H     0120H     UNIT         ?PR?CKEYSCAN?KEY_PCB2660_003_5KEY
            BANK0   9817H     011FH     UNIT         ?PR?_CADJUSTCOSINE?ADJUST_CUSTOMER
            BANK0   9936H     011AH     UNIT         ?PR?CMODESETFREERUN?MODE
            BANK0   9A50H     0112H     UNIT         ?PR?CMODESTARTUPVGA?MODE
            BANK0   9B62H     010FH     UNIT         ?PR?_CAUTOMEASUREPOSITIONV?AUTO
            BANK0   9C71H     010CH     UNIT         ?PR?_CSOURCESCANINPUTPORTVGA?SOURCE
            BANK0   9D7DH     0105H     UNIT         ?PR?_CAUTOMEASURECOLOR?AUTO
            BANK0   9E82H     0104H     UNIT         ?PR?_GMI_CSELECTINPUTCHANNEL?RTD2662
            BANK0   9F86H     0102H     UNIT         ?PR?CEEPROMLOADDEFAULT?EEPROM
            BANK0   A088H     00FFH     UNIT         ?PR?CMODEMEASUREDATA?MODE
            BANK0   A187H     00FDH     UNIT         ?PR?_CADJUSTYPBPRSATURATION?ADJUST_CUSTOMER
            BANK0   A284H     00F5H     UNIT         ?PR?CSETMODEREADY?SYNC
            BANK0   A379H     00E3H     UNIT         ?PR?_CMODECHECKFIFOMODEVGA?MODE
            BANK0   A45CH     00E0H     UNIT         ?PR?CSETVIDEOPARAMETER?VIDEO
            BANK0   A53CH     00DBH     UNIT         ?PR?_CMODECOMPAREPRESETMODEVGA?MODE
            BANK0   A617H     00DAH     UNIT         ?PR?_CAUTOTUNEDEVICEOFFSET?AUTO
            BANK0   A6F1H     00D7H     UNIT         ?PR?_CAUTOMEASUREPOSITIONH?AUTO
            BANK0   A7C8H     00D2H     UNIT         ?PR?CCHECKHDMIMODE?MODE
            BANK0   A89AH     00D1H     UNIT         ?PR?CADJUSTUPDATECENTERDATA?ADJUST
            BANK0   A96BH     00C7H     UNIT         ?PR?CAUTODOAUTOCONFIG?AUTO
            BANK0   AA32H     00BDH     UNIT         ?PR?CMODESTARTUPDVI?MODE
            BANK0   AAEFH     00BDH     UNIT         ?PR?_CMODESETCAPTUREWINDOW?MODE
            BANK0   ABACH     00BCH     UNIT         ?PR?_CADJUSTCHECKADCCLOCKRANGE?ADJUST
            BANK0   AC68H     00B6H     UNIT         ?PR?CMODESETUPMODEVGA?MODE
            BANK0   AD1EH     00B4H     UNIT         ?PR?CSCALERRESET?SCALER
            BANK0   ADD2H     00B2H     UNIT         ?PR?CAUTOWAITFINISH?AUTO
            BANK0   AE84H     00ACH     UNIT         ?PR?CADJUSTINTERLACEIVS2DVSDELAY?ADJUST
            BANK0   AF30H     00ACH     UNIT         ?PR?CVIDEOPROCESS?VIDEO
            BANK0   AFDCH     00A7H     UNIT         ?PR?CMODEHANDLER?MODE
            BANK0   B083H     00A5H     UNIT         ?PR?CMODESETUPCOLORCONVERSION?MODE
            BANK0   B128H     00A0H     UNIT         ?PR?CMODEINTERLACECHECK?MODE
            BANK0   B1C8H     009DH     UNIT         ?PR?CADJUSTSETSHARPNESSTABLE?ADJUST
            BANK0   B265H     009CH     UNIT         ?PR?CMODEGETMODETABLEINFO?MODE
            BANK0   B301H     009BH     UNIT         ?PR?_CSOURCESCANINPUTPORT?SOURCE
            BANK0   B39CH     0099H     UNIT         ?PR?_CAUTOTUNEDEVICEGAIN?AUTO
            BANK0   B435H     0094H     UNIT         ?PR?CMODESEARCHMODEVGA?MODE
            BANK0   B4C9H     0093H     UNIT         ?PR?_CAUTOCHANGEADCGAIN?AUTO
            BANK0   B55CH     0093H     UNIT         ?PR?_CAUTOCHANGEADCOFFSET?AUTO
            BANK0   B5EFH     0093H     UNIT         ?PR?CIRKEYSCAN?IR_NEC
            BANK0   B682H     008DH     UNIT         ?PR?CADJUSTINTERLACEIVS2DVSPROTECTION?ADJUST
            BANK0   B70FH     008BH     UNIT         ?PR?_CMODECOMPAREFIFOMODEVGA?MODE
            BANK0   B79AH     0089H     UNIT         ?PR?GMI_CVIDEOCURRENTCOLOR?RTD2662
            BANK0   B823H     0085H     UNIT         ?PR?CMODEISCHANGE?MODE
            BANK0   B8A8H     0083H     UNIT         ?PR?CSYNCHANDLER?SYNC
            BANK0   B92BH     0083H     UNIT         ?PR?_CADJUSTCOLORGAMMACAL?ADJUST_CUSTOMER
            BANK0   B9AEH     0082H     UNIT         ?PR?CEEPROMINITIALCENTERMODEDATA?EEPROM
            BANK0   BA30H     007BH     UNIT         ?PR?GMI_CVIDEOISEXIST?AV_TV
            BANK0   BAABH     0079H     UNIT         ?PR?CIRDAINITIAL?IR_NEC
            BANK0   BB24H     0078H     UNIT         ?PR?CDDCCIINITIAL?MISC
            BANK0   BB9CH     0077H     UNIT         ?PR?_CHANGE_VDC_GAIN?AUTO
            BANK0   BC13H     0073H     UNIT         ?PR?_CGETTARGETVALUE?AUTO
BL51 BANKED LINKER/LOCATER V5.11                                                      10/05/2015  09:30:23  PAGE 10


            BANK0   BC86H     0073H     UNIT         ?PR?CEEPROMINITIALMODEDATA?EEPROM
            BANK0   BCF9H     0072H     UNIT         ?PR?_CTIMERACTIVETIMEREVENT?TIMER
            BANK0   BD6BH     0072H     UNIT         ?PR?CSCALERINITIALDISPLAYINTERFACE?SCALER
            BANK0   BDDDH     0071H     UNIT         ?PR?CHDMIENABLEAUDIOOUTPUT?HDMI
            BANK0   BE4EH     006EH     UNIT         ?PR?CMODESETUPMODEDVI?MODE
            BANK0   BEBCH     006DH     UNIT         ?PR?CGMIFUNC?GMIBASE
            BANK0   BF29H     006BH     UNIT         ?PR?_CFRAMESYNCSPREADSPECTRUMFINETUNE?FRAMESYNC
            BANK0   BF94H     006AH     UNIT         ?PR?_CADJUSTGAMMATABLE?ADJUST
            BANK0   BFFEH     006AH     UNIT         ?PR?CADJUSTCONTRAST?ADJUST_CUSTOMER
            BANK0   C068H     006AH     UNIT         ?PR?HDMI
            BANK0   C0D2H     0069H     UNIT         ?PR?CSETVIDEOMODEREADY?VIDEO
            BANK0   C13BH     0068H     UNIT         ?PR?CSYNCMEASURESYNCTYPE?SYNC
            BANK0   C1A3H     0067H     UNIT         ?PR?CADJUSTVPOSITION?ADJUST
            BANK0   C20AH     0065H     UNIT         ?PR?CGETCURRSOURCEPOS?FUNC
            BANK0   C26FH     0065H     UNIT         ?PR?_CSETCURRSOURCE?FUNC
            BANK0   C2D4H     0063H     UNIT         ?PR?_CADJUSTENABLEHDMIWATCHDOG?ADJUST
            BANK0   C337H     0061H     UNIT         ?PR?GMI_CVIDEOMODECHANGE?AV_TV
            BANK0   C398H     005FH     UNIT         ?PR?_CADJUSTDISABLEHDMIWATCHDOG?ADJUST
            BANK0   C3F7H     005CH     UNIT         ?PR?CMISCSETPINSHARE?MISC
            BANK0   C453H     005BH     UNIT         ?PR?_CTIMERREACTIVETIMEREVENT?TIMER
            BANK0   C4AEH     005BH     UNIT         ?PR?_BCURRSOURCESUPPORT?FUNC
            BANK0   C509H     005AH     UNIT         ?PR?CCALCPANELWDITH?MODE
            BANK0   C563H     005AH     UNIT         ?PR?CSYNCSEARCHSYNCTYPEDVI?SYNC
            BANK0   C5BDH     005AH     UNIT         ?PR?_CSCALERGETDATAPORTBYTE?SCALER
            BANK0   C617H     0058H     UNIT         ?PR?CMAINUSERINITIAL?MAIN
            BANK0   C66FH     0057H     UNIT         ?PR?_CAUTOWAITFORIVS?AUTO
            BANK0   C6C6H     0052H     UNIT         ?PR?_CTIMERWAITFOREVENT?TIMER
            BANK0   C718H     0052H     UNIT         ?PR?_CHANGE_VDC_OFFSET?AUTO
            BANK0   C76AH     0051H     UNIT         ?PR?_CMODESETUPETCS?MODE
            BANK0   C7BBH     0051H     UNIT         ?PR?_CGETADCVALUE?KEY
            BANK0   C80CH     0050H     UNIT         ?PR?CKEYMESSAGEPROC?KEY_PCB2660_003_5KEY
            BANK0   C85CH     0050H     UNIT         ?PR?CGETCURRENTTVCOLOR?AV_TV
            BANK0   C8ACH     004FH     UNIT         ?PR?_CADJUSTDIGITALFILTER?ADJUST
            BANK0   C8FBH     004FH     UNIT         ?PR?CEEPROMSAVEUSERFIFOMODEDATA?EEPROM
            BANK0   C94AH     004EH     UNIT         ?PR?_CVIDEOSETSATURATION?ADJUST_CUSTOMER
            BANK0   C998H     004EH     UNIT         ?PR?VIDEO
            BANK0   C9E6H     004DH     UNIT         ?PR?FRAMESYNC
            BANK0   CA33H     004DH     UNIT         ?PR?BCHANGESOURCE?FUNC
            BANK0   CA80H     004BH     UNIT         ?PR?_CMODECOMPAREMODEDVI?MODE
            BANK0   CACBH     004BH     UNIT         ?PR?CEEPROMSTARTUPCHECK?EEPROM
            BANK0   CB16H     0049H     UNIT         ?PR?CVIDEOINITIAL?VIDEO
            BANK0   CB5FH     0048H     UNIT         ?PR?_CADJUSTGETAPLLSETTING?ADJUST
            BANK0   CBA7H     0048H     UNIT         ?PR?CSCALERINITIAL?SCALER
            BANK0   CBEFH     0047H     UNIT         ?PR?_CEEPROMLOADMODEDATA?EEPROM
            BANK0   CC36H     0046H     UNIT         ?PR?CSETVIDEOCOLOR?VIDEO
            BANK0   CC7CH     0046H     UNIT         ?PR?_GMI_CADJUSTVDCHUE?RTD2662
            BANK0   CCC2H     0045H     UNIT         ?PR?CFRAMESYNCDETECT?FRAMESYNC
            BANK0   CD07H     0044H     UNIT         ?PR?_CADJUSTBACKGROUNDCOLOR?ADJUST
            BANK0   CD4BH     0044H     UNIT         ?PR?CPOWERDOWNCUSTOMERCONTROL?POWER
            BANK0   CD8FH     0043H     UNIT         ?PR?TIMER
            BANK0   CDD2H     0043H     UNIT         ?PR?_CFRAMESYNCTESTSYNC?FRAMESYNC
            BANK0   CE15H     0041H     UNIT         ?PR?CHANGESOURCEHANDLER?FUNC
            BANK0   CE56H     0040H     UNIT         ?PR?CSCALERINITIALDISPLAYOUTPUT?SCALER
            BANK0   CE96H     0040H     UNIT         ?PR?CKEYHANDLER?KEY
            BANK0   CED6H     003EH     UNIT         ?PR?_CADJUSTDITHER?ADJUST
            BANK0   CF14H     003DH     UNIT         ?PR?_CSETPWM?ADJUST
            BANK0   CF51H     003DH     UNIT         ?PR?_CEEPROMWRITE?EEPROM
BL51 BANKED LINKER/LOCATER V5.11                                                      10/05/2015  09:30:23  PAGE 11


            BANK0   CF8EH     003DH     UNIT         ?PR?_CEEPROMREAD?EEPROM
            BANK0   CFCBH     003DH     UNIT         ?PR?CPOWERCONTROL?POWER
            BANK0   D008H     003CH     UNIT         ?PR?_CTIMERCANCELTIMEREVENT?TIMER
            BANK0   D044H     003CH     UNIT         ?PR?CBLUEBACKGROUNDHANDLER?AV_TV
            BANK0   D080H     003BH     UNIT         ?PR?CTIMERHANDLER?TIMER
            BANK0   D0BBH     003BH     UNIT         ?PR?CSETVOLUME?FUNC
            BANK0   D0F6H     003AH     UNIT         ?PR?CADJUSTADCOFFSET?ADJUST
            BANK0   D130H     0039H     UNIT         ?PR?CPOWERUPCUSTOMERCONTROL?POWER
            BANK0   D169H     0038H     UNIT         ?PR?BCNOCHECKSYNCMODE?SYNC
            BANK0   D1A1H     0038H     UNIT         ?PR?CEEPROMLOADSYSTEMDATADEFAULT?EEPROM
            BANK0   D1D9H     0037H     UNIT         ?PR?CMODECONNECTISCHANGE?MODE
            BANK0   D210H     0037H     UNIT         ?PR?CADJUSTADCGAIN?ADJUST
            BANK0   D247H     0036H     UNIT         ?PR?_CADJUSTMZHUESAT?ADJUST_CUSTOMER
            BANK0   D27DH     0036H     UNIT         ?PR?_CEEPROMLOADCENTERMODEDATA?EEPROM
            BANK0   D2B3H     0035H     UNIT         ?PR?CPOWERRSDSOFF?POWER
            BANK0   D2E8H     0034H     UNIT         ?PR?CCUSTOMERINITIAL?SCALER
            BANK0   D31CH     0033H     UNIT         ?PR?CADJUSTBRIGHTNESS?ADJUST_CUSTOMER
            BANK0   D34FH     0032H     UNIT         ?PR?CPOWERDISPLAYPORTON?POWER
            BANK0   D381H     0032H     UNIT         ?PR?GMI_CINITIALVDC?RTD2662
            BANK0   D3B3H     0031H     UNIT         ?PR?_CADJUSTENABLEWATCHDOG?ADJUST
            BANK0   D3E4H     0030H     UNIT         ?PR?CCALCPANELDHEND?MODE
            BANK0   D414H     0030H     UNIT         ?PR?CMISCAPPLYDOUBLEBUFFER?MISC
            BANK0   D444H     002FH     UNIT         ?PR?_CEEPROMSAVEMODEDATA?EEPROM
            BANK0   D473H     002FH     UNIT         ?PR?CKEYPOWERKEYPROC?KEY
            BANK0   D4A2H     002EH     UNIT         ?PR?_CTIMERCOUNTDOWNEVENTPROC?TIMER
            BANK0   D4D0H     002EH     UNIT         ?PR?_CADJUSTDCLKOFFSET?ADJUST
            BANK0   D4FEH     002EH     UNIT         ?PR?CADJUSTBACKLIGHT?ADJUST_CUSTOMER
            BANK0   D52CH     002DH     UNIT         ?PR?CMAINSYSTEMINITIAL?MAIN
            BANK0   D559H     002DH     UNIT         ?PR?CADJUSTHDCP?ADJUST
            BANK0   D586H     002DH     UNIT         ?PR?CKEYSCANREADY?KEY
            BANK0   D5B3H     002DH     UNIT         ?PR?_CKEYMESSAGECONVERT?KEY
            BANK0   D5E0H     002CH     UNIT         ?PR?_CADJUSTIVSDELAY?ADJUST
            BANK0   D60CH     002BH     UNIT         ?PR?CAUTODOWHITEBALANCE?AUTO
            BANK0   D637H     002BH     UNIT         ?PR?_CAUTOREADPHASEINFO?AUTO
            BANK0   D662H     002AH     UNIT         ?PR?CSYNCSEARCHSYNCTYPEVGA?SYNC
            BANK0   D68CH     0029H     UNIT         ?PR?CADJUSTSETDIGITALCAPTURE?ADJUST
            BANK0   D6B5H     0029H     UNIT         ?PR?_CINITSOUNDCHANNEL?FUNC
            BANK0   D6DEH     0027H     UNIT         ?PR?CMODESYNCTIMEOUTCOUNTDOWNEVENT?MODE
            BANK0   D705H     0027H     UNIT         ?PR?CCALCRATIO?MODE
            BANK0   D72CH     0026H     UNIT         ?PR?CMODEPOWERSAVINGEVENT?MODE
            BANK0   D752H     0026H     UNIT         ?PR?CSYNCMODIFYPOLARITYVGA?SYNC
            BANK0   D778H     0026H     UNIT         ?PR?CPOWERRSDSON?POWER
            BANK0   D79EH     0026H     UNIT         ?PR?GMI_CMODELOCKED?RTD2662
            BANK0   D7C4H     0025H     UNIT         ?PR?CTIMERDECREASETIMERCNT?TIMER
            BANK0   D7E9H     0025H     UNIT         ?PR?CMODEMEASUREREADY?MODE
            BANK0   D80EH     0024H     UNIT         ?PR?CSCALERENABLEDISPLAYOUTPUT?SCALER
            BANK0   D832H     0023H     UNIT         ?PR?CEEPROMINITIALUSERFIFOMODEDATA?EEPROM
            BANK0   D855H     0023H     UNIT         ?PR?CEEPROMSAVEADCDATA?EEPROM
            BANK0   D878H     0022H     UNIT         ?PR?CMODESEARCHDISPLAYMODE?MODE
            BANK0   D89AH     0022H     UNIT         ?PR?CMODEHDMITIMEOUTCOUNTDOWNEVENT?MODE
            BANK0   D8BCH     0022H     UNIT         ?PR?_CADJUSTSPREADSPECTRUMRANGE?ADJUST
            BANK0   D8DEH     0022H     UNIT         ?PR?CEEPROMLOADBRICONDATA?EEPROM
            BANK0   D900H     0022H     UNIT         ?PR?CSETBLUEBACKGROUND?AV_TV
            BANK0   D922H     0021H     UNIT         ?PR?_CEEPROMSAVECENTERMODEDATA?EEPROM
            BANK0   D943H     0021H     UNIT         ?PR?CPOWERPANELON?POWER
            BANK0   D964H     0021H     UNIT         ?PR?CPOWERPANELOFF?POWER
            BANK0   D985H     0021H     UNIT         ?PR?CIRDAREADDATA?IR_NEC
BL51 BANKED LINKER/LOCATER V5.11                                                      10/05/2015  09:30:23  PAGE 12


            BANK0   D9A6H     0020H     UNIT         ?PR?_CTIMERPOLLINGEVENTPROC?TIMER
            BANK0   D9C6H     0020H     UNIT         ?PR?CMODESETUPDISPLAY?MODE
            BANK0   D9E6H     0020H     UNIT         ?PR?_CADJUSTIHSDELAY?ADJUST
            BANK0   DA06H     001FH     UNIT         ?PR?CMODESETUPCOLORPROCESS?MODE
            BANK0   DA25H     001FH     UNIT         ?PR?CEEPROMLOADHUESATDATADEFAULT?EEPROM
            BANK0   DA44H     001EH     UNIT         ?PR?CCALCPANELDHSTA?MODE
            BANK0   DA62H     001EH     UNIT         ?PR?CEEPROMLOADADCDATADEFAULT?EEPROM
            BANK0   DA80H     001EH     UNIT         ?PR?CEEPROMLOADYPBPRDATADEFAULT?EEPROM
            BANK0   DA9EH     001DH     UNIT         ?PR?_CHANGE_DEVICE_GAIN?AUTO
            BANK0   DABBH     001DH     UNIT         ?PR?_CHANGE_DEVICE_OFFSET?AUTO
            BANK0   DAD8H     001DH     UNIT         ?PR?CADJUSTSHARPNESSFORSCALEUP?ADJUST
            BANK0   DAF5H     001DH     UNIT         ?PR?CADJUSTSHARPNESSFORSCALEDOWN?ADJUST
            BANK0   DB12H     001DH     UNIT         ?PR?POWER
            BANK0   DB2FH     001DH     UNIT         ?PR?SCALER
            BANK0   DB4CH     001CH     UNIT         ?PR?MAIN?MAIN
            BANK0   DB68H     001CH     UNIT         ?PR?CADJUSTSETBRIGHTNESS?ADJUST
            BANK0   DB84H     001CH     UNIT         ?PR?CADJUSTSETCONTRAST?ADJUST
            BANK0   DBA0H     001CH     UNIT         ?PR?CHECKINTERLACE?ADJUST
            BANK0   DBBCH     001CH     UNIT         ?PR?CEEPROMLOADOSDUSERDATADEFAULT?EEPROM
            BANK0   DBD8H     001CH     UNIT         ?PR?CEEPROMLOADBRICONDATADEFAULT?EEPROM
            BANK0   DBF4H     001CH     UNIT         ?PR?CPOWERADCAPLLON?POWER
            BANK0   DC10H     001CH     UNIT         ?PR?CPOWERADCAPLLOFF?POWER
            BANK0   DC2CH     001BH     UNIT         ?PR?_CADJUSTDISABLEWATCHDOG?ADJUST
            BANK0   DC47H     001BH     UNIT         ?PR?_CGETINPUTSOURCENUM?EEPROM
            BANK0   DC62H     001AH     UNIT         ?PR?CVIDEOSOFTRESET?VIDEO
            BANK0   DC7CH     001AH     UNIT         ?PR?CEEPROMLOADADCDATA?EEPROM
            BANK0   DC96H     001AH     UNIT         ?PR?CPOWERDISPLAYPORTOFF?POWER
            BANK0   DCB0H     0019H     UNIT         ?PR?_CTIMERDELAYXMS?TIMER
            BANK0   DCC9H     0019H     UNIT         ?PR?CCALCCURRENTMODERATIO?MODE
            BANK0   DCE2H     0019H     UNIT         ?PR?CEEPROMSAVEBRICONDATA?EEPROM
            BANK0   DCFBH     0019H     UNIT         ?PR?KEY
            BANK0   DD14H     0017H     UNIT         ?PR?CMODEDETECT?MODE
            BANK0   DD2BH     0016H     UNIT         ?PR?CMODEDISPLAYACTIVEMODE?MODE
            BANK0   DD41H     0016H     UNIT         ?PR?_CVIDEOSETCONTRAST?ADJUST_CUSTOMER
            BANK0   DD57H     0016H     UNIT         ?PR?BSOURCEVIDEO?SOURCE
            BANK0   DD6DH     0015H     UNIT         ?PR?CHDMIAUDIOFIFODETECT?HDMI
            BANK0   DD82H     0015H     UNIT         ?PR?AV_TV
            BANK0   DD97H     0014H     UNIT         ?PR?_CVIDEOSETVDCSATURATION?VIDEO
            BANK0   DDABH     0014H     UNIT         ?PR?_CVIDEOSETVDCCONTRAST?VIDEO
            BANK0   DDBFH     0014H     UNIT         ?PR?_CVIDEOSETVDCBRIGHTNESS?VIDEO
            BANK0   DDD3H     0014H     UNIT         ?PR?CEEPROMLOADCOLORTEMPDATADEFAULT?EEPROM
            BANK0   DDE7H     0014H     UNIT         ?PR?CHDMIFORMATDETECT?HDMI
            BANK0   DDFBH     0013H     UNIT         ?PR?CPOWERHANDLER?POWER
            BANK0   DE0EH     0013H     UNIT         ?PR?SOURCE
            BANK0   DE21H     0012H     UNIT         ?PR?CTIMERINITIALTIMEREVENT?TIMER
            BANK0   DE33H     0012H     UNIT         ?PR?CADJUSTSETYPBPRRHUE?ADJUST
            BANK0   DE45H     0012H     UNIT         ?PR?CADJUSTSETYPBPRGHUE?ADJUST
            BANK0   DE57H     0012H     UNIT         ?PR?CADJUSTSETYPBPRBHUE?ADJUST
            BANK0   DE69H     0012H     UNIT         ?PR?CSCALERDISABLEDISPLAYOUTPUT?SCALER
            BANK0   DE7BH     0012H     UNIT         ?PR?_CGETSOURCEPORTTYPE?SOURCE
            BANK0   DE8DH     0010H     UNIT         ?PR?CMODEAUTOMEASUREON?MODE
            BANK0   DE9DH     0010H     UNIT         ?PR?CVIDEOSETVDCCONBRICUSTOMER?VIDEO
            BANK0   DEADH     0010H     UNIT         ?PR?CEEPROMLOADTVDATADEFAULT?EEPROM
            BANK0   DEBDH     0010H     UNIT         ?PR?CEEPROMLOADAUDIODATADEFAULT?EEPROM
            BANK0   DECDH     0010H     UNIT         ?PR?CSOURCEHANDLER?SOURCE
            BANK0   DEDDH     0010H     UNIT         ?PR?CMISCMODEMEASUREPOLLINGEVENT?MISC
            BANK0   DEEDH     0010H     UNIT         ?PR?CMISCMEASURERESULTPOPPOLLINGEVENT?MISC
BL51 BANKED LINKER/LOCATER V5.11                                                      10/05/2015  09:30:23  PAGE 13


            BANK0   DEFDH     0010H     UNIT         ?PR?CMISCAUTOMEASUREPOLLINGEVENT?MISC
            BANK0   DF0DH     0010H     UNIT         ?PR?CMISCAPPLYDOUBLEBUFFERPOLLINGEVENT?MISC
            BANK0   DF1DH     0010H     UNIT         ?PR?GETVIRTUALKEY?MISC
            BANK0   DF2DH     000FH     UNIT         ?PR?_CFRAMESYNCLASTLINEFINETUNE?FRAMESYNC
            BANK0   DF3CH     000FH     UNIT         ?PR?SYNC
            BANK0   DF4BH     000FH     UNIT         ?PR?CADJUSTTMDSCAPTURECHECK?ADJUST
            BANK0   DF5AH     000FH     UNIT         ?PR?CMISCHSYNCTYPEAUTORUNFLAGPOLLINGEVENT?MISC
            BANK0   DF69H     000FH     UNIT         ?PR?CMUTEON?FUNC
            BANK0   DF78H     000EH     UNIT         ?PR?CMODENOSIGNALEVENT?MODE
            BANK0   DF86H     000EH     UNIT         ?PR?CMODENOCABLEEVENT?MODE
            BANK0   DF94H     000EH     UNIT         ?PR?CMODENOSUPPORTEVENT?MODE
            BANK0   DFA2H     000EH     UNIT         ?PR?CADJUSTTMDSERRORCORRECTIONON?ADJUST
            BANK0   DFB0H     000EH     UNIT         ?PR?CVIDEOOUTPUTDISABLE?VIDEO
            BANK0   DFBEH     000EH     UNIT         ?PR?CPOWERLVDSON?POWER
            BANK0   DFCCH     000EH     UNIT         ?PR?CPOWERLVDSOFF?POWER
            BANK0   DFDAH     000EH     UNIT         ?PR?CPOWERDPLLOFF?POWER
            BANK0   DFE8H     000EH     UNIT         ?PR?CMISCCLEARSTATUSREGISTER?MISC
            BANK0   DFF6H     000DH     UNIT         ?PR?CPOWERPANELPOWERON?POWER
            BANK0   E003H     000CH     UNIT         ?PR?CEEPROMSAVESYSTEMDATA?EEPROM
            BANK0   E00FH     000CH     UNIT         ?PR?CEEPROMLOADSYSTEMDATA?EEPROM
            BANK0   E01BH     000CH     UNIT         ?PR?CPOWERPANELPOWEROFF?POWER
            BANK0   E027H     000BH     UNIT         ?PR?CPOWERLIGHTPOWERON?POWER
            BANK0   E032H     000BH     UNIT         ?PR?CPOWERLIGHTPOWEROFF?POWER
            BANK0   E03DH     000BH     UNIT         ?PR?RTD2662
            BANK0   E048H     000AH     UNIT         ?PR?_CEEPROMLOADUSERFIFOMODEDATA?EEPROM
            BANK0   E052H     000AH     UNIT         ?PR?CKEYINITIAL?KEY
            BANK0   E05CH     0009H     UNIT         ?PR?CMODEAUTOMEASUREOFF?MODE
            BANK0   E065H     0009H     UNIT         ?PR?CADJUSTSYNCPROCESSORMEASURESTART?ADJUST
            BANK0   E06EH     0009H     UNIT         ?PR?CEEPROMWRITEVERSION?EEPROM
            BANK0   E077H     0009H     UNIT         ?PR?CPOWERLEDGREEN?POWER
            BANK0   E080H     0009H     UNIT         ?PR?CPOWERLEDORANGE?POWER
            BANK0   E089H     0009H     UNIT         ?PR?CPOWERTMDSON?POWER
            BANK0   E092H     0009H     UNIT         ?PR?CMISCENABLEDOUBLEBUFFER?MISC
            BANK0   E09BH     0009H     UNIT         ?PR?CMISCDISABLEDOUBLEBUFFER?MISC
            BANK0   E0A4H     0008H     UNIT         ?PR?CADJUSTHPOSITION?ADJUST
            BANK0   E0ACH     0008H     UNIT         ?PR?CADJUSTPEAKINGCODING?ADJUST_CUSTOMER
            BANK0   E0B4H     0008H     UNIT         ?PR?CPOWERLEDRED?POWER
            BANK0   E0BCH     0008H     UNIT         ?PR?CINITINPUTSOURCE?FUNC
            BANK0   E0C4H     0007H     UNIT         ?PR?CMODESTABLECOUNTDOWNEVENT?MODE
            BANK0   E0CBH     0007H     UNIT         ?PR?CHDMIAUDIOWAITINGFLAGREADYEVEN?HDMI
            BANK0   E0D2H     0007H     UNIT         ?PR?CKEYSCANREADYTIMEREVENT?KEY
            BANK0   E0D9H     0007H     UNIT         ?PR?CKEYREPEATENABLETIMEREVENT?KEY
            BANK0   E0E0H     0007H     UNIT         ?PR?KEY_PCB2660_003_5KEY
            BANK0   E0E7H     0007H     UNIT         ?PR?CMUTEOFF?FUNC
            BANK0   E0EEH     0006H     UNIT         ?PR?CADJUSTADCGAINOFFSET?ADJUST
            BANK0   E0F4H     0006H     UNIT         ?PR?CEEPROMSAVEOSDUSERDATA?EEPROM
            BANK0   E0FAH     0006H     UNIT         ?PR?CEEPROMLOADOSDUSERDATA?EEPROM
            BANK0   E100H     0006H     UNIT         ?PR?CEEPROMSAVECOLORTEMPDATA?EEPROM
            BANK0   E106H     0006H     UNIT         ?PR?CEEPROMLOADCOLORTEMPDATA?EEPROM
            BANK0   E10CH     0006H     UNIT         ?PR?CEEPROMSAVETVDATA?EEPROM
            BANK0   E112H     0006H     UNIT         ?PR?CEEPROMLOADTVDATA?EEPROM
            BANK0   E118H     0006H     UNIT         ?PR?CEEPROMSAVEAUDIODATA?EEPROM
            BANK0   E11EH     0006H     UNIT         ?PR?CEEPROMLOADAUDIODATA?EEPROM
            BANK0   E124H     0006H     UNIT         ?PR?CEEPROMSAVEHUESATDATA?EEPROM
            BANK0   E12AH     0006H     UNIT         ?PR?CEEPROMLOADHUESATDATA?EEPROM
            BANK0   E130H     0005H     UNIT         ?PR?_CADJUSTYPBPRHUE?ADJUST_CUSTOMER
            BANK0   E135H     0003H     UNIT         ?PR?CPOWERLEDON?POWER
BL51 BANKED LINKER/LOCATER V5.11                                                      10/05/2015  09:30:23  PAGE 14


            BANK0   E138H     0003H     UNIT         ?PR?CPOWERLEDOFF?POWER
            BANK0   E13BH     0003H     UNIT         ?PR?CPOWERLEDSLEEP?POWER
            BANK0   E13EH     0001H     UNIT         ?PR?CMODEMODIFYVTOTAL?MODE
            BANK0   E13FH     0001H     UNIT         ?PR?CVIDEOOUTPUTENABLE?VIDEO
            BANK0   E140H     0001H     UNIT         ?PR?CKEYPOWERKEYMIX?KEY

            * * * * * * *   C O D E   B A N K   1   * * * * * * *
                    0000H     1E0CH                  *** GAP ***
            BANK1   1E0CH     0007H     UNIT         ?CO?GMIOSDFUNC
            BANK1   1E13H     051EH     UNIT         ?CO?OSDTABLE003
            BANK1   2331H     0004H     UNIT         ?CO?OSDPROC003
            BANK1   2335H     5910H     UNIT         ?CO?OSDRES003
            BANK1   7C45H     041EH     UNIT         ?PR?OSDMENUFUNC003
            BANK1   8063H     020BH     UNIT         ?PR?_CSHOWHDMIMODE?OSDMENUFUNC003
            BANK1   826EH     01D6H     UNIT         ?PR?GMIOSDFUNC
            BANK1   8444H     0180H     UNIT         ?PR?CSHOWNOTE?OSDPROC003
            BANK1   85C4H     0177H     UNIT         ?PR?OSDPROC003
            BANK1   873BH     016DH     UNIT         ?PR?DRAWSOURCEMENU?OSDMENUFUNC003
            BANK1   88A8H     0166H     UNIT         ?PR?COSDSYSTEMFLOWPROC?OSDPROC003
            BANK1   8A0EH     0147H     UNIT         ?PR?_OSDPOSITION?GMIOSDFUNC
            BANK1   8B55H     0135H     UNIT         ?PR?CDISPLAYCURRENTSOURCEMESSAGE?OSDMENUFUNC003
            BANK1   8C8AH     012EH     UNIT         ?PR?_COSDFXDRAWWINDOW?GMIOSDFUNC
            BANK1   8DB8H     0112H     UNIT         ?PR?CDORESET?GMIOSDFUNC
            BANK1   8ECAH     010BH     UNIT         ?PR?_COSDFXCODEWRITE?GMIOSDFUNC
            BANK1   8FD5H     00F4H     UNIT         ?PR?_DRAWADPMENUITEM?OSDMENUFUNC003
            BANK1   90C9H     00F2H     UNIT         ?PR?INITMAINOSD?OSDMENUFUNC003
            BANK1   91BBH     00F0H     UNIT         ?PR?COSDEVENTMSGPROC?OSDPROC003
            BANK1   92ABH     00ECH     UNIT         ?PR?_DRAWAUTOPOWERDOWN?OSDMENUFUNC003
            BANK1   9397H     00E9H     UNIT         ?PR?_DRAWSOURCEMENUITEM?OSDMENUFUNC003
            BANK1   9480H     00E8H     UNIT         ?PR?CDRAWMUTESTATE?OSDPROC003
            BANK1   9568H     00D3H     UNIT         ?PR?_OSDSLIDER?OSDMENUFUNC003
            BANK1   963BH     00C3H     UNIT         ?PR?CSHOWNOSIGNAL?OSDPROC003
            BANK1   96FEH     00C1H     UNIT         ?PR?_CREATEPOPUPMENU?OSDMENUFUNC003
            BANK1   97BFH     00AAH     UNIT         ?PR?_DRAWMAINITEMTITLE?OSDMENUFUNC003
            BANK1   9869H     009BH     UNIT         ?PR?ENTERADPMENU?OSDMENUFUNC003
            BANK1   9904H     0099H     UNIT         ?PR?_LOADCHI_S_FONT?OSDPROC003
            BANK1   999DH     0099H     UNIT         ?PR?_LOADCHI_T_FONT?OSDPROC003
            BANK1   9A36H     0098H     UNIT         ?PR?ENTERCOLORTEMPUSERMENU?OSDMENUFUNC003
            BANK1   9ACEH     0097H     UNIT         ?PR?_DRAWOSDTIMER?OSDMENUFUNC003
            BANK1   9B65H     0091H     UNIT         ?PR?DRAWSHORTCUTEMENU?OSDMENUFUNC003
            BANK1   9BF6H     0091H     UNIT         ?PR?_CSHOWMODE?OSDMENUFUNC003
            BANK1   9C87H     008FH     UNIT         ?PR?_DRAWTRANSPARENT?OSDMENUFUNC003
            BANK1   9D16H     008CH     UNIT         ?PR?CSHOWAUTOADJUST?OSDPROC003
            BANK1   9DA2H     008CH     UNIT         ?PR?_TEXTOUTCALCWIDTH?OSDPROC003
            BANK1   9E2EH     008BH     UNIT         ?PR?COSDHANDLER?OSDPROC003
            BANK1   9EB9H     008BH     UNIT         ?PR?_CSHOWNUMBER1?GMIOSDFUNC
            BANK1   9F44H     008AH     UNIT         ?PR?_DRAWAPOPUPMENUITEM1?OSDMENUFUNC003
            BANK1   9FCEH     0088H     UNIT         ?PR?_VPOSITIONADJUST?OSDMENUFUNC003
            BANK1   A056H     0087H     UNIT         ?PR?_CTRANSPARENTADJ?OSDMENUFUNC003
            BANK1   A0DDH     0086H     UNIT         ?PR?_MTIMERADJVALUE?OSDMENUFUNC003
            BANK1   A163H     0085H     UNIT         ?PR?_DRAWMAINMENUITEM?OSDMENUFUNC003
            BANK1   A1E8H     0085H     UNIT         ?PR?_DRAWCOLORTEMPMENUITEM?OSDMENUFUNC003
            BANK1   A26DH     0084H     UNIT         ?PR?_DRAWTVPAGEMENUITEM?OSDMENUFUNC003
            BANK1   A2F1H     0082H     UNIT         ?PR?_DRAWAPOPUPMENUITEM?OSDMENUFUNC003
            BANK1   A373H     0082H     UNIT         ?PR?_MMAINMENUMENUADJ?OSDMENUFUNC003
            BANK1   A3F5H     0081H     UNIT         ?PR?_DRAWMSEARCHMENUITEM?OSDMENUFUNC003
            BANK1   A476H     0080H     UNIT         ?PR?_MSOURCEVALUEADJ?OSDMENUFUNC003
BL51 BANKED LINKER/LOCATER V5.11                                                      10/05/2015  09:30:23  PAGE 15


            BANK1   A4F6H     007FH     UNIT         ?PR?_HPOSITIONADJUST?OSDMENUFUNC003
            BANK1   A575H     007EH     UNIT         ?PR?_ADJUSTMENUITEM?OSDPROC003
            BANK1   A5F3H     007DH     UNIT         ?PR?_CTEXTOUTBASE?GMIOSDFUNC
            BANK1   A670H     007BH     UNIT         ?PR?_DRAWCOLORTEMP?OSDMENUFUNC003
            BANK1   A6EBH     007BH     UNIT         ?PR?_DRAWSKIPMENUITEM?OSDMENUFUNC003
            BANK1   A766H     007AH     UNIT         ?PR?_DRAWBASS?OSDMENUFUNC003
            BANK1   A7E0H     007AH     UNIT         ?PR?_DRAWTREBLE?OSDMENUFUNC003
            BANK1   A85AH     007AH     UNIT         ?PR?_DRAWCOLORUSERMENUITEM?OSDMENUFUNC003
            BANK1   A8D4H     0079H     UNIT         ?PR?_DRAWBLUESCREENMENUITEM?OSDMENUFUNC003
            BANK1   A94DH     0079H     UNIT         ?PR?BURNINRUN?GMIOSDFUNC
            BANK1   A9C6H     0078H     UNIT         ?PR?_DRAWAUTOSEARCHMENUITEM?OSDMENUFUNC003
            BANK1   AA3EH     0078H     UNIT         ?PR?_OSDLINE?GMIOSDFUNC
            BANK1   AAB6H     0077H     UNIT         ?PR?_DRAWSATURATION?OSDMENUFUNC003
            BANK1   AB2DH     0077H     UNIT         ?PR?_DRAWOSDVPOSITION?OSDMENUFUNC003
            BANK1   ABA4H     0077H     UNIT         ?PR?_DRAWVOLUME?OSDMENUFUNC003
            BANK1   AC1BH     0077H     UNIT         ?PR?_DRAWBALANCE?OSDMENUFUNC003
            BANK1   AC92H     0077H     UNIT         ?PR?_MSHARPNESSADJVALUE?OSDMENUFUNC003
            BANK1   AD09H     0077H     UNIT         ?PR?MSOURCEENTERSUBMENU?OSDMENUFUNC003
            BANK1   AD80H     0077H     UNIT         ?PR?_GETSHOWINDEX?OSDPROC003
            BANK1   ADF7H     0075H     UNIT         ?PR?_DRAWCONTRAST?OSDMENUFUNC003
            BANK1   AE6CH     0075H     UNIT         ?PR?_DRAWHUE?OSDMENUFUNC003
            BANK1   AEE1H     0075H     UNIT         ?PR?_DRAWOSDHPOSITION?OSDMENUFUNC003
            BANK1   AF56H     0074H     UNIT         ?PR?_CSHOWNUMBER?GMIOSDFUNC
            BANK1   AFCAH     0072H     UNIT         ?PR?_DRAWBRIGHT?OSDMENUFUNC003
            BANK1   B03CH     0072H     UNIT         ?PR?_DRAWPHASE?OSDMENUFUNC003
            BANK1   B0AEH     0072H     UNIT         ?PR?_CSETOSDPOSITION?OSDMENUFUNC003
            BANK1   B120H     0071H     UNIT         ?PR?_COSDLOAD1BITFONT?GMIOSDFUNC
            BANK1   B191H     0070H     UNIT         ?PR?_CSETITEMSTARTEND?OSDMENUFUNC003
            BANK1   B201H     006FH     UNIT         ?PR?_DRAWHPOSITION?OSDMENUFUNC003
            BANK1   B270H     006FH     UNIT         ?PR?_DRAWVPOSITION?OSDMENUFUNC003
            BANK1   B2DFH     006FH     UNIT         ?PR?_DRAWCLOCK?OSDMENUFUNC003
            BANK1   B34EH     006EH     UNIT         ?PR?_COSDFXGETADCCLOCKRANGE?GMIOSDFUNC
            BANK1   B3BCH     006CH     UNIT         ?PR?_DRAWDOUBLEMENUITEM?OSDMENUFUNC003
            BANK1   B428H     006CH     UNIT         ?PR?_DRAWDISPLAYRATIOMENUITEM?OSDMENUFUNC003
            BANK1   B494H     006AH     UNIT         ?PR?_DRAWAUTOCONFIGMENUITEM?OSDMENUFUNC003
            BANK1   B4FEH     006AH     UNIT         ?PR?_DRAWRESETMENUITEM?OSDMENUFUNC003
            BANK1   B568H     0069H     UNIT         ?PR?SETROWCMDS?GMIOSDFUNC
            BANK1   B5D1H     0068H     UNIT         ?PR?_CLEARPOPUPMENU?OSDMENUFUNC003
            BANK1   B639H     0068H     UNIT         ?PR?_COSDLOAD1BITFONTWIDTH12?OSDPROC003
            BANK1   B6A1H     0065H     UNIT         ?PR?_DRAWDISPLAYRATIO?OSDMENUFUNC003
            BANK1   B706H     0065H     UNIT         ?PR?_DRAWBLUESCREEN?OSDMENUFUNC003
            BANK1   B76BH     0063H     UNIT         ?PR?_CLOCKADJUST?OSDMENUFUNC003
            BANK1   B7CEH     0063H     UNIT         ?PR?_VALUEINRANGECHANGE?GMIOSDFUNC
            BANK1   B831H     0063H     UNIT         ?PR?_CCENTERTEXTOUT?GMIOSDFUNC
            BANK1   B894H     0062H     UNIT         ?PR?_DRAWOSDPAGEMENUITEM?OSDMENUFUNC003
            BANK1   B8F6H     0062H     UNIT         ?PR?_DRAWSOUNDPAGEMENUITEM?OSDMENUFUNC003
            BANK1   B958H     0061H     UNIT         ?PR?_DIRECTWOSDRAM?GMIOSDFUNC
            BANK1   B9B9H     0061H     UNIT         ?PR?_GETPREVLANGUAGE?GMIOSDFUNC
            BANK1   BA1AH     005FH     UNIT         ?PR?_DRAWDOUBLE?OSDMENUFUNC003
            BANK1   BA79H     005FH     UNIT         ?PR?MTVENTERSUBMENU?OSDMENUFUNC003
            BANK1   BAD8H     005CH     UNIT         ?PR?_CFOUNDKEYMSGTOOSDEVENT?OSDPROC003
            BANK1   BB34H     005BH     UNIT         ?PR?_DRAW2BIT3X2ICON?OSDPROC003
            BANK1   BB8FH     0059H     UNIT         ?PR?MDOUBLEENTERSUBMENU?OSDMENUFUNC003
            BANK1   BBE8H     0058H     UNIT         ?PR?MMAINMENUENTERSUBMENU?OSDMENUFUNC003
            BANK1   BC40H     0058H     UNIT         ?PR?ENTERBLUESCREENMENU?OSDMENUFUNC003
            BANK1   BC98H     0058H     UNIT         ?PR?INITOSDFRAME?OSDPROC003
            BANK1   BCF0H     0057H     UNIT         ?PR?_DRAWCOLORPAGEMENUITEM?OSDMENUFUNC003
BL51 BANKED LINKER/LOCATER V5.11                                                      10/05/2015  09:30:23  PAGE 16


            BANK1   BD47H     0057H     UNIT         ?PR?_DRAWADJUSTPAGEMENUITEM?OSDMENUFUNC003
            BANK1   BD9EH     0057H     UNIT         ?PR?_DRAWFUNCPAGEMENUITEM?OSDMENUFUNC003
            BANK1   BDF5H     0057H     UNIT         ?PR?ENTERDISPLAYRATIOMENU?OSDMENUFUNC003
            BANK1   BE4CH     0056H     UNIT         ?PR?_SUBMENUTEXTOUT?OSDMENUFUNC003
            BANK1   BEA2H     0056H     UNIT         ?PR?ENTERCOLORTEMPMENU?OSDMENUFUNC003
            BANK1   BEF8H     0055H     UNIT         ?PR?MMENUNONEPROC?OSDMENUFUNC003
            BANK1   BF4DH     0054H     UNIT         ?PR?SETOSDRAMADDRESS?GMIOSDFUNC
            BANK1   BFA1H     0053H     UNIT         ?PR?_MTVVALUEADJ?OSDMENUFUNC003
            BANK1   BFF4H     0051H     UNIT         ?PR?_MCOLORTEMPMENUADJ?OSDMENUFUNC003
            BANK1   C045H     0051H     UNIT         ?PR?_DRAWLANGAUGEMENUITEM?OSDMENUFUNC003
            BANK1   C096H     0051H     UNIT         ?PR?_GETSHOWCOUNT?OSDPROC003
            BANK1   C0E7H     004FH     UNIT         ?PR?MOSDENTERSUBMENU?OSDMENUFUNC003
            BANK1   C136H     004FH     UNIT         ?PR?_GOTOXY?GMIOSDFUNC
            BANK1   C185H     004EH     UNIT         ?PR?CNOTUSE?OSDPROC003
            BANK1   C1D3H     004CH     UNIT         ?PR?_DRAWLANGUAGE?OSDMENUFUNC003
            BANK1   C21FH     004CH     UNIT         ?PR?ENTERLANGUAGEMENU?OSDMENUFUNC003
            BANK1   C26BH     004CH     UNIT         ?PR?ENTERDOUBLEMENU?OSDMENUFUNC003
            BANK1   C2B7H     004CH     UNIT         ?PR?CHANGESOURCESTATE?OSDPROC003
            BANK1   C303H     004AH     UNIT         ?PR?_DRAWSRS?OSDMENUFUNC003
            BANK1   C34DH     004AH     UNIT         ?PR?_DRAWBBE?OSDMENUFUNC003
            BANK1   C397H     0047H     UNIT         ?PR?DRAWMAINMENU?OSDMENUFUNC003
            BANK1   C3DEH     0046H     UNIT         ?PR?_COSDVPOSITIONADJ?OSDMENUFUNC003
            BANK1   C424H     0046H     UNIT         ?PR?ENTERSCVOLUME?OSDMENUFUNC003
            BANK1   C46AH     0046H     UNIT         ?PR?_CTEXTOUTRIGHTALIGN?GMIOSDFUNC
            BANK1   C4B0H     0045H     UNIT         ?PR?DRAWTVPAGE?OSDMENUFUNC003
            BANK1   C4F5H     0045H     UNIT         ?PR?MCOLORENTERSUBMENU?OSDMENUFUNC003
            BANK1   C53AH     0044H     UNIT         ?PR?_DRAWCHANNEL?OSDMENUFUNC003
            BANK1   C57EH     0044H     UNIT         ?PR?_DRAWSHARPNESS?OSDMENUFUNC003
            BANK1   C5C2H     0044H     UNIT         ?PR?MADJUSTENTERSUBMENU?OSDMENUFUNC003
            BANK1   C606H     0043H     UNIT         ?PR?_HUEADJUST?OSDMENUFUNC003
            BANK1   C649H     0043H     UNIT         ?PR?_SATURATIONADJUST?OSDMENUFUNC003
            BANK1   C68CH     0043H     UNIT         ?PR?_MOSDVALUEADJ?OSDMENUFUNC003
            BANK1   C6CFH     0043H     UNIT         ?PR?MFUNCTIONENTERSUBMENU?OSDMENUFUNC003
            BANK1   C712H     0042H     UNIT         ?PR?_COSDHPOSITIONADJ?OSDMENUFUNC003
            BANK1   C754H     0041H     UNIT         ?PR?_VOLUMEADJUST?OSDMENUFUNC003
            BANK1   C795H     0041H     UNIT         ?PR?_CSHOWVGAMODE?OSDMENUFUNC003
            BANK1   C7D6H     0041H     UNIT         ?PR?COSDCTRLGETHPOSITION?GMIOSDFUNC
            BANK1   C817H     0041H     UNIT         ?PR?COSDCTRLGETVPOSITION?GMIOSDFUNC
            BANK1   C858H     0041H     UNIT         ?PR?_GETNEXTLANGUAGE?GMIOSDFUNC
            BANK1   C899H     003EH     UNIT         ?PR?_PHASEADJUST?OSDMENUFUNC003
            BANK1   C8D7H     003DH     UNIT         ?PR?MAINMENUITEMCHGCLEAR?OSDMENUFUNC003
            BANK1   C914H     003DH     UNIT         ?PR?_MCOLORVALUEADJ?OSDMENUFUNC003
            BANK1   C951H     003DH     UNIT         ?PR?_MCOLORUSERVALUEADJ?OSDMENUFUNC003
            BANK1   C98EH     003DH     UNIT         ?PR?_MADJUSTVALUEADJ?OSDMENUFUNC003
            BANK1   C9CBH     003DH     UNIT         ?PR?MDISPLAYRATIOENTERSUBMENU?OSDMENUFUNC003
            BANK1   CA08H     003DH     UNIT         ?PR?COSDDISPFIRSTTIMELOADFONT?OSDPROC003
            BANK1   CA45H     003CH     UNIT         ?PR?DRAWCOLORPAGE?OSDMENUFUNC003
            BANK1   CA81H     003CH     UNIT         ?PR?DRAWADJUSTPAGE?OSDMENUFUNC003
            BANK1   CABDH     003CH     UNIT         ?PR?DRAWOSDPAGE?OSDMENUFUNC003
            BANK1   CAF9H     003CH     UNIT         ?PR?DRAWFUNCPAGE?OSDMENUFUNC003
            BANK1   CB35H     003CH     UNIT         ?PR?DRAWSOUNDPAGE?OSDMENUFUNC003
            BANK1   CB71H     003CH     UNIT         ?PR?_OSDCLEAR?GMIOSDFUNC
            BANK1   CBADH     0039H     UNIT         ?PR?_CBALANCEADJUST?OSDMENUFUNC003
            BANK1   CBE6H     0039H     UNIT         ?PR?_CBASSADJUST?OSDMENUFUNC003
            BANK1   CC1FH     0039H     UNIT         ?PR?_CTREBLEADJUST?OSDMENUFUNC003
            BANK1   CC58H     0039H     UNIT         ?PR?MSOUNDENTERSUBMENU?OSDMENUFUNC003
            BANK1   CC91H     0038H     UNIT         ?PR?_CTEXTOUTEX?GMIOSDFUNC
BL51 BANKED LINKER/LOCATER V5.11                                                      10/05/2015  09:30:23  PAGE 17


            BANK1   CCC9H     0038H     UNIT         ?PR?_CCALCTEXTPIXCELLEN?GMIOSDFUNC
            BANK1   CD01H     0037H     UNIT         ?PR?_MSOUNDVALUEADJ?OSDMENUFUNC003
            BANK1   CD38H     0037H     UNIT         ?PR?CKEYOSDMSGCOVER?OSDPROC003
            BANK1   CD6FH     0036H     UNIT         ?PR?MBRIGHTNESSPROC?OSDMENUFUNC003
            BANK1   CDA5H     0036H     UNIT         ?PR?MCONTRASTPROC?OSDMENUFUNC003
            BANK1   CDDBH     0036H     UNIT         ?PR?MHUEPROC?OSDMENUFUNC003
            BANK1   CE11H     0036H     UNIT         ?PR?MSATURATIONPROC?OSDMENUFUNC003
            BANK1   CE47H     0034H     UNIT         ?PR?_DRAWAUTOADJUST?OSDMENUFUNC003
            BANK1   CE7BH     0034H     UNIT         ?PR?_DRAWAUTOSEARCH?OSDMENUFUNC003
            BANK1   CEAFH     0034H     UNIT         ?PR?_DRAWMANUALSEARCH?OSDMENUFUNC003
            BANK1   CEE3H     0034H     UNIT         ?PR?_DRAWRESET?OSDMENUFUNC003
            BANK1   CF17H     0034H     UNIT         ?PR?COSDCTRLGETCLOCK?GMIOSDFUNC
            BANK1   CF4BH     0031H     UNIT         ?PR?_CONTRASTADJUST?OSDMENUFUNC003
            BANK1   CF7CH     0031H     UNIT         ?PR?MCOLORUSERENTERSUBMENU?OSDMENUFUNC003
            BANK1   CFADH     0031H     UNIT         ?PR?MRPROC?OSDMENUFUNC003
            BANK1   CFDEH     0031H     UNIT         ?PR?MGPROC?OSDMENUFUNC003
            BANK1   D00FH     0031H     UNIT         ?PR?MBPROC?OSDMENUFUNC003
            BANK1   D040H     0031H     UNIT         ?PR?MADJUSTVPOSITIONPROC?OSDMENUFUNC003
            BANK1   D071H     0031H     UNIT         ?PR?MADJUSTPHASEPROC?OSDMENUFUNC003
            BANK1   D0A2H     0031H     UNIT         ?PR?MADJUSTCLOCKPROC?OSDMENUFUNC003
            BANK1   D0D3H     0031H     UNIT         ?PR?MTIMERPROC?OSDMENUFUNC003
            BANK1   D104H     0031H     UNIT         ?PR?MHPOSITIONPROC?OSDMENUFUNC003
            BANK1   D135H     0031H     UNIT         ?PR?MVPOSITIONPROC?OSDMENUFUNC003
            BANK1   D166H     0031H     UNIT         ?PR?MTRANSPARENTPROC?OSDMENUFUNC003
            BANK1   D197H     0031H     UNIT         ?PR?MTUNINGPROC?OSDMENUFUNC003
            BANK1   D1C8H     0031H     UNIT         ?PR?MCHANNELPROC?OSDMENUFUNC003
            BANK1   D1F9H     0031H     UNIT         ?PR?MSHARPNESSPROC?OSDMENUFUNC003
            BANK1   D22AH     0031H     UNIT         ?PR?MVOLUMEPROC?OSDMENUFUNC003
            BANK1   D25BH     0031H     UNIT         ?PR?MBALANCEPROC?OSDMENUFUNC003
            BANK1   D28CH     0031H     UNIT         ?PR?MBASSPROC?OSDMENUFUNC003
            BANK1   D2BDH     0031H     UNIT         ?PR?MTREBLEPROC?OSDMENUFUNC003
            BANK1   D2EEH     0030H     UNIT         ?PR?MMAINMENUPROC?OSDMENUFUNC003
            BANK1   D31EH     0030H     UNIT         ?PR?MCOLORPROC?OSDMENUFUNC003
            BANK1   D34EH     0030H     UNIT         ?PR?MCOLORUSERPROC?OSDMENUFUNC003
            BANK1   D37EH     0030H     UNIT         ?PR?MADJUSTPROC?OSDMENUFUNC003
            BANK1   D3AEH     0030H     UNIT         ?PR?MAUTOADJUSTPROC?OSDMENUFUNC003
            BANK1   D3DEH     0030H     UNIT         ?PR?MADJUSTHPOSITIONPROC?OSDMENUFUNC003
            BANK1   D40EH     0030H     UNIT         ?PR?MOSDPROC?OSDMENUFUNC003
            BANK1   D43EH     0030H     UNIT         ?PR?MLANGUAGEPROC?OSDMENUFUNC003
            BANK1   D46EH     0030H     UNIT         ?PR?MDOUBLEPROC?OSDMENUFUNC003
            BANK1   D49EH     0030H     UNIT         ?PR?MTVPROC?OSDMENUFUNC003
            BANK1   D4CEH     0030H     UNIT         ?PR?MSYSTEMPROC?OSDMENUFUNC003
            BANK1   D4FEH     0030H     UNIT         ?PR?MAUTOSEARCHPROC?OSDMENUFUNC003
            BANK1   D52EH     0030H     UNIT         ?PR?MMANUALSEARCHPROC?OSDMENUFUNC003
            BANK1   D55EH     0030H     UNIT         ?PR?MSKIPPROC?OSDMENUFUNC003
            BANK1   D58EH     0030H     UNIT         ?PR?MAFCPROC?OSDMENUFUNC003
            BANK1   D5BEH     0030H     UNIT         ?PR?MFUNCTIONPROC?OSDMENUFUNC003
            BANK1   D5EEH     0030H     UNIT         ?PR?MRESETPROC?OSDMENUFUNC003
            BANK1   D61EH     0030H     UNIT         ?PR?MDISPLAYRATIOPROC?OSDMENUFUNC003
            BANK1   D64EH     0030H     UNIT         ?PR?MAUTOPOWERDOWNPROC?OSDMENUFUNC003
            BANK1   D67EH     0030H     UNIT         ?PR?MBLUESCREENPROC?OSDMENUFUNC003
            BANK1   D6AEH     0030H     UNIT         ?PR?MSOUNDPROC?OSDMENUFUNC003
            BANK1   D6DEH     0030H     UNIT         ?PR?MSOURCEPROC?OSDMENUFUNC003
            BANK1   D70EH     002EH     UNIT         ?PR?_MFUNCTIONVALUEADJ?OSDMENUFUNC003
            BANK1   D73CH     002DH     UNIT         ?PR?_MTVMENUADJ?OSDMENUFUNC003
            BANK1   D769H     002CH     UNIT         ?PR?_DRAWPAGENULLLINE?OSDMENUFUNC003
            BANK1   D795H     002BH     UNIT         ?PR?MAUTOADJUSTENTERSUBMENU?OSDMENUFUNC003
BL51 BANKED LINKER/LOCATER V5.11                                                      10/05/2015  09:30:23  PAGE 18


            BANK1   D7C0H     002BH     UNIT         ?PR?ENTERSCBRIGHT?OSDMENUFUNC003
            BANK1   D7EBH     002AH     UNIT         ?PR?_MSCVOLUMEVALUEADJ?OSDMENUFUNC003
            BANK1   D815H     0029H     UNIT         ?PR?_BRIGHTADJUST?OSDMENUFUNC003
            BANK1   D83EH     0028H     UNIT         ?PR?_DRAWSUBMENU?OSDMENUFUNC003
            BANK1   D866H     0026H     UNIT         ?PR?CHECKLANGUAGE?GMIOSDFUNC
            BANK1   D88CH     0025H     UNIT         ?PR?_COSDCOLORPALETTE?GMIOSDFUNC
            BANK1   D8B1H     0025H     UNIT         ?PR?_TEXTOUT?GMIOSDFUNC
            BANK1   D8D6H     0024H     UNIT         ?PR?COSDDOUBLEEN?OSDMENUFUNC003
            BANK1   D8FAH     0024H     UNIT         ?PR?_LOADCHIFONT?OSDPROC003
            BANK1   D91EH     0024H     UNIT         ?PR?CSETMUTESTATE?OSDPROC003
            BANK1   D942H     0024H     UNIT         ?PR?_SETCHARWDITH?GMIOSDFUNC
            BANK1   D966H     0024H     UNIT         ?PR?_CSETBLANKWIDTH?GMIOSDFUNC
            BANK1   D98AH     0024H     UNIT         ?PR?COSDFXDISABLEOSD?GMIOSDFUNC
            BANK1   D9AEH     0023H     UNIT         ?PR?CVIDEONTSCENABLE?OSDMENUFUNC003
            BANK1   D9D1H     0023H     UNIT         ?PR?MBLUESCREENENTERSUBMENU?OSDMENUFUNC003
            BANK1   D9F4H     0022H     UNIT         ?PR?LOADLANGUAGEFONT?OSDPROC003
            BANK1   DA16H     0021H     UNIT         ?PR?MCOLORTEMPPROC?OSDMENUFUNC003
            BANK1   DA37H     0021H     UNIT         ?PR?MLANGUAGEENTERSUBMENU?OSDMENUFUNC003
            BANK1   DA58H     0021H     UNIT         ?PR?_CCOVERKEYMSGTOOSDEVENT?OSDPROC003
            BANK1   DA79H     0021H     UNIT         ?PR?_GETCHARWDITH?GMIOSDFUNC
            BANK1   DA9AH     0020H     UNIT         ?PR?_MCOLORMENUADJ?OSDMENUFUNC003
            BANK1   DABAH     0020H     UNIT         ?PR?_MCOLORUSERMENUADJ?OSDMENUFUNC003
            BANK1   DADAH     0020H     UNIT         ?PR?_MADJUSTMENUADJ?OSDMENUFUNC003
            BANK1   DAFAH     0020H     UNIT         ?PR?_MAUTOADJUSTMENUADJ?OSDMENUFUNC003
            BANK1   DB1AH     0020H     UNIT         ?PR?_MOSDMENUADJ?OSDMENUFUNC003
            BANK1   DB3AH     0020H     UNIT         ?PR?_MLANGUAGEMENUADJ?OSDMENUFUNC003
            BANK1   DB5AH     0020H     UNIT         ?PR?_MDOUBLEMENUADJ?OSDMENUFUNC003
            BANK1   DB7AH     0020H     UNIT         ?PR?_MAUTOSEARCHMENUADJ?OSDMENUFUNC003
            BANK1   DB9AH     0020H     UNIT         ?PR?_MMANUALSEARCHMENUADJ?OSDMENUFUNC003
            BANK1   DBBAH     0020H     UNIT         ?PR?_MSKIPMENUADJ?OSDMENUFUNC003
            BANK1   DBDAH     0020H     UNIT         ?PR?_MFUNCTIONMENUADJ?OSDMENUFUNC003
            BANK1   DBFAH     0020H     UNIT         ?PR?_MRESETMENUADJ?OSDMENUFUNC003
            BANK1   DC1AH     0020H     UNIT         ?PR?_MDISPLAYRATIOMENUADJ?OSDMENUFUNC003
            BANK1   DC3AH     0020H     UNIT         ?PR?_MAUTOPOWERDOWNMENUADJ?OSDMENUFUNC003
            BANK1   DC5AH     0020H     UNIT         ?PR?_MBLUESCREENMENUADJ?OSDMENUFUNC003
            BANK1   DC7AH     0020H     UNIT         ?PR?_MSOUNDMENUADJ?OSDMENUFUNC003
            BANK1   DC9AH     0020H     UNIT         ?PR?_MSOURCEMENUADJ?OSDMENUFUNC003
            BANK1   DCBAH     001DH     UNIT         ?PR?ENTERAUTOSEARCHMENU?OSDMENUFUNC003
            BANK1   DCD7H     001DH     UNIT         ?PR?ENTERMSEARCHMENU?OSDMENUFUNC003
            BANK1   DCF4H     001BH     UNIT         ?PR?MSCBRIGHTNESSPROC?OSDMENUFUNC003
            BANK1   DD0FH     001BH     UNIT         ?PR?_MSCBRGITHNESSVALUEADJ?OSDMENUFUNC003
            BANK1   DD2AH     001BH     UNIT         ?PR?MSCVOLUMEPROC?OSDMENUFUNC003
            BANK1   DD45H     001BH     UNIT         ?PR?CSHORTCUTKEYMSG?OSDPROC003
            BANK1   DD60H     001AH     UNIT         ?PR?_COLORRADJUST?OSDMENUFUNC003
            BANK1   DD7AH     001AH     UNIT         ?PR?_COLORGADJUST?OSDMENUFUNC003
            BANK1   DD94H     001AH     UNIT         ?PR?_COLORBADJUST?OSDMENUFUNC003
            BANK1   DDAEH     001AH     UNIT         ?PR?_COSDFXCLOSEWINDOW?GMIOSDFUNC
            BANK1   DDC8H     0019H     UNIT         ?PR?_STATECOLOR?OSDMENUFUNC003
            BANK1   DDE1H     0019H     UNIT         ?PR?ENTERAUTOCONFIGMENU?OSDMENUFUNC003
            BANK1   DDFAH     0019H     UNIT         ?PR?ENTERRESETMENU?OSDMENUFUNC003
            BANK1   DE13H     0017H     UNIT         ?PR?FIRSTLANGUAGE?GMIOSDFUNC
            BANK1   DE2AH     0016H     UNIT         ?PR?CVIDEOENABLE?OSDMENUFUNC003
            BANK1   DE40H     0016H     UNIT         ?PR?_SETOSDDOUBLE?GMIOSDFUNC
            BANK1   DE56H     0015H     UNIT         ?PR?_OUTPUTCHAR?GMIOSDFUNC
            BANK1   DE6BH     0013H     UNIT         ?PR?MMENUNONEENTERSUBMENU?OSDMENUFUNC003
            BANK1   DE7EH     0013H     UNIT         ?PR?MRESETENTERSUBMENU?OSDMENUFUNC003
            BANK1   DE91H     0012H     UNIT         ?PR?_STRLEN?GMIOSDFUNC
BL51 BANKED LINKER/LOCATER V5.11                                                      10/05/2015  09:30:23  PAGE 19


            BANK1   DEA3H     0010H     UNIT         ?PR?_CGETPOPUPMENUROW?OSDMENUFUNC003
            BANK1   DEB3H     0010H     UNIT         ?PR?COSDDISPOSDTIMEREVENT?OSDPROC003
            BANK1   DEC3H     0010H     UNIT         ?PR?INITBURNIN?GMIOSDFUNC
            BANK1   DED3H     000EH     UNIT         ?PR?MCOLORTEMPENTERSUBMENU?OSDMENUFUNC003
            BANK1   DEE1H     000EH     UNIT         ?PR?MTVRETURNUPMENU?OSDMENUFUNC003
            BANK1   DEEFH     000EH     UNIT         ?PR?CLEARSKIPMENU?OSDMENUFUNC003
            BANK1   DEFDH     000EH     UNIT         ?PR?CLEARBLUESCREENMENU?OSDMENUFUNC003
            BANK1   DF0BH     000EH     UNIT         ?PR?COSDFXENABLEOSD?GMIOSDFUNC
            BANK1   DF19H     000EH     UNIT         ?PR?COSDCTRLGETPHASE?GMIOSDFUNC
            BANK1   DF27H     000DH     UNIT         ?PR?CLEARLANGAUGEMENU?OSDMENUFUNC003
            BANK1   DF34H     000DH     UNIT         ?PR?CLEARSYSTEMMENU?OSDMENUFUNC003
            BANK1   DF41H     000CH     UNIT         ?PR?MDISPLAYRATIOENABLE?OSDMENUFUNC003
            BANK1   DF4DH     000CH     UNIT         ?PR?MRRETURNUPMENU?OSDMENUFUNC003
            BANK1   DF59H     000CH     UNIT         ?PR?MGRETURNUPMENU?OSDMENUFUNC003
            BANK1   DF65H     000CH     UNIT         ?PR?MBRETURNUPMENU?OSDMENUFUNC003
            BANK1   DF71H     000CH     UNIT         ?PR?_SETOSDMAP?GMIOSDFUNC
            BANK1   DF7DH     000BH     UNIT         ?PR?CTVENABLE?OSDMENUFUNC003
            BANK1   DF88H     000BH     UNIT         ?PR?MCOLORRETURNUPMENU?OSDMENUFUNC003
            BANK1   DF93H     000BH     UNIT         ?PR?_MRVALUEADJ?OSDMENUFUNC003
            BANK1   DF9EH     000BH     UNIT         ?PR?_MGVALUEADJ?OSDMENUFUNC003
            BANK1   DFA9H     000BH     UNIT         ?PR?_MBVALUEADJ?OSDMENUFUNC003
            BANK1   DFB4H     000BH     UNIT         ?PR?MADJUSTRETURNUPMENU?OSDMENUFUNC003
            BANK1   DFBFH     000BH     UNIT         ?PR?MOSDRETURNUPMENU?OSDMENUFUNC003
            BANK1   DFCAH     000BH     UNIT         ?PR?CLEARAUTOSEARCHMENU?OSDMENUFUNC003
            BANK1   DFD5H     000BH     UNIT         ?PR?CLEARMSEARCHMENU?OSDMENUFUNC003
            BANK1   DFE0H     000BH     UNIT         ?PR?MFUNCTIONRETURNUPMENU?OSDMENUFUNC003
            BANK1   DFEBH     000BH     UNIT         ?PR?MSOUNDRETURNUPMENU?OSDMENUFUNC003
            BANK1   DFF6H     000AH     UNIT         ?PR?CVGAENABLE?OSDMENUFUNC003
            BANK1   E000H     000AH     UNIT         ?PR?MBRIGHTNESSRETURNUPMENU?OSDMENUFUNC003
            BANK1   E00AH     000AH     UNIT         ?PR?MCONTRASTRETURNUPMENU?OSDMENUFUNC003
            BANK1   E014H     000AH     UNIT         ?PR?MHUERETURNUPMENU?OSDMENUFUNC003
            BANK1   E01EH     000AH     UNIT         ?PR?MSATURATIONRETURNUPMENU?OSDMENUFUNC003
            BANK1   E028H     000AH     UNIT         ?PR?MCOLORTEMPRETURNUPMENU?OSDMENUFUNC003
            BANK1   E032H     000AH     UNIT         ?PR?MAUTOADJUSTRETURNUPMENU?OSDMENUFUNC003
            BANK1   E03CH     000AH     UNIT         ?PR?MADJUSTHPOSITIONRETURNUPMENU?OSDMENUFUNC003
            BANK1   E046H     000AH     UNIT         ?PR?MADJUSTVPOSITIONRETURNUPMENU?OSDMENUFUNC003
            BANK1   E050H     000AH     UNIT         ?PR?MADJUSTPHASERETURNUPMENU?OSDMENUFUNC003
            BANK1   E05AH     000AH     UNIT         ?PR?MADJUSTCLOCKRETURNUPMENU?OSDMENUFUNC003
            BANK1   E064H     000AH     UNIT         ?PR?MLANGUAGERETURNUPMENU?OSDMENUFUNC003
            BANK1   E06EH     000AH     UNIT         ?PR?MTIMERRETURNUPMENU?OSDMENUFUNC003
            BANK1   E078H     000AH     UNIT         ?PR?MHPOSITIONRETURNUPMENU?OSDMENUFUNC003
            BANK1   E082H     000AH     UNIT         ?PR?MVPOSITIONRETURNUPMENU?OSDMENUFUNC003
            BANK1   E08CH     000AH     UNIT         ?PR?MDOUBLERETURNUPMENU?OSDMENUFUNC003
            BANK1   E096H     000AH     UNIT         ?PR?MTRANSPARENTRETURNUPMENU?OSDMENUFUNC003
            BANK1   E0A0H     000AH     UNIT         ?PR?MTUNINGRETURNUPMENU?OSDMENUFUNC003
            BANK1   E0AAH     000AH     UNIT         ?PR?MCHANNELRETURNUPMENU?OSDMENUFUNC003
            BANK1   E0B4H     000AH     UNIT         ?PR?MSYSTEMRETURNUPMENU?OSDMENUFUNC003
            BANK1   E0BEH     000AH     UNIT         ?PR?MAUTOSEARCHRETURNUPMENU?OSDMENUFUNC003
            BANK1   E0C8H     000AH     UNIT         ?PR?MMANUALSEARCHRETURNUPMENU?OSDMENUFUNC003
            BANK1   E0D2H     000AH     UNIT         ?PR?MSKIPRETURNUPMENU?OSDMENUFUNC003
            BANK1   E0DCH     000AH     UNIT         ?PR?MAFCRETURNUPMENU?OSDMENUFUNC003
            BANK1   E0E6H     000AH     UNIT         ?PR?MRESETRETURNUPMENU?OSDMENUFUNC003
            BANK1   E0F0H     000AH     UNIT         ?PR?MDISPLAYRATIORETURNUPMENU?OSDMENUFUNC003
            BANK1   E0FAH     000AH     UNIT         ?PR?MAUTOPOWERDOWNRETURNUPMENU?OSDMENUFUNC003
            BANK1   E104H     000AH     UNIT         ?PR?MBLUESCREENRETURNUPMENU?OSDMENUFUNC003
            BANK1   E10EH     000AH     UNIT         ?PR?MSHARPNESSRETURNUPMENU?OSDMENUFUNC003
            BANK1   E118H     000AH     UNIT         ?PR?MVOLUMERETURNUPMENU?OSDMENUFUNC003
BL51 BANKED LINKER/LOCATER V5.11                                                      10/05/2015  09:30:23  PAGE 20


            BANK1   E122H     000AH     UNIT         ?PR?MBALANCERETURNUPMENU?OSDMENUFUNC003
            BANK1   E12CH     000AH     UNIT         ?PR?MBASSRETURNUPMENU?OSDMENUFUNC003
            BANK1   E136H     000AH     UNIT         ?PR?MTREBLERETURNUPMENU?OSDMENUFUNC003
            BANK1   E140H     0007H     UNIT         ?PR?CLEARCOLORTEMPMENU?OSDMENUFUNC003
            BANK1   E147H     0007H     UNIT         ?PR?CLEARCOLORUSERMENU?OSDMENUFUNC003
            BANK1   E14EH     0007H     UNIT         ?PR?CLEARAUTOCONFIGMENU?OSDMENUFUNC003
            BANK1   E155H     0007H     UNIT         ?PR?CLEARDOUBLEMENU?OSDMENUFUNC003
            BANK1   E15CH     0007H     UNIT         ?PR?CLEARAFCMENU?OSDMENUFUNC003
            BANK1   E163H     0007H     UNIT         ?PR?CLEARRESETMENU?OSDMENUFUNC003
            BANK1   E16AH     0007H     UNIT         ?PR?CLEARDISPLAYRATIOMENU?OSDMENUFUNC003
            BANK1   E171H     0007H     UNIT         ?PR?CLEARADPMENU?OSDMENUFUNC003
            BANK1   E178H     0007H     UNIT         ?PR?MSCBRGITHNESSRETURNUPMENU?OSDMENUFUNC003
            BANK1   E17FH     0007H     UNIT         ?PR?MSCVOLUMERETURNUPMENU?OSDMENUFUNC003
            BANK1   E186H     0006H     UNIT         ?PR?MCOLORUSERRETURNUPMENU?OSDMENUFUNC003
            BANK1   E18CH     0003H     UNIT         ?PR?MMAINMENURETURNUPMENU?OSDMENUFUNC003
            BANK1   E18FH     0003H     UNIT         ?PR?_MBRIGHTNESSVALUEADJ?OSDMENUFUNC003
            BANK1   E192H     0003H     UNIT         ?PR?_MCONTRASTVALUEADJ?OSDMENUFUNC003
            BANK1   E195H     0003H     UNIT         ?PR?_MHUEVALUEADJ?OSDMENUFUNC003
            BANK1   E198H     0003H     UNIT         ?PR?_MSATURATIONVALUEADJ?OSDMENUFUNC003
            BANK1   E19BH     0003H     UNIT         ?PR?_MADJUSTHPOSITIONVALUEADJ?OSDMENUFUNC003
            BANK1   E19EH     0003H     UNIT         ?PR?_MADJUSTVPOSITIONVALUEADJ?OSDMENUFUNC003
            BANK1   E1A1H     0003H     UNIT         ?PR?_MADJUSTPHASEVALUEADJ?OSDMENUFUNC003
            BANK1   E1A4H     0003H     UNIT         ?PR?_MADJUSTCLOCKVALUEADJ?OSDMENUFUNC003
            BANK1   E1A7H     0003H     UNIT         ?PR?_MHPOSITIONVALUEADJ?OSDMENUFUNC003
            BANK1   E1AAH     0003H     UNIT         ?PR?_MVPOSITIONVALUEADJ?OSDMENUFUNC003
            BANK1   E1ADH     0003H     UNIT         ?PR?MSYSTEMENTERSUBMENU?OSDMENUFUNC003
            BANK1   E1B0H     0003H     UNIT         ?PR?_MVOLUMEVALUEADJ?OSDMENUFUNC003
            BANK1   E1B3H     0003H     UNIT         ?PR?_MBALANCEVALUEADJ?OSDMENUFUNC003
            BANK1   E1B6H     0003H     UNIT         ?PR?_MBASSVALUEADJ?OSDMENUFUNC003
            BANK1   E1B9H     0003H     UNIT         ?PR?_MTREBLEVALUEADJ?OSDMENUFUNC003
            BANK1   E1BCH     0003H     UNIT         ?PR?MSOURCERETURNUPMENU?OSDMENUFUNC003
            BANK1   E1BFH     0002H     UNIT         ?PR?CENABLE?OSDMENUFUNC003
            BANK1   E1C1H     0002H     UNIT         ?PR?MSOUNDENABLE?OSDMENUFUNC003
            BANK1   E1C3H     0002H     UNIT         ?PR?MNJW1144ENABLE?OSDMENUFUNC003
            BANK1   E1C5H     0002H     UNIT         ?PR?CMIVGAENABLE?OSDMENUFUNC003
            BANK1   E1C7H     0002H     UNIT         ?PR?CMIDVIENABLE?OSDMENUFUNC003
            BANK1   E1C9H     0002H     UNIT         ?PR?CMIHDMIENABLE?OSDMENUFUNC003
            BANK1   E1CBH     0002H     UNIT         ?PR?CMIYPBPRENABLE?OSDMENUFUNC003
            BANK1   E1CDH     0002H     UNIT         ?PR?CMISVENABLE?OSDMENUFUNC003
            BANK1   E1CFH     0002H     UNIT         ?PR?CMIAVENABLE?OSDMENUFUNC003
            BANK1   E1D1H     0002H     UNIT         ?PR?CMITVENABLE?OSDMENUFUNC003
            BANK1   E1D3H     0002H     UNIT         ?PR?CENGENABLE?OSDMENUFUNC003
            BANK1   E1D5H     0002H     UNIT         ?PR?CCHI_S_ENABLE?OSDMENUFUNC003
            BANK1   E1D7H     0002H     UNIT         ?PR?CFRA_ENABLE?OSDMENUFUNC003
            BANK1   E1D9H     0002H     UNIT         ?PR?CITA_ENABLE?OSDMENUFUNC003
            BANK1   E1DBH     0002H     UNIT         ?PR?CDEU_ENABLE?OSDMENUFUNC003
            BANK1   E1DDH     0002H     UNIT         ?PR?CESP_ENABLE?OSDMENUFUNC003
            BANK1   E1DFH     0002H     UNIT         ?PR?CCHI_T_ENABLE?OSDMENUFUNC003
            BANK1   E1E1H     0002H     UNIT         ?PR?CJAP_ENABLE?OSDMENUFUNC003
            BANK1   E1E3H     0002H     UNIT         ?PR?CKOR_ENABLE?OSDMENUFUNC003
            BANK1   E1E5H     0002H     UNIT         ?PR?CRUS_ENABLE?OSDMENUFUNC003
            BANK1   E1E7H     0002H     UNIT         ?PR?CENNTSC_M?OSDMENUFUNC003
            BANK1   E1E9H     0002H     UNIT         ?PR?CENNTSC_BG?OSDMENUFUNC003
            BANK1   E1EBH     0002H     UNIT         ?PR?CENNTSC_DK?OSDMENUFUNC003
            BANK1   E1EDH     0002H     UNIT         ?PR?CENNTSC_I?OSDMENUFUNC003
            BANK1   E1EFH     0002H     UNIT         ?PR?CENPAL_M?OSDMENUFUNC003
            BANK1   E1F1H     0002H     UNIT         ?PR?CENPAL_BG?OSDMENUFUNC003
BL51 BANKED LINKER/LOCATER V5.11                                                      10/05/2015  09:30:23  PAGE 21


            BANK1   E1F3H     0002H     UNIT         ?PR?CENPAL_DK?OSDMENUFUNC003
            BANK1   E1F5H     0002H     UNIT         ?PR?CENPAL_I?OSDMENUFUNC003
            BANK1   E1F7H     0002H     UNIT         ?PR?CENPAL_N?OSDMENUFUNC003
            BANK1   E1F9H     0002H     UNIT         ?PR?CENSECAM_BG?OSDMENUFUNC003
            BANK1   E1FBH     0002H     UNIT         ?PR?CENSECAM_DK?OSDMENUFUNC003
            BANK1   E1FDH     0002H     UNIT         ?PR?CENSECAM_L?OSDMENUFUNC003
            BANK1   E1FFH     0002H     UNIT         ?PR?CENSECAM_LL?OSDMENUFUNC003
            BANK1   E201H     0002H     UNIT         ?PR?CAFCENABLE?OSDMENUFUNC003
            BANK1   E203H     0001H     UNIT         ?PR?_DRAWSYSTEM?OSDMENUFUNC003
            BANK1   E204H     0001H     UNIT         ?PR?_DRAWTUNING?OSDMENUFUNC003
            BANK1   E205H     0001H     UNIT         ?PR?_DRAWSKIP?OSDMENUFUNC003
            BANK1   E206H     0001H     UNIT         ?PR?_DRAWSWAP?OSDMENUFUNC003
            BANK1   E207H     0001H     UNIT         ?PR?_DRAWAFC?OSDMENUFUNC003
            BANK1   E208H     0001H     UNIT         ?PR?_MMAINMENUVALUEADJ?OSDMENUFUNC003
            BANK1   E209H     0001H     UNIT         ?PR?_MAUTOADJUSTVALUEADJ?OSDMENUFUNC003
            BANK1   E20AH     0001H     UNIT         ?PR?_MLANGUAGEVALUEADJ?OSDMENUFUNC003
            BANK1   E20BH     0001H     UNIT         ?PR?_MDOUBLEVALUEADJ?OSDMENUFUNC003
            BANK1   E20CH     0001H     UNIT         ?PR?_CTUNINGADJ?OSDMENUFUNC003
            BANK1   E20DH     0001H     UNIT         ?PR?_CADJCHANNEL?OSDMENUFUNC003
            BANK1   E20EH     0001H     UNIT         ?PR?_CADJUSTSWAP?OSDMENUFUNC003
            BANK1   E20FH     0001H     UNIT         ?PR?CSWAPSETUP?OSDMENUFUNC003
            BANK1   E210H     0001H     UNIT         ?PR?ENTERSYSTEMMENU?OSDMENUFUNC003
            BANK1   E211H     0001H     UNIT         ?PR?_MSYSTEMVALUEADJ?OSDMENUFUNC003
            BANK1   E212H     0001H     UNIT         ?PR?_MSYSTEMMENUADJ?OSDMENUFUNC003
            BANK1   E213H     0001H     UNIT         ?PR?_MAUTOSEARCHVALUEADJ?OSDMENUFUNC003
            BANK1   E214H     0001H     UNIT         ?PR?MAUTOSEARCHENTERSUBMENU?OSDMENUFUNC003
            BANK1   E215H     0001H     UNIT         ?PR?_MMANUALSEARCHVALUEADJ?OSDMENUFUNC003
            BANK1   E216H     0001H     UNIT         ?PR?MMANUALSEARCHENTERSUBMENU?OSDMENUFUNC003
            BANK1   E217H     0001H     UNIT         ?PR?ENTERSKIPMENU?OSDMENUFUNC003
            BANK1   E218H     0001H     UNIT         ?PR?_MSKIPVALUEADJ?OSDMENUFUNC003
            BANK1   E219H     0001H     UNIT         ?PR?MSKIPENTERSUBMENU?OSDMENUFUNC003
            BANK1   E21AH     0001H     UNIT         ?PR?ENTERAFCMENU?OSDMENUFUNC003
            BANK1   E21BH     0001H     UNIT         ?PR?_MAFCVALUEADJ?OSDMENUFUNC003
            BANK1   E21CH     0001H     UNIT         ?PR?_MAFCMENUADJ?OSDMENUFUNC003
            BANK1   E21DH     0001H     UNIT         ?PR?MAFCENTERSUBMENU?OSDMENUFUNC003
            BANK1   E21EH     0001H     UNIT         ?PR?_MRESETVALUEADJ?OSDMENUFUNC003
            BANK1   E21FH     0001H     UNIT         ?PR?_MDISPLAYRATIOVALUEADJ?OSDMENUFUNC003
            BANK1   E220H     0001H     UNIT         ?PR?_MAUTOPOWERDOWNVALUEADJ?OSDMENUFUNC003
            BANK1   E221H     0001H     UNIT         ?PR?MAUTOPOWERDOWNENTERSUBMENU?OSDMENUFUNC003
            BANK1   E222H     0001H     UNIT         ?PR?_MBLUESCREENVALUEADJ?OSDMENUFUNC003
            BANK1   E223H     0001H     UNIT         ?PR?MSCINPUTCHNUMPROC?OSDMENUFUNC003
            BANK1   E224H     0001H     UNIT         ?PR?DBGSHOWOSDSTATE?OSDPROC003



OVERLAY MAP OF MODULE:   .\Output\RTD2662 (TIMER)


SEGMENT                                             BIT_GROUP          DATA_GROUP          IDATA_GROUP         XDATA_GRO
>> UP
  +--> CALLED SEGMENT                            START    LENGTH     START    LENGTH     START    LENGTH     START    LE
>> NGTH
------------------------------------------------------------------------------------------------------------------------
>> ----
?PR?INTPROCTIMER0?INT                            -----    -----      -----    -----      -----    -----      -----    --
>> ---
  +--> ?PR?CTIMERDECREASETIMERCNT?TIMER
BL51 BANKED LINKER/LOCATER V5.11                                                      10/05/2015  09:30:23  PAGE 22



?PR?CTIMERDECREASETIMERCNT?TIMER                 -----    -----      -----    -----      -----    -----      -----    --
>> ---
  +--> ?PR?TIMER

*** NEW ROOT ***************************************************

?PR?INTPROCDDCC0?INT                             -----    -----      -----    -----      -----    -----      FB80H    00
>> 01H

*** NEW ROOT ***************************************************

?C_C51STARTUP                                    -----    -----      -----    -----      -----    -----      -----    --
>> ---
  +--> ?PR?MAIN?MAIN
  +--> ?C_INITSEG

?PR?MAIN?MAIN                                    -----    -----      -----    -----      -----    -----      -----    --
>> ---
  +--> ?PR?CMAINSYSTEMINITIAL?MAIN
  +--> ?PR?CTIMERHANDLER?TIMER
  +--> ?PR?CKEYHANDLER?KEY
  +--> ?PR?CMODEHANDLER?MODE
  +--> ?PR?COSDHANDLER?OSDPROC003

?PR?CMAINSYSTEMINITIAL?MAIN                      -----    -----      -----    -----      -----    -----      -----    --
>> ---
  +--> ?PR?CMCUINITIAL?MCU
  +--> ?PR?CMUTEON?FUNC
  +--> ?PR?CTIMERINITIALTIMEREVENT?TIMER
  +--> ?PR?CPOWERLIGHTPOWEROFF?POWER
  +--> ?PR?CPOWERPANELPOWEROFF?POWER
  +--> ?PR?CEEPROMSTARTUPCHECK?EEPROM
  +--> ?PR?CSCALERINITIAL?SCALER
  +--> ?PR?CKEYINITIAL?KEY
  +--> ?PR?CMAINUSERINITIAL?MAIN
  +--> ?PR?CVIDEOINITIAL?VIDEO
  +--> ?PR?CVIDEOOUTPUTDISABLE?VIDEO
  +--> ?PR?CDDCCIINITIAL?MISC
  +--> ?PR?CIRDAINITIAL?IR_NEC

?PR?CMCUINITIAL?MCU                              -----    -----      -----    -----      -----    -----      -----    --
>> ---
  +--> ?PR?MCU

?PR?CMUTEON?FUNC                                 -----    -----      -----    -----      -----    -----      -----    --
>> ---
  +--> ?PR?_CSETPWM?ADJUST

?PR?_CSETPWM?ADJUST                              -----    -----      -----    -----      -----    -----      FB89H    00
>> 01H

?PR?CTIMERINITIALTIMEREVENT?TIMER                -----    -----      -----    -----      -----    -----      -----    --
>> ---
  +--> ?PR?TIMER

?PR?CPOWERLIGHTPOWEROFF?POWER                    -----    -----      -----    -----      -----    -----      -----    --
BL51 BANKED LINKER/LOCATER V5.11                                                      10/05/2015  09:30:23  PAGE 23


>> ---
  +--> ?PR?CADJUSTBACKLIGHT?ADJUST_CUSTOMER

?PR?CADJUSTBACKLIGHT?ADJUST_CUSTOMER             -----    -----      -----    -----      -----    -----      -----    --
>> ---
  +--> ?PR?_CSETPWM?ADJUST

?PR?CEEPROMSTARTUPCHECK?EEPROM                   -----    -----      -----    -----      -----    -----      FB81H    00
>> 01H
  +--> ?PR?_CTIMERDELAYXMS?TIMER
  +--> ?PR?EEPROM
  +--> ?PR?_CEEPROMREAD?EEPROM
  +--> ?PR?CEEPROMLOADDEFAULT?EEPROM
  +--> ?PR?CEEPROMWRITEVERSION?EEPROM
  +--> ?PR?CEEPROMLOADSYSTEMDATA?EEPROM
  +--> ?PR?CEEPROMLOADOSDUSERDATA?EEPROM
  +--> ?PR?CEEPROMLOADADCDATA?EEPROM
  +--> ?PR?CEEPROMLOADBRICONDATA?EEPROM
  +--> ?PR?CEEPROMLOADCOLORTEMPDATA?EEPROM
  +--> ?PR?CEEPROMLOADTVDATA?EEPROM
  +--> ?PR?CEEPROMLOADHUESATDATA?EEPROM
  +--> ?PR?CEEPROMLOADAUDIODATA?EEPROM

?PR?EEPROM                                       -----    -----      -----    -----      -----    -----      -----    --
>> ---
  +--> ?CO?MODE
  +--> ?PR?_CGETINPUTSOURCENUM?EEPROM
  +--> ?CO?EEPROM

?PR?_CEEPROMREAD?EEPROM                          -----    -----      -----    -----      -----    -----      FB91H    00
>> 07H
  +--> ?PR?EEPROM
  +--> ?PR?_CI2CREAD?I2C

?PR?_CI2CREAD?I2C                                -----    -----      -----    -----      -----    -----      FB98H    00
>> 07H
  +--> ?PR?_CI2CWRITESTART?I2C
  +--> ?PR?_CI2CSTART?I2C
  +--> ?PR?I2C
  +--> ?PR?CI2CSENDACK?I2C
  +--> ?PR?CI2CSENDNOACK?I2C
  +--> ?PR?CI2CSTOP?I2C

?PR?_CI2CWRITESTART?I2C                          -----    -----      -----    -----      -----    -----      FBA5H    00
>> 03H
  +--> ?PR?_CI2CSTART?I2C
  +--> ?PR?_CI2CSENDBYTE?I2C

?PR?_CI2CSTART?I2C                               -----    -----      -----    -----      -----    -----      -----    --
>> ---
  +--> ?PR?DELAY5US?I2C
  +--> ?PR?I2C
  +--> ?PR?_CI2CSENDBYTE?I2C

?PR?I2C                                          -----    -----      -----    -----      -----    -----      -----    --
>> ---
  +--> ?PR?CI2CGETBYTE?I2C
BL51 BANKED LINKER/LOCATER V5.11                                                      10/05/2015  09:30:23  PAGE 24


  +--> ?PR?DELAY5US?I2C

?PR?_CI2CSENDBYTE?I2C                            -----    -----      -----    -----      -----    -----      -----    --
>> ---
  +--> ?PR?I2C
  +--> ?PR?CI2CGETACK?I2C
  +--> ?PR?CI2CSTOP?I2C

?PR?CI2CGETACK?I2C                               -----    -----      -----    -----      -----    -----      -----    --
>> ---
  +--> ?PR?I2C
  +--> ?PR?DELAY5US?I2C

?PR?CI2CSTOP?I2C                                 -----    -----      -----    -----      -----    -----      -----    --
>> ---
  +--> ?PR?DELAY5US?I2C

?PR?CI2CSENDACK?I2C                              -----    -----      -----    -----      -----    -----      -----    --
>> ---
  +--> ?PR?DELAY5US?I2C

?PR?CI2CSENDNOACK?I2C                            -----    -----      -----    -----      -----    -----      -----    --
>> ---
  +--> ?PR?I2C
  +--> ?PR?DELAY5US?I2C

?PR?CEEPROMLOADDEFAULT?EEPROM                    0020H.3  0000H.1    -----    -----      -----    -----      FB89H    00
>> 05H
  +--> ?PR?_CEEPROMLOADUSERFIFOMODEDATA?EEPROM
  +--> ?PR?CEEPROMINITIALMODEDATA?EEPROM
  +--> ?PR?CEEPROMINITIALUSERFIFOMODEDATA?EE...
  +--> ?PR?CEEPROMINITIALCENTERMODEDATA?EEPROM
  +--> ?PR?CEEPROMLOADTVDATADEFAULT?EEPROM
  +--> ?PR?CEEPROMLOADSYSTEMDATADEFAULT?EEPROM
  +--> ?PR?CEEPROMLOADOSDUSERDATADEFAULT?EEPROM
  +--> ?PR?CEEPROMLOADADCDATADEFAULT?EEPROM
  +--> ?PR?CEEPROMLOADYPBPRDATADEFAULT?EEPROM
  +--> ?PR?CEEPROMLOADBRICONDATADEFAULT?EEPROM
  +--> ?PR?CEEPROMLOADCOLORTEMPDATADEFAULT?E...
  +--> ?PR?CEEPROMLOADTVDATA?EEPROM
  +--> ?PR?CEEPROMLOADHUESATDATADEFAULT?EEPROM
  +--> ?PR?CEEPROMLOADAUDIODATADEFAULT?EEPROM
  +--> ?PR?EEPROM
  +--> ?PR?CEEPROMSAVEUSERFIFOMODEDATA?EEPROM
  +--> ?CO?MODE
  +--> ?PR?_CEEPROMSAVEMODEDATA?EEPROM
  +--> ?PR?_CEEPROMLOADMODEDATA?EEPROM
  +--> ?PR?_CEEPROMLOADCENTERMODEDATA?EEPROM

?PR?_CEEPROMLOADUSERFIFOMODEDATA?EEPROM          -----    -----      -----    -----      -----    -----      -----    --
>> ---
  +--> ?PR?EEPROM
  +--> ?PR?_CEEPROMREAD?EEPROM

?PR?CEEPROMINITIALMODEDATA?EEPROM                -----    -----      -----    -----      -----    -----      FB8EH    00
>> 02H
  +--> ?PR?EEPROM
BL51 BANKED LINKER/LOCATER V5.11                                                      10/05/2015  09:30:23  PAGE 25


  +--> ?PR?_CEEPROMSAVEMODEDATA?EEPROM
  +--> ?PR?_CEEPROMWRITE?EEPROM

?PR?_CEEPROMSAVEMODEDATA?EEPROM                  -----    -----      -----    -----      -----    -----      FB91H    00
>> 01H
  +--> ?PR?EEPROM
  +--> ?PR?_CEEPROMWRITE?EEPROM

?PR?_CEEPROMWRITE?EEPROM                         -----    -----      -----    -----      -----    -----      FB96H    00
>> 07H
  +--> ?PR?EEPROM
  +--> ?PR?_CI2CWRITE?I2C

?PR?_CI2CWRITE?I2C                               -----    -----      -----    -----      -----    -----      FB9DH    00
>> 08H
  +--> ?PR?_CI2CWRITESTART?I2C
  +--> ?PR?I2C
  +--> ?PR?_CI2CSENDBYTE?I2C
  +--> ?PR?CI2CSTOP?I2C

?PR?CEEPROMINITIALUSERFIFOMODEDATA?EE...         -----    -----      -----    -----      -----    -----      FB8EH    00
>> 01H
  +--> ?PR?EEPROM
  +--> ?PR?_CEEPROMWRITE?EEPROM

?PR?CEEPROMINITIALCENTERMODEDATA?EEPROM          -----    -----      -----    -----      -----    -----      FB8EH    00
>> 02H
  +--> ?CO?MODE
  +--> ?PR?EEPROM
  +--> ?PR?_CEEPROMSAVECENTERMODEDATA?EEPROM
  +--> ?PR?_CEEPROMWRITE?EEPROM

?PR?_CEEPROMSAVECENTERMODEDATA?EEPROM            -----    -----      -----    -----      -----    -----      FB90H    00
>> 01H
  +--> ?PR?EEPROM
  +--> ?PR?_CEEPROMWRITE?EEPROM

?PR?CEEPROMLOADTVDATADEFAULT?EEPROM              -----    -----      -----    -----      -----    -----      -----    --
>> ---
  +--> ?CO?EEPROM
  +--> ?PR?EEPROM
  +--> ?PR?CEEPROMSAVETVDATA?EEPROM

?PR?CEEPROMSAVETVDATA?EEPROM                     -----    -----      -----    -----      -----    -----      -----    --
>> ---
  +--> ?PR?EEPROM
  +--> ?PR?_CEEPROMWRITE?EEPROM

?PR?CEEPROMLOADSYSTEMDATADEFAULT?EEPROM          -----    -----      -----    -----      -----    -----      -----    --
>> ---
  +--> ?CO?EEPROM
  +--> ?PR?EEPROM
  +--> ?PR?_CEEPROMWRITE?EEPROM

?PR?CEEPROMLOADOSDUSERDATADEFAULT?EEPROM         -----    -----      -----    -----      -----    -----      -----    --
>> ---
  +--> ?CO?EEPROM
BL51 BANKED LINKER/LOCATER V5.11                                                      10/05/2015  09:30:23  PAGE 26


  +--> ?PR?EEPROM
  +--> ?PR?_CEEPROMWRITE?EEPROM

?PR?CEEPROMLOADADCDATADEFAULT?EEPROM             -----    -----      -----    -----      -----    -----      -----    --
>> ---
  +--> ?CO?EEPROM
  +--> ?PR?EEPROM
  +--> ?PR?_CEEPROMWRITE?EEPROM

?PR?CEEPROMLOADYPBPRDATADEFAULT?EEPROM           -----    -----      -----    -----      -----    -----      -----    --
>> ---
  +--> ?CO?EEPROM
  +--> ?PR?EEPROM
  +--> ?PR?_CEEPROMWRITE?EEPROM

?PR?CEEPROMLOADBRICONDATADEFAULT?EEPROM          -----    -----      -----    -----      -----    -----      -----    --
>> ---
  +--> ?CO?EEPROM
  +--> ?PR?EEPROM
  +--> ?PR?_CEEPROMWRITE?EEPROM

?PR?CEEPROMLOADCOLORTEMPDATADEFAULT?E...         -----    -----      -----    -----      -----    -----      -----    --
>> ---
  +--> ?CO?EEPROM
  +--> ?PR?_CEEPROMWRITE?EEPROM
  +--> ?PR?CEEPROMLOADCOLORTEMPDATA?EEPROM

?PR?CEEPROMLOADCOLORTEMPDATA?EEPROM              -----    -----      -----    -----      -----    -----      -----    --
>> ---
  +--> ?PR?EEPROM
  +--> ?PR?_CEEPROMREAD?EEPROM

?PR?CEEPROMLOADTVDATA?EEPROM                     -----    -----      -----    -----      -----    -----      -----    --
>> ---
  +--> ?PR?EEPROM
  +--> ?PR?_CEEPROMREAD?EEPROM

?PR?CEEPROMLOADHUESATDATADEFAULT?EEPROM          -----    -----      -----    -----      -----    -----      -----    --
>> ---
  +--> ?CO?EEPROM
  +--> ?PR?EEPROM
  +--> ?PR?_CEEPROMWRITE?EEPROM

?PR?CEEPROMLOADAUDIODATADEFAULT?EEPROM           -----    -----      -----    -----      -----    -----      -----    --
>> ---
  +--> ?CO?EEPROM
  +--> ?PR?EEPROM
  +--> ?PR?CEEPROMSAVEAUDIODATA?EEPROM

?PR?CEEPROMSAVEAUDIODATA?EEPROM                  -----    -----      -----    -----      -----    -----      -----    --
>> ---
  +--> ?PR?EEPROM
  +--> ?PR?_CEEPROMWRITE?EEPROM

?PR?CEEPROMSAVEUSERFIFOMODEDATA?EEPROM           -----    -----      -----    -----      -----    -----      FB91H    00
>> 05H
  +--> ?PR?EEPROM
BL51 BANKED LINKER/LOCATER V5.11                                                      10/05/2015  09:30:23  PAGE 27


  +--> ?PR?_CEEPROMWRITE?EEPROM

?PR?_CEEPROMLOADMODEDATA?EEPROM                  -----    -----      -----    -----      -----    -----      FB8EH    00
>> 01H
  +--> ?PR?EEPROM
  +--> ?PR?_CEEPROMREAD?EEPROM

?PR?_CEEPROMLOADCENTERMODEDATA?EEPROM            -----    -----      -----    -----      -----    -----      FB8EH    00
>> 01H
  +--> ?PR?EEPROM
  +--> ?PR?_CEEPROMREAD?EEPROM

?PR?CEEPROMWRITEVERSION?EEPROM                   -----    -----      -----    -----      -----    -----      -----    --
>> ---
  +--> ?PR?EEPROM
  +--> ?PR?_CEEPROMWRITE?EEPROM

?PR?CEEPROMLOADSYSTEMDATA?EEPROM                 -----    -----      -----    -----      -----    -----      -----    --
>> ---
  +--> ?PR?EEPROM
  +--> ?PR?_CEEPROMREAD?EEPROM

?PR?CEEPROMLOADOSDUSERDATA?EEPROM                -----    -----      -----    -----      -----    -----      -----    --
>> ---
  +--> ?PR?EEPROM
  +--> ?PR?_CEEPROMREAD?EEPROM

?PR?CEEPROMLOADADCDATA?EEPROM                    -----    -----      -----    -----      -----    -----      -----    --
>> ---
  +--> ?PR?EEPROM
  +--> ?PR?_CEEPROMREAD?EEPROM

?PR?CEEPROMLOADBRICONDATA?EEPROM                 -----    -----      -----    -----      -----    -----      -----    --
>> ---
  +--> ?PR?_CGETINPUTSOURCENUM?EEPROM
  +--> ?PR?_CEEPROMREAD?EEPROM

?PR?CEEPROMLOADHUESATDATA?EEPROM                 -----    -----      -----    -----      -----    -----      -----    --
>> ---
  +--> ?PR?EEPROM
  +--> ?PR?_CEEPROMREAD?EEPROM

?PR?CEEPROMLOADAUDIODATA?EEPROM                  -----    -----      -----    -----      -----    -----      -----    --
>> ---
  +--> ?PR?EEPROM
  +--> ?PR?_CEEPROMREAD?EEPROM

?PR?CSCALERINITIAL?SCALER                        -----    -----      -----    -----      -----    -----      -----    --
>> ---
  +--> ?PR?_CSCALERSETBIT?RTDACCESS
  +--> ?PR?_CTIMERDELAYXMS?TIMER
  +--> ?PR?CIRDAINITIAL?IR_NEC
  +--> ?CO?SCALER
  +--> ?PR?_CSCALERCODEW?RTDACCESS
  +--> ?PR?CSCALERRESET?SCALER
  +--> ?PR?CADJUSTHDCP?ADJUST

BL51 BANKED LINKER/LOCATER V5.11                                                      10/05/2015  09:30:23  PAGE 28


?PR?_CSCALERSETBIT?RTDACCESS                     -----    -----      -----    -----      -----    -----      FBB9H    00
>> 02H
  +--> ?PR?_CSCALERREAD?RTDACCESS
  +--> ?PR?RTDACCESS
  +--> ?PR?_CSCALERWRITE?RTDACCESS

?PR?_CSCALERREAD?RTDACCESS                       0020H.4  0000H.1    -----    -----      -----    -----      FBCFH    00
>> 03H
  +--> ?PR?RTDACCESS
  +--> ?PR?_CSCALERSENDADDR?RTDACCESS

?PR?_CSCALERSENDADDR?RTDACCESS                   0020H.5  0000H.1    -----    -----      -----    -----      -----    --
>> ---
  +--> ?PR?RTDACCESS

?PR?_CSCALERWRITE?RTDACCESS                      0020H.4  0000H.1    -----    -----      -----    -----      FBD0H    00
>> 03H
  +--> ?PR?RTDACCESS
  +--> ?PR?_CSCALERSENDADDR?RTDACCESS

?PR?CIRDAINITIAL?IR_NEC                          -----    -----      -----    -----      -----    -----      -----    --
>> ---
  +--> ?CO?IR_NEC

?PR?_CSCALERCODEW?RTDACCESS                      -----    -----      -----    -----      -----    -----      FB88H    00
>> 03H
  +--> ?PR?RTDACCESS

?PR?CSCALERRESET?SCALER                          -----    -----      -----    -----      -----    -----      -----    --
>> ---
  +--> ?CO?SCALER
  +--> ?PR?_CSCALERCODEW?RTDACCESS
  +--> ?PR?CMISCSETPINSHARE?MISC
  +--> ?PR?_CADJUSTDISABLEWATCHDOG?ADJUST
  +--> ?PR?CMISCCLEARSTATUSREGISTER?MISC
  +--> ?PR?CSCALERINITIALDISPLAYINTERFACE?SC...
  +--> ?PR?CSCALERINITIALDISPLAYOUTPUT?SCALER
  +--> ?PR?CMODESETFREERUN?MODE
  +--> ?PR?CSCALERENABLEDISPLAYOUTPUT?SCALER
  +--> ?PR?_CSCALERPAGESELECT?RTDACCESS
  +--> ?PR?_CSCALERSETBYTE?RTDACCESS
  +--> ?PR?CADJUSTTMDSERRORCORRECTIONON?ADJUST
  +--> ?PR?_CADJUSTGAMMATABLE?ADJUST
  +--> ?PR?SCALER
  +--> ?PR?_CADJUSTDITHER?ADJUST
  +--> ?PR?_CSCALERSETBIT?RTDACCESS
  +--> ?PR?CADJUSTBRIGHTNESS?ADJUST_CUSTOMER
  +--> ?PR?CADJUSTCONTRAST?ADJUST_CUSTOMER
  +--> ?PR?CPOWERDPLLOFF?POWER
  +--> ?PR?CSCALERDISABLEDISPLAYOUTPUT?SCALER

?PR?_CADJUSTDISABLEWATCHDOG?ADJUST               -----    -----      -----    -----      -----    -----      -----    --
>> ---
  +--> ?PR?_CSCALERSETBIT?RTDACCESS
  +--> ?PR?_CSCALERGETBIT?RTDACCESS
  +--> ?PR?_CSCALERSETBYTE?RTDACCESS

BL51 BANKED LINKER/LOCATER V5.11                                                      10/05/2015  09:30:23  PAGE 29


?PR?_CSCALERGETBIT?RTDACCESS                     -----    -----      -----    -----      -----    -----      FBB6H    00
>> 01H
  +--> ?PR?_CSCALERREAD?RTDACCESS

?PR?_CSCALERSETBYTE?RTDACCESS                    -----    -----      -----    -----      -----    -----      FBCFH    00
>> 01H
  +--> ?PR?RTDACCESS
  +--> ?PR?_CSCALERWRITE?RTDACCESS

?PR?CMISCCLEARSTATUSREGISTER?MISC                -----    -----      -----    -----      -----    -----      -----    --
>> ---
  +--> ?PR?_CSCALERSETBYTE?RTDACCESS

?PR?CSCALERINITIALDISPLAYINTERFACE?SC...         -----    -----      -----    -----      -----    -----      FB81H    00
>> 01H
  +--> ?PR?_CSCALERSETBYTE?RTDACCESS
  +--> ?PR?_CSCALERREAD?RTDACCESS
  +--> ?PR?SCALER
  +--> ?CO?SCALER
  +--> ?PR?_CSCALERCODEW?RTDACCESS
  +--> ?PR?CCUSTOMERINITIAL?SCALER

?PR?SCALER                                       -----    -----      -----    -----      -----    -----      -----    --
>> ---
  +--> ?CO?RTDACCESS

?PR?CCUSTOMERINITIAL?SCALER                      -----    -----      -----    -----      -----    -----      -----    --
>> ---
  +--> ?PR?_CSCALERPAGESELECT?RTDACCESS
  +--> ?PR?_CSCALERREAD?RTDACCESS
  +--> ?PR?_CSCALERSETBYTE?RTDACCESS

?PR?_CSCALERPAGESELECT?RTDACCESS                 -----    -----      -----    -----      -----    -----      -----    --
>> ---
  +--> ?PR?_CSCALERSETBYTE?RTDACCESS

?PR?CSCALERINITIALDISPLAYOUTPUT?SCALER           -----    -----      -----    -----      -----    -----      -----    --
>> ---
  +--> ?PR?SCALER
  +--> ?PR?_CSCALERSETBIT?RTDACCESS
  +--> ?PR?_CSCALERSETBYTE?RTDACCESS

?PR?CMODESETFREERUN?MODE                         -----    -----      -----    -----      -----    -----      -----    --
>> ---
  +--> ?PR?CMISCDISABLEDOUBLEBUFFER?MISC
  +--> ?PR?MODE
  +--> ?PR?_CADJUSTDPLL?ADJUST
  +--> ?PR?_CSCALERSETBIT?RTDACCESS
  +--> ?PR?_CSCALERSETBYTE?RTDACCESS
  +--> ?PR?_CSCALERPAGESELECT?RTDACCESS
  +--> ?PR?_CSCALERWRITE?RTDACCESS
  +--> ?PR?_CSCALERSETDATAPORTBYTE?RTDACCESS

?PR?CMISCDISABLEDOUBLEBUFFER?MISC                -----    -----      -----    -----      -----    -----      -----    --
>> ---
  +--> ?PR?_CSCALERSETBIT?RTDACCESS

BL51 BANKED LINKER/LOCATER V5.11                                                      10/05/2015  09:30:23  PAGE 30


?PR?MODE                                         -----    -----      -----    -----      -----    -----      -----    --
>> ---
  +--> ?CO?RTDACCESS
  +--> ?CO?MODE

?PR?_CADJUSTDPLL?ADJUST                          -----    -----      -----    -----      -----    -----      FB88H    00
>> 07H
  +--> ?PR?ADJUST
  +--> ?PR?_CSCALERPAGESELECT?RTDACCESS
  +--> ?PR?_CSCALERWRITE?RTDACCESS
  +--> ?PR?_CSCALERSETBIT?RTDACCESS
  +--> ?PR?_CSCALERGETBIT?RTDACCESS
  +--> ?PR?_CTIMERDELAYXMS?TIMER
  +--> ?PR?_CADJUSTDCLKOFFSET?ADJUST

?PR?ADJUST                                       -----    -----      -----    -----      -----    -----      -----    --
>> ---
  +--> ?CO?RTDACCESS

?PR?_CADJUSTDCLKOFFSET?ADJUST                    -----    -----      -----    -----      -----    -----      FB92H    00
>> 02H
  +--> ?PR?_CSCALERPAGESELECT?RTDACCESS
  +--> ?PR?_CSCALERSETBIT?RTDACCESS
  +--> ?PR?_CSCALERSETBYTE?RTDACCESS

?PR?_CSCALERSETDATAPORTBYTE?RTDACCESS            -----    -----      -----    -----      -----    -----      FB96H    00
>> 02H
  +--> ?PR?_CSCALERSETBYTE?RTDACCESS
  +--> ?PR?RTDACCESS
  +--> ?PR?_CSCALERWRITE?RTDACCESS

?PR?CSCALERENABLEDISPLAYOUTPUT?SCALER            -----    -----      -----    -----      -----    -----      -----    --
>> ---
  +--> ?PR?_CSCALERSETBIT?RTDACCESS

?PR?CADJUSTTMDSERRORCORRECTIONON?ADJUST          -----    -----      -----    -----      -----    -----      -----    --
>> ---
  +--> ?PR?_CSCALERPAGESELECT?RTDACCESS
  +--> ?PR?_CSCALERSETBIT?RTDACCESS

?PR?_CADJUSTGAMMATABLE?ADJUST                    -----    -----      -----    -----      -----    -----      -----    --
>> ---
  +--> ?PR?ADJUST
  +--> ?CO?MAIN
  +--> ?PR?_CADJUSTGAMMA?ADJUST
  +--> ?PR?_CSCALERSETBIT?RTDACCESS

?PR?_CADJUSTGAMMA?ADJUST                         -----    -----      -----    -----      -----    -----      FB81H    00
>> 0EH
  +--> ?PR?ADJUST
  +--> ?PR?_CSCALERWRITE?RTDACCESS
  +--> ?PR?_CSCALERSETBYTE?RTDACCESS
  +--> ?PR?CSCALERGETVLD?RTDACCESS

?PR?CSCALERGETVLD?RTDACCESS                      -----    -----      -----    -----      -----    -----      FB8FH    00
>> 01H
  +--> ?PR?CSCALERGETBITVLD?RTDACCESS
BL51 BANKED LINKER/LOCATER V5.11                                                      10/05/2015  09:30:23  PAGE 31



?PR?_CADJUSTDITHER?ADJUST                        -----    -----      -----    -----      -----    -----      FB81H    00
>> 06H
  +--> ?PR?ADJUST
  +--> ?PR?_CSCALERSETBIT?RTDACCESS
  +--> ?PR?_CSCALERSETBYTE?RTDACCESS
  +--> ?PR?_CSCALERWRITE?RTDACCESS

?PR?CADJUSTBRIGHTNESS?ADJUST_CUSTOMER            -----    -----      -----    -----      -----    -----      -----    --
>> ---
  +--> ?PR?CADJUSTSETBRIGHTNESS?ADJUST
  +--> ?PR?CADJUSTBACKLIGHT?ADJUST_CUSTOMER

?PR?CADJUSTSETBRIGHTNESS?ADJUST                  -----    -----      -----    -----      -----    -----      -----    --
>> ---
  +--> ?PR?_CSCALERSETBYTE?RTDACCESS
  +--> ?PR?ADJUST
  +--> ?PR?_CSCALERWRITE?RTDACCESS

?PR?CADJUSTCONTRAST?ADJUST_CUSTOMER              -----    -----      -----    -----      -----    -----      -----    --
>> ---
  +--> ?PR?CADJUSTSETCONTRAST?ADJUST

?PR?CADJUSTSETCONTRAST?ADJUST                    -----    -----      -----    -----      -----    -----      -----    --
>> ---
  +--> ?PR?_CSCALERSETBYTE?RTDACCESS
  +--> ?PR?ADJUST
  +--> ?PR?_CSCALERWRITE?RTDACCESS

?PR?CPOWERDPLLOFF?POWER                          -----    -----      -----    -----      -----    -----      -----    --
>> ---
  +--> ?PR?_CSCALERPAGESELECT?RTDACCESS
  +--> ?PR?_CSCALERSETBIT?RTDACCESS

?PR?CSCALERDISABLEDISPLAYOUTPUT?SCALER           -----    -----      -----    -----      -----    -----      -----    --
>> ---
  +--> ?PR?_CSCALERSETBIT?RTDACCESS

?PR?CADJUSTHDCP?ADJUST                           -----    -----      -----    -----      -----    -----      -----    --
>> ---
  +--> ?PR?_CSCALERPAGESELECT?RTDACCESS
  +--> ?PR?_CSCALERSETBYTE?RTDACCESS
  +--> ?CO?SCALER
  +--> ?PR?_CSCALERWRITE?RTDACCESS
  +--> ?PR?_CSCALERCODEW?RTDACCESS

?PR?CMAINUSERINITIAL?MAIN                        -----    -----      -----    -----      -----    -----      -----    --
>> ---
  +--> ?PR?CHECKLANGUAGE?GMIOSDFUNC

?PR?CHECKLANGUAGE?GMIOSDFUNC                     -----    -----      -----    -----      -----    -----      -----    --
>> ---
  +--> ?PR?GMIOSDFUNC
  +--> ?PR?FIRSTLANGUAGE?GMIOSDFUNC

?PR?GMIOSDFUNC                                   -----    -----      -----    -----      -----    -----      -----    --
>> ---
BL51 BANKED LINKER/LOCATER V5.11                                                      10/05/2015  09:30:23  PAGE 32


  +--> ?CO?RTDACCESS
  +--> ?CO?OSDPROC003

?PR?FIRSTLANGUAGE?GMIOSDFUNC                     -----    -----      -----    -----      -----    -----      -----    --
>> ---
  +--> ?PR?GMIOSDFUNC

?PR?CVIDEOINITIAL?VIDEO                          -----    -----      -----    -----      -----    -----      -----    --
>> ---
  +--> ?PR?_CSCALERSETBIT?RTDACCESS
  +--> ?CO?VIDEO
  +--> ?PR?_CSCALERCODEW?RTDACCESS
  +--> ?PR?GMI_CINITIALVDC?RTD2662
  +--> ?PR?_CSCALERPAGESELECT?RTDACCESS
  +--> ?PR?CINITINPUTSOURCE?FUNC
  +--> ?PR?CVIDEOSOFTRESET?VIDEO

?PR?GMI_CINITIALVDC?RTD2662                      -----    -----      -----    -----      -----    -----      -----    --
>> ---
  +--> ?PR?CGMIFUNC?GMIBASE
  +--> ?PR?_CSCALERPAGESELECT?RTDACCESS
  +--> ?PR?_CSCALERSETBYTE?RTDACCESS
  +--> ?PR?_CTIMERDELAYXMS?TIMER
  +--> ?PR?_CSCALERSETBIT?RTDACCESS
  +--> ?CO?RTD2662
  +--> ?PR?_CSCALERCODEW?RTDACCESS

?PR?CGMIFUNC?GMIBASE                             -----    -----      0023H    0003H      -----    -----      FB8BH    00
>> 02H

?PR?CINITINPUTSOURCE?FUNC                        -----    -----      -----    -----      -----    -----      -----    --
>> ---
  +--> ?PR?_CINITSOUNDCHANNEL?FUNC

?PR?_CINITSOUNDCHANNEL?FUNC                      -----    -----      -----    -----      -----    -----      FB81H    00
>> 01H
  +--> ?PR?CMUTEON?FUNC

?PR?CVIDEOSOFTRESET?VIDEO                        -----    -----      -----    -----      -----    -----      -----    --
>> ---
  +--> ?PR?_CSCALERPAGESELECT?RTDACCESS
  +--> ?PR?_CSCALERSETBYTE?RTDACCESS
  +--> ?PR?_CTIMERDELAYXMS?TIMER

?PR?CVIDEOOUTPUTDISABLE?VIDEO                    -----    -----      -----    -----      -----    -----      -----    --
>> ---
  +--> ?PR?_CSCALERPAGESELECT?RTDACCESS
  +--> ?PR?_CSCALERSETBIT?RTDACCESS

?PR?CDDCCIINITIAL?MISC                           -----    -----      -----    -----      -----    -----      -----    --
>> ---
  +--> ?CO?RTDACCESS

?PR?CTIMERHANDLER?TIMER                          -----    -----      -----    -----      -----    -----      FB81H    00
>> 01H
  +--> ?PR?TIMER

BL51 BANKED LINKER/LOCATER V5.11                                                      10/05/2015  09:30:23  PAGE 33


?PR?CKEYHANDLER?KEY                              -----    -----      -----    -----      -----    -----      -----    --
>> ---
  +--> ?PR?CKEYSCANREADY?KEY
  +--> ?PR?CKEYSCAN?KEY_PCB2660_003_5KEY
  +--> ?PR?CKEYPOWERKEYPROC?KEY
  +--> ?PR?CKEYMESSAGEPROC?KEY_PCB2660_003_5KEY
  +--> ?PR?CIRKEYSCAN?IR_NEC
  +--> ?PR?GETVIRTUALKEY?MISC

?PR?CKEYSCANREADY?KEY                            -----    -----      -----    -----      -----    -----      -----    --
>> ---
  +--> ?PR?CKEYSCANREADYTIMEREVENT?KEY
  +--> ?PR?_CTIMERREACTIVETIMEREVENT?TIMER

?PR?_CTIMERREACTIVETIMEREVENT?TIMER              -----    -----      -----    -----      -----    -----      FB88H    00
>> 05H
  +--> ?PR?TIMER
  +--> ?PR?_CTIMERACTIVETIMEREVENT?TIMER

?PR?_CTIMERACTIVETIMEREVENT?TIMER                -----    -----      -----    -----      -----    -----      FB8DH    00
>> 05H
  +--> ?PR?TIMER

?PR?CKEYSCAN?KEY_PCB2660_003_5KEY                -----    -----      -----    -----      -----    -----      FB81H    00
>> 01H
  +--> ?PR?_CGETADCVALUE?KEY
  +--> ?PR?KEY_PCB2660_003_5KEY
  +--> ?PR?CKEYINITIAL?KEY

?PR?_CGETADCVALUE?KEY                            -----    -----      -----    -----      -----    -----      FB82H    00
>> 03H
  +--> ?PR?KEY

?PR?CKEYPOWERKEYPROC?KEY                         -----    -----      -----    -----      -----    -----      -----    --
>> ---
  +--> ?PR?_CTIMERDELAYXMS?TIMER
  +--> ?PR?CKEYSCAN?KEY_PCB2660_003_5KEY
  +--> ?PR?CKEYPOWERKEYMIX?KEY

?PR?CKEYMESSAGEPROC?KEY_PCB2660_003_5KEY         -----    -----      -----    -----      -----    -----      -----    --
>> ---
  +--> ?PR?_CKEYMESSAGECONVERT?KEY
  +--> ?PR?CKEYREPEATENABLETIMEREVENT?KEY
  +--> ?PR?_CTIMERCANCELTIMEREVENT?TIMER

?PR?_CKEYMESSAGECONVERT?KEY                      -----    -----      -----    -----      -----    -----      -----    --
>> ---
  +--> ?PR?CKEYREPEATENABLETIMEREVENT?KEY
  +--> ?PR?_CTIMERACTIVETIMEREVENT?TIMER

?PR?_CTIMERCANCELTIMEREVENT?TIMER                -----    -----      -----    -----      -----    -----      FB88H    00
>> 03H
  +--> ?PR?TIMER

?PR?CIRKEYSCAN?IR_NEC                            -----    -----      -----    -----      -----    -----      FB81H    00
>> 01H
  +--> ?PR?CIRDAREADDATA?IR_NEC
BL51 BANKED LINKER/LOCATER V5.11                                                      10/05/2015  09:30:23  PAGE 34


  +--> ?CO?IR_NEC

?PR?CMODEHANDLER?MODE                            -----    -----      -----    -----      -----    -----      -----    --
>> ---
  +--> ?PR?CPOWERHANDLER?POWER
  +--> ?PR?BSOURCEVIDEO?SOURCE
  +--> ?PR?CVIDEOINITIAL?VIDEO
  +--> ?PR?COSDDISPFIRSTTIMELOADFONT?OSDPROC003
  +--> ?PR?MODE
  +--> ?PR?CSHOWNOTE?OSDPROC003
  +--> ?PR?CPOWERPANELON?POWER
  +--> ?PR?CPOWERLIGHTPOWERON?POWER
  +--> ?PR?CSYNCPROCESS?SYNC
  +--> ?PR?CVIDEOPROCESS?VIDEO

?PR?CPOWERHANDLER?POWER                          -----    -----      -----    -----      -----    -----      -----    --
>> ---
  +--> ?PR?CPOWERCONTROL?POWER

?PR?CPOWERCONTROL?POWER                          -----    -----      -----    -----      -----    -----      -----    --
>> ---
  +--> ?PR?CPOWERDOWNCUSTOMERCONTROL?POWER
  +--> ?PR?CPOWERLEDOFF?POWER
  +--> ?PR?CPOWERLEDON?POWER
  +--> ?PR?CSCALERRESET?SCALER
  +--> ?PR?CPOWERUPCUSTOMERCONTROL?POWER
  +--> ?PR?CMODERESETMODE?MODE
  +--> ?PR?CEEPROMSAVESYSTEMDATA?EEPROM
  +--> ?PR?CVIDEOINITIAL?VIDEO
  +--> ?PR?_CTIMERDELAYXMS?TIMER
  +--> ?PR?CVIDEOOUTPUTDISABLE?VIDEO

?PR?CPOWERDOWNCUSTOMERCONTROL?POWER              -----    -----      -----    -----      -----    -----      -----    --
>> ---
  +--> ?PR?CMUTEON?FUNC
  +--> ?PR?CPOWERPANELOFF?POWER
  +--> ?PR?CPOWERADCAPLLOFF?POWER
  +--> ?PR?CPOWERLVDSOFF?POWER
  +--> ?PR?CPOWERDPLLOFF?POWER
  +--> ?PR?_CSCALERSETBYTE?RTDACCESS
  +--> ?PR?CEEPROMSAVESYSTEMDATA?EEPROM
  +--> ?PR?CMODENOSIGNALEVENT?MODE
  +--> ?PR?_CTIMERCANCELTIMEREVENT?TIMER
  +--> ?PR?CMODENOCABLEEVENT?MODE
  +--> ?PR?CMODENOSUPPORTEVENT?MODE
  +--> ?PR?CMODEPOWERSAVINGEVENT?MODE

?PR?CPOWERPANELOFF?POWER                         -----    -----      -----    -----      -----    -----      -----    --
>> ---
  +--> ?PR?CPOWERLIGHTPOWEROFF?POWER
  +--> ?PR?_CTIMERDELAYXMS?TIMER
  +--> ?PR?CSCALERDISABLEDISPLAYOUTPUT?SCALER
  +--> ?PR?CPOWERDISPLAYPORTOFF?POWER
  +--> ?PR?CPOWERPANELPOWEROFF?POWER

?PR?CPOWERDISPLAYPORTOFF?POWER                   -----    -----      -----    -----      -----    -----      -----    --
>> ---
BL51 BANKED LINKER/LOCATER V5.11                                                      10/05/2015  09:30:23  PAGE 35


  +--> ?PR?POWER
  +--> ?PR?CPOWERLVDSOFF?POWER
  +--> ?PR?CPOWERRSDSOFF?POWER

?PR?POWER                                        -----    -----      -----    -----      -----    -----      -----    --
>> ---
  +--> ?CO?RTDACCESS

?PR?CPOWERLVDSOFF?POWER                          -----    -----      -----    -----      -----    -----      -----    --
>> ---
  +--> ?PR?_CSCALERSETBYTE?RTDACCESS

?PR?CPOWERRSDSOFF?POWER                          -----    -----      -----    -----      -----    -----      -----    --
>> ---
  +--> ?PR?CPOWERLVDSOFF?POWER
  +--> ?PR?_CSCALERSETBIT?RTDACCESS
  +--> ?PR?_CTIMERDELAYXMS?TIMER
  +--> ?PR?_CSCALERSETDATAPORTBYTE?RTDACCESS

?PR?CPOWERADCAPLLOFF?POWER                       -----    -----      -----    -----      -----    -----      -----    --
>> ---
  +--> ?PR?_CSCALERPAGESELECT?RTDACCESS
  +--> ?PR?_CSCALERSETBIT?RTDACCESS

?PR?CEEPROMSAVESYSTEMDATA?EEPROM                 -----    -----      -----    -----      -----    -----      -----    --
>> ---
  +--> ?PR?EEPROM
  +--> ?PR?_CEEPROMWRITE?EEPROM

?PR?CMODENOSIGNALEVENT?MODE                      -----    -----      -----    -----      -----    -----      -----    --
>> ---
  +--> ?PR?CPOWERPANELON?POWER
  +--> ?PR?CPOWERLIGHTPOWERON?POWER
  +--> ?PR?MODE

?PR?CPOWERPANELON?POWER                          -----    -----      -----    -----      -----    -----      -----    --
>> ---
  +--> ?PR?CPOWERPANELPOWERON?POWER
  +--> ?PR?_CTIMERDELAYXMS?TIMER
  +--> ?PR?CPOWERDISPLAYPORTON?POWER
  +--> ?PR?CSCALERENABLEDISPLAYOUTPUT?SCALER
  +--> ?PR?CMISCCLEARSTATUSREGISTER?MISC

?PR?CPOWERDISPLAYPORTON?POWER                    -----    -----      -----    -----      -----    -----      -----    --
>> ---
  +--> ?PR?POWER
  +--> ?PR?_CSCALERSETBYTE?RTDACCESS
  +--> ?PR?CPOWERLVDSON?POWER
  +--> ?PR?CPOWERRSDSON?POWER

?PR?CPOWERLVDSON?POWER                           -----    -----      -----    -----      -----    -----      -----    --
>> ---
  +--> ?PR?_CSCALERSETBYTE?RTDACCESS

?PR?CPOWERRSDSON?POWER                           -----    -----      -----    -----      -----    -----      -----    --
>> ---
  +--> ?PR?CPOWERLVDSON?POWER
BL51 BANKED LINKER/LOCATER V5.11                                                      10/05/2015  09:30:23  PAGE 36


  +--> ?PR?_CSCALERSETBYTE?RTDACCESS
  +--> ?PR?_CTIMERDELAYXMS?TIMER

?PR?CPOWERLIGHTPOWERON?POWER                     -----    -----      -----    -----      -----    -----      -----    --
>> ---
  +--> ?PR?CADJUSTBACKLIGHT?ADJUST_CUSTOMER

?PR?CMODENOCABLEEVENT?MODE                       -----    -----      -----    -----      -----    -----      -----    --
>> ---
  +--> ?PR?CPOWERPANELON?POWER
  +--> ?PR?CPOWERLIGHTPOWERON?POWER
  +--> ?PR?MODE

?PR?CMODENOSUPPORTEVENT?MODE                     -----    -----      -----    -----      -----    -----      -----    --
>> ---
  +--> ?PR?CPOWERPANELON?POWER
  +--> ?PR?CPOWERLIGHTPOWERON?POWER
  +--> ?PR?MODE

?PR?CMODEPOWERSAVINGEVENT?MODE                   -----    -----      -----    -----      -----    -----      -----    --
>> ---
  +--> ?PR?CPOWERPANELOFF?POWER
  +--> ?PR?_CSCALERSETBIT?RTDACCESS
  +--> ?PR?CPOWERADCAPLLOFF?POWER
  +--> ?PR?CPOWERLVDSOFF?POWER
  +--> ?PR?CPOWERDPLLOFF?POWER
  +--> ?PR?CPOWERLEDSLEEP?POWER

?PR?CPOWERLEDSLEEP?POWER                         -----    -----      -----    -----      -----    -----      -----    --
>> ---
  +--> ?PR?CPOWERLEDORANGE?POWER

?PR?CPOWERLEDOFF?POWER                           -----    -----      -----    -----      -----    -----      -----    --
>> ---
  +--> ?PR?CPOWERLEDRED?POWER

?PR?CPOWERLEDON?POWER                            -----    -----      -----    -----      -----    -----      -----    --
>> ---
  +--> ?PR?CPOWERLEDGREEN?POWER

?PR?CPOWERUPCUSTOMERCONTROL?POWER                -----    -----      -----    -----      -----    -----      -----    --
>> ---
  +--> ?PR?CMUTEON?FUNC
  +--> ?PR?CPOWERPANELON?POWER
  +--> ?PR?CPOWERADCAPLLON?POWER
  +--> ?PR?CPOWERLVDSON?POWER
  +--> ?PR?CPOWERDPLLOFF?POWER
  +--> ?PR?CPOWERTMDSON?POWER
  +--> ?PR?CADJUSTBACKLIGHT?ADJUST_CUSTOMER

?PR?CPOWERADCAPLLON?POWER                        -----    -----      -----    -----      -----    -----      -----    --
>> ---
  +--> ?PR?_CSCALERPAGESELECT?RTDACCESS
  +--> ?PR?_CSCALERSETBIT?RTDACCESS

?PR?CPOWERTMDSON?POWER                           -----    -----      -----    -----      -----    -----      -----    --
>> ---
BL51 BANKED LINKER/LOCATER V5.11                                                      10/05/2015  09:30:23  PAGE 37


  +--> ?PR?_CSCALERSETBIT?RTDACCESS

?PR?CMODERESETMODE?MODE                          -----    -----      -----    -----      -----    -----      -----    --
>> ---
  +--> ?PR?_CADJUSTBACKGROUNDCOLOR?ADJUST
  +--> ?PR?_CSCALERSETBIT?RTDACCESS
  +--> ?PR?CHDMIFORMATDETECT?HDMI
  +--> ?PR?_CSCALERPAGESELECT?RTDACCESS
  +--> ?PR?_CADJUSTDISABLEHDMIWATCHDOG?ADJUST
  +--> ?PR?_CSCALERSETDATAPORTBIT?RTDACCESS
  +--> ?PR?_CSCALERSETDATAPORTBYTE?RTDACCESS
  +--> ?PR?CPOWERPANELON?POWER
  +--> ?PR?MODE
  +--> ?PR?CPOWERLIGHTPOWEROFF?POWER
  +--> ?PR?_CADJUSTDISABLEWATCHDOG?ADJUST
  +--> ?PR?_CSCALERSETBYTE?RTDACCESS
  +--> ?CO?SCALER
  +--> ?PR?_CSCALERCODEW?RTDACCESS
  +--> ?PR?BSOURCEVIDEO?SOURCE
  +--> ?PR?CMODESETFREERUN?MODE
  +--> ?PR?CSCALERENABLEDISPLAYOUTPUT?SCALER
  +--> ?PR?CMODEAUTOMEASUREOFF?MODE
  +--> ?PR?CADJUSTTMDSERRORCORRECTIONON?ADJUST
  +--> ?PR?CMISCCLEARSTATUSREGISTER?MISC
  +--> ?PR?CMODENOSIGNALEVENT?MODE
  +--> ?PR?_CTIMERCANCELTIMEREVENT?TIMER
  +--> ?PR?CMODENOCABLEEVENT?MODE
  +--> ?PR?CMODENOSUPPORTEVENT?MODE
  +--> ?PR?CMODEPOWERSAVINGEVENT?MODE
  +--> ?PR?COSDDISPOSDTIMEREVENT?OSDPROC003
  +--> ?PR?CIRDAINITIAL?IR_NEC

?PR?_CADJUSTBACKGROUNDCOLOR?ADJUST               -----    -----      -----    -----      -----    -----      FB88H    00
>> 03H
  +--> ?PR?_CSCALERSETBIT?RTDACCESS
  +--> ?PR?_CSCALERSETBYTE?RTDACCESS

?PR?CHDMIFORMATDETECT?HDMI                       -----    -----      -----    -----      -----    -----      -----    --
>> ---
  +--> ?PR?_CSCALERPAGESELECT?RTDACCESS
  +--> ?PR?HDMI
  +--> ?PR?_CSCALERREAD?RTDACCESS

?PR?_CADJUSTDISABLEHDMIWATCHDOG?ADJUST           -----    -----      -----    -----      -----    -----      FB96H    00
>> 01H
  +--> ?PR?_CSCALERPAGESELECT?RTDACCESS
  +--> ?PR?_CSCALERSETDATAPORTBIT?RTDACCESS

?PR?_CSCALERSETDATAPORTBIT?RTDACCESS             -----    -----      -----    -----      -----    -----      FB97H    00
>> 05H
  +--> ?PR?RTDACCESS
  +--> ?PR?_CSCALERREAD?RTDACCESS
  +--> ?PR?_CSCALERWRITE?RTDACCESS
  +--> ?PR?_CSCALERSETBYTE?RTDACCESS

?PR?CMODEAUTOMEASUREOFF?MODE                     -----    -----      -----    -----      -----    -----      -----    --
>> ---
BL51 BANKED LINKER/LOCATER V5.11                                                      10/05/2015  09:30:23  PAGE 38


  +--> ?PR?_CSCALERSETBIT?RTDACCESS

?PR?COSDDISPOSDTIMEREVENT?OSDPROC003             -----    -----      -----    -----      -----    -----      -----    --
>> ---
  +--> ?PR?COSDFXDISABLEOSD?GMIOSDFUNC

?PR?COSDFXDISABLEOSD?GMIOSDFUNC                  -----    -----      -----    -----      -----    -----      -----    --
>> ---
  +--> ?PR?_CTIMERWAITFOREVENT?TIMER
  +--> ?PR?_CSCALERSETBIT?RTDACCESS

?PR?_CTIMERWAITFOREVENT?TIMER                    -----    -----      -----    -----      -----    -----      FBACH    00
>> 03H
  +--> ?PR?_CSCALERSETBYTE?RTDACCESS
  +--> ?PR?_CSCALERREAD?RTDACCESS

?PR?COSDDISPFIRSTTIMELOADFONT?OSDPROC003         -----    -----      -----    -----      -----    -----      -----    --
>> ---
  +--> ?PR?COSDFXDISABLEOSD?GMIOSDFUNC
  +--> ?CO?OSDRES003
  +--> ?PR?_COSDCOLORPALETTE?GMIOSDFUNC
  +--> ?PR?_SETOSDMAP?GMIOSDFUNC
  +--> ?PR?OSDPROC003
  +--> ?PR?_COSDLOAD1BITFONT?GMIOSDFUNC
  +--> ?PR?_CSCALERLOADHARDWAREVLCFONT?RTDAC...
  +--> ?PR?LOADLANGUAGEFONT?OSDPROC003

?PR?_COSDCOLORPALETTE?GMIOSDFUNC                 -----    -----      -----    -----      -----    -----      FB81H    00
>> 03H
  +--> ?PR?GMIOSDFUNC
  +--> ?PR?_CSCALERSETBYTE?RTDACCESS
  +--> ?PR?_CSCALERWRITE?RTDACCESS

?PR?_SETOSDMAP?GMIOSDFUNC                        -----    -----      -----    -----      -----    -----      -----    --
>> ---
  +--> ?PR?GMIOSDFUNC
  +--> ?PR?SETOSDRAMADDRESS?GMIOSDFUNC
  +--> ?PR?SETROWCMDS?GMIOSDFUNC

?PR?SETOSDRAMADDRESS?GMIOSDFUNC                  -----    -----      -----    -----      -----    -----      FB88H    00
>> 04H
  +--> ?PR?GMIOSDFUNC
  +--> ?PR?_CSCALERWRITE?RTDACCESS

?PR?SETROWCMDS?GMIOSDFUNC                        -----    -----      0023H    0002H      -----    -----      -----    --
>> ---
  +--> ?PR?GMIOSDFUNC
  +--> ?PR?_DIRECTWOSDRAM?GMIOSDFUNC
  +--> ?PR?_OUTPUTCHAR?GMIOSDFUNC

?PR?_DIRECTWOSDRAM?GMIOSDFUNC                    -----    -----      -----    -----      -----    -----      FB88H    00
>> 06H
  +--> ?PR?GMIOSDFUNC
  +--> ?PR?_CSCALERWRITE?RTDACCESS
  +--> ?PR?_CSCALERSENDADDR?RTDACCESS

?PR?_OUTPUTCHAR?GMIOSDFUNC                       -----    -----      -----    -----      -----    -----      FB96H    00
BL51 BANKED LINKER/LOCATER V5.11                                                      10/05/2015  09:30:23  PAGE 39


>> 01H
  +--> ?PR?_CSCALERSENDADDR?RTDACCESS

?PR?OSDPROC003                                   -----    -----      -----    -----      -----    -----      -----    --
>> ---
  +--> ?CO?OSDTABLE003
  +--> ?CO?OSDRES003

?CO?OSDTABLE003                                  -----    -----      -----    -----      -----    -----      -----    --
>> ---
  +--> ?CO?KEY
  +--> ?PR?MMENUNONEPROC?OSDMENUFUNC003
  +--> ?PR?CENABLE?OSDMENUFUNC003
  +--> ?PR?MMAINMENUPROC?OSDMENUFUNC003
  +--> ?PR?CVGAENABLE?OSDMENUFUNC003
  +--> ?PR?CMITVENABLE?OSDMENUFUNC003
  +--> ?PR?MCOLORPROC?OSDMENUFUNC003
  +--> ?PR?CVIDEONTSCENABLE?OSDMENUFUNC003
  +--> ?PR?CVIDEOENABLE?OSDMENUFUNC003
  +--> ?PR?MBRIGHTNESSPROC?OSDMENUFUNC003
  +--> ?PR?MCONTRASTPROC?OSDMENUFUNC003
  +--> ?PR?MHUEPROC?OSDMENUFUNC003
  +--> ?PR?MSATURATIONPROC?OSDMENUFUNC003
  +--> ?PR?MCOLORTEMPPROC?OSDMENUFUNC003
  +--> ?PR?MCOLORUSERPROC?OSDMENUFUNC003
  +--> ?PR?MRPROC?OSDMENUFUNC003
  +--> ?PR?MGPROC?OSDMENUFUNC003
  +--> ?PR?MBPROC?OSDMENUFUNC003
  +--> ?PR?MADJUSTPROC?OSDMENUFUNC003
  +--> ?PR?MAUTOADJUSTPROC?OSDMENUFUNC003
  +--> ?PR?MADJUSTHPOSITIONPROC?OSDMENUFUNC003
  +--> ?PR?MADJUSTVPOSITIONPROC?OSDMENUFUNC003
  +--> ?PR?MADJUSTPHASEPROC?OSDMENUFUNC003
  +--> ?PR?MADJUSTCLOCKPROC?OSDMENUFUNC003
  +--> ?PR?MOSDPROC?OSDMENUFUNC003
  +--> ?PR?COSDDOUBLEEN?OSDMENUFUNC003
  +--> ?PR?MLANGUAGEPROC?OSDMENUFUNC003
  +--> ?PR?CENGENABLE?OSDMENUFUNC003
  +--> ?PR?CCHI_S_ENABLE?OSDMENUFUNC003
  +--> ?PR?CFRA_ENABLE?OSDMENUFUNC003
  +--> ?PR?CITA_ENABLE?OSDMENUFUNC003
  +--> ?PR?CDEU_ENABLE?OSDMENUFUNC003
  +--> ?PR?CESP_ENABLE?OSDMENUFUNC003
  +--> ?PR?CCHI_T_ENABLE?OSDMENUFUNC003
  +--> ?PR?CJAP_ENABLE?OSDMENUFUNC003
  +--> ?PR?CKOR_ENABLE?OSDMENUFUNC003
  +--> ?PR?CRUS_ENABLE?OSDMENUFUNC003
  +--> ?PR?MHPOSITIONPROC?OSDMENUFUNC003
  +--> ?PR?MVPOSITIONPROC?OSDMENUFUNC003
  +--> ?PR?MTIMERPROC?OSDMENUFUNC003
  +--> ?PR?MDOUBLEPROC?OSDMENUFUNC003
  +--> ?PR?MTRANSPARENTPROC?OSDMENUFUNC003
  +--> ?PR?MTVPROC?OSDMENUFUNC003
  +--> ?PR?CAFCENABLE?OSDMENUFUNC003
  +--> ?PR?MCHANNELPROC?OSDMENUFUNC003
  +--> ?PR?MSYSTEMPROC?OSDMENUFUNC003
  +--> ?PR?CENNTSC_M?OSDMENUFUNC003
BL51 BANKED LINKER/LOCATER V5.11                                                      10/05/2015  09:30:23  PAGE 40


  +--> ?PR?CENNTSC_BG?OSDMENUFUNC003
  +--> ?PR?CENNTSC_DK?OSDMENUFUNC003
  +--> ?PR?CENNTSC_I?OSDMENUFUNC003
  +--> ?PR?CENPAL_M?OSDMENUFUNC003
  +--> ?PR?CENPAL_BG?OSDMENUFUNC003
  +--> ?PR?CENPAL_I?OSDMENUFUNC003
  +--> ?PR?CENPAL_DK?OSDMENUFUNC003
  +--> ?PR?CENPAL_N?OSDMENUFUNC003
  +--> ?PR?CENSECAM_BG?OSDMENUFUNC003
  +--> ?PR?CENSECAM_DK?OSDMENUFUNC003
  +--> ?PR?CENSECAM_L?OSDMENUFUNC003
  +--> ?PR?CENSECAM_LL?OSDMENUFUNC003
  +--> ?PR?MAUTOSEARCHPROC?OSDMENUFUNC003
  +--> ?PR?MMANUALSEARCHPROC?OSDMENUFUNC003
  +--> ?PR?MTUNINGPROC?OSDMENUFUNC003
  +--> ?PR?MSKIPPROC?OSDMENUFUNC003
  +--> ?PR?MAFCPROC?OSDMENUFUNC003
  +--> ?PR?MFUNCTIONPROC?OSDMENUFUNC003
  +--> ?PR?MDISPLAYRATIOENABLE?OSDMENUFUNC003
  +--> ?PR?MRESETPROC?OSDMENUFUNC003
  +--> ?PR?MDISPLAYRATIOPROC?OSDMENUFUNC003
  +--> ?PR?MAUTOPOWERDOWNPROC?OSDMENUFUNC003
  +--> ?PR?MBLUESCREENPROC?OSDMENUFUNC003
  +--> ?PR?MSHARPNESSPROC?OSDMENUFUNC003
  +--> ?PR?MSOUNDPROC?OSDMENUFUNC003
  +--> ?PR?MSOUNDENABLE?OSDMENUFUNC003
  +--> ?PR?MNJW1144ENABLE?OSDMENUFUNC003
  +--> ?PR?MVOLUMEPROC?OSDMENUFUNC003
  +--> ?PR?MBALANCEPROC?OSDMENUFUNC003
  +--> ?PR?MBASSPROC?OSDMENUFUNC003
  +--> ?PR?MTREBLEPROC?OSDMENUFUNC003
  +--> ?PR?MSOURCEPROC?OSDMENUFUNC003
  +--> ?PR?CMIVGAENABLE?OSDMENUFUNC003
  +--> ?PR?CMIDVIENABLE?OSDMENUFUNC003
  +--> ?PR?CMIHDMIENABLE?OSDMENUFUNC003
  +--> ?PR?CMIYPBPRENABLE?OSDMENUFUNC003
  +--> ?PR?CMIAVENABLE?OSDMENUFUNC003
  +--> ?PR?CMISVENABLE?OSDMENUFUNC003
  +--> ?PR?MSCBRIGHTNESSPROC?OSDMENUFUNC003
  +--> ?PR?MSCVOLUMEPROC?OSDMENUFUNC003
  +--> ?PR?MSCINPUTCHNUMPROC?OSDMENUFUNC003

?PR?MMENUNONEPROC?OSDMENUFUNC003                 -----    -----      -----    -----      -----    -----      -----    --
>> ---
  +--> ?PR?CTVENABLE?OSDMENUFUNC003
  +--> ?PR?MMENUNONEENTERSUBMENU?OSDMENUFUNC003
  +--> ?PR?CMODESETFREERUN?MODE
  +--> ?PR?CPOWERLVDSON?POWER
  +--> ?PR?CMODERESETMODE?MODE
  +--> ?PR?CPOWERPANELON?POWER
  +--> ?PR?CPOWERLIGHTPOWERON?POWER
  +--> ?PR?DRAWSOURCEMENU?OSDMENUFUNC003
  +--> ?PR?ENTERSCBRIGHT?OSDMENUFUNC003
  +--> ?PR?_LOADCHIFONT?OSDPROC003
  +--> ?PR?ENTERSCVOLUME?OSDMENUFUNC003
  +--> ?PR?CSETMUTESTATE?OSDPROC003
  +--> ?PR?CDISPLAYCURRENTSOURCEMESSAGE?OSDM...
BL51 BANKED LINKER/LOCATER V5.11                                                      10/05/2015  09:30:23  PAGE 41



?PR?MMENUNONEENTERSUBMENU?OSDMENUFUNC003         -----    -----      -----    -----      -----    -----      -----    --
>> ---
  +--> ?PR?DRAWMAINMENU?OSDMENUFUNC003
  +--> ?PR?_CSHOWMODE?OSDMENUFUNC003
  +--> ?PR?COSDFXENABLEOSD?GMIOSDFUNC

?PR?DRAWMAINMENU?OSDMENUFUNC003                  -----    -----      -----    -----      -----    -----      FB85H    00
>> 02H
  +--> ?PR?INITMAINOSD?OSDMENUFUNC003
  +--> ?PR?_LOADCHIFONT?OSDPROC003
  +--> ?PR?_DRAWMAINITEMTITLE?OSDMENUFUNC003
  +--> ?PR?_DRAWMAINMENUITEM?OSDMENUFUNC003
  +--> ?PR?_DRAWSUBMENU?OSDMENUFUNC003

?PR?INITMAINOSD?OSDMENUFUNC003                   -----    -----      -----    -----      -----    -----      FB87H    00
>> 01H
  +--> ?PR?INITOSDFRAME?OSDPROC003
  +--> ?PR?_SETOSDDOUBLE?GMIOSDFUNC
  +--> ?PR?OSDMENUFUNC003
  +--> ?PR?_OSDLINE?GMIOSDFUNC
  +--> ?PR?_GOTOXY?GMIOSDFUNC
  +--> ?PR?_CSCALERSENDADDR?RTDACCESS
  +--> ?PR?_COSDFXDRAWWINDOW?GMIOSDFUNC
  +--> ?PR?_CSETOSDPOSITION?OSDMENUFUNC003
  +--> ?PR?COSDFXENABLEOSD?GMIOSDFUNC

?PR?INITOSDFRAME?OSDPROC003                      -----    -----      -----    -----      -----    -----      -----    --
>> ---
  +--> ?PR?COSDFXDISABLEOSD?GMIOSDFUNC
  +--> ?CO?OSDRES003
  +--> ?PR?_SETOSDMAP?GMIOSDFUNC
  +--> ?CO?GMIOSDFUNC
  +--> ?PR?_COSDFXCODEWRITE?GMIOSDFUNC
  +--> ?PR?_CSCALERSETBIT?RTDACCESS
  +--> ?PR?_OSDCLEAR?GMIOSDFUNC

?PR?_COSDFXCODEWRITE?GMIOSDFUNC                  -----    -----      -----    -----      -----    -----      FB88H    00
>> 05H
  +--> ?PR?GMIOSDFUNC
  +--> ?PR?_CSCALERWRITE?RTDACCESS
  +--> ?PR?_CSCALERWRITEAMOUNT?RTDACCESS

?PR?_CSCALERWRITEAMOUNT?RTDACCESS                0020H.2  0000H.1    -----    -----      -----    -----      -----    --
>> ---
  +--> ?PR?_CSCALERSENDADDR?RTDACCESS

?PR?_OSDCLEAR?GMIOSDFUNC                         -----    -----      -----    -----      -----    -----      FB89H    00
>> 06H
  +--> ?PR?_OSDLINE?GMIOSDFUNC

?PR?_OSDLINE?GMIOSDFUNC                          -----    -----      -----    -----      -----    -----      FB96H    00
>> 05H
  +--> ?PR?GMIOSDFUNC
  +--> ?PR?_GOTOXY?GMIOSDFUNC
  +--> ?PR?_CSCALERSENDADDR?RTDACCESS

BL51 BANKED LINKER/LOCATER V5.11                                                      10/05/2015  09:30:23  PAGE 42


?PR?_GOTOXY?GMIOSDFUNC                           -----    -----      -----    -----      -----    -----      FBA7H    00
>> 04H
  +--> ?PR?GMIOSDFUNC
  +--> ?PR?_CSCALERWRITE?RTDACCESS

?PR?_SETOSDDOUBLE?GMIOSDFUNC                     -----    -----      -----    -----      -----    -----      -----    --
>> ---
  +--> ?PR?GMIOSDFUNC
  +--> ?PR?_CSCALERWRITE?RTDACCESS

?PR?OSDMENUFUNC003                               -----    -----      -----    -----      -----    -----      -----    --
>> ---
  +--> ?CO?OSDRES003
  +--> ?PR?_STATECOLOR?OSDMENUFUNC003
  +--> ?CO?RTDACCESS

?PR?_COSDFXDRAWWINDOW?GMIOSDFUNC                 -----    -----      -----    -----      -----    -----      FB93H    00
>> 0DH
  +--> ?PR?GMIOSDFUNC
  +--> ?PR?_CSCALERGETBIT?RTDACCESS
  +--> ?PR?_CSCALERWRITE?RTDACCESS
  +--> ?PR?_CTIMERDELAYXMS?TIMER

?PR?_CSETOSDPOSITION?OSDMENUFUNC003              -----    -----      -----    -----      -----    -----      FB88H    00
>> 06H
  +--> ?PR?OSDMENUFUNC003
  +--> ?PR?_OSDPOSITION?GMIOSDFUNC

?PR?_OSDPOSITION?GMIOSDFUNC                      -----    -----      -----    -----      -----    -----      FB8EH    00
>> 07H
  +--> ?PR?GMIOSDFUNC
  +--> ?PR?_CSCALERSETBIT?RTDACCESS
  +--> ?PR?_CSCALERGETBIT?RTDACCESS
  +--> ?PR?_CSCALERWRITE?RTDACCESS
  +--> ?PR?_CTIMERWAITFOREVENT?TIMER

?PR?COSDFXENABLEOSD?GMIOSDFUNC                   -----    -----      -----    -----      -----    -----      -----    --
>> ---
  +--> ?PR?_CTIMERWAITFOREVENT?TIMER
  +--> ?PR?_CSCALERSETBIT?RTDACCESS

?PR?_LOADCHIFONT?OSDPROC003                      -----    -----      -----    -----      -----    -----      FB87H    00
>> 01H
  +--> ?PR?_LOADCHI_S_FONT?OSDPROC003
  +--> ?PR?_LOADCHI_T_FONT?OSDPROC003

?PR?_LOADCHI_S_FONT?OSDPROC003                   -----    -----      -----    -----      -----    -----      FB88H    00
>> 04H
  +--> ?CO?OSDRES003
  +--> ?PR?_COSDLOAD1BITFONTWIDTH12?OSDPROC003

?PR?_COSDLOAD1BITFONTWIDTH12?OSDPROC003          -----    -----      -----    -----      -----    -----      FB8CH    00
>> 07H
  +--> ?PR?_CSCALERLOADHARDWAREVLCFONT?RTDAC...
  +--> ?PR?_SETCHARWDITH?GMIOSDFUNC

?PR?_CSCALERLOADHARDWAREVLCFONT?RTDAC...         -----    -----      -----    -----      -----    -----      FB93H    00
BL51 BANKED LINKER/LOCATER V5.11                                                      10/05/2015  09:30:23  PAGE 43


>> 07H
  +--> ?PR?RTDACCESS
  +--> ?PR?_CSCALERWRITE?RTDACCESS
  +--> ?PR?_CSCALERSENDADDR?RTDACCESS

?PR?_SETCHARWDITH?GMIOSDFUNC                     -----    -----      -----    -----      -----    -----      -----    --
>> ---
  +--> ?PR?GMIOSDFUNC

?PR?_LOADCHI_T_FONT?OSDPROC003                   -----    -----      -----    -----      -----    -----      FB88H    00
>> 04H
  +--> ?CO?OSDRES003
  +--> ?PR?_COSDLOAD1BITFONTWIDTH12?OSDPROC003

?PR?_DRAWMAINITEMTITLE?OSDMENUFUNC003            -----    -----      -----    -----      -----    -----      FB87H    00
>> 05H
  +--> ?CO?OSDRES003
  +--> ?PR?OSDMENUFUNC003
  +--> ?PR?_CSCALERLOADHARDWAREVLCFONT?RTDAC...
  +--> ?PR?_GOTOXY?GMIOSDFUNC
  +--> ?PR?_CSCALERSENDADDR?RTDACCESS

?PR?_DRAWMAINMENUITEM?OSDMENUFUNC003             -----    -----      -----    -----      -----    -----      FB87H    00
>> 06H
  +--> ?PR?_GETSHOWINDEX?OSDPROC003
  +--> ?PR?OSDMENUFUNC003
  +--> ?CO?OSDRES003
  +--> ?PR?_DRAW2BIT3X2ICON?OSDPROC003

?PR?_GETSHOWINDEX?OSDPROC003                     0020H.3  0000H.2    -----    -----      -----    -----      FB90H    00
>> 04H

?PR?_DRAW2BIT3X2ICON?OSDPROC003                  -----    -----      -----    -----      -----    -----      FB8DH    00
>> 05H
  +--> ?PR?_GOTOXY?GMIOSDFUNC
  +--> ?PR?_CSCALERWRITE?RTDACCESS

?PR?_DRAWSUBMENU?OSDMENUFUNC003                  -----    -----      -----    -----      -----    -----      -----    --
>> ---
  +--> ?PR?DRAWCOLORPAGE?OSDMENUFUNC003
  +--> ?PR?DRAWADJUSTPAGE?OSDMENUFUNC003
  +--> ?PR?DRAWOSDPAGE?OSDMENUFUNC003
  +--> ?PR?DRAWTVPAGE?OSDMENUFUNC003
  +--> ?PR?DRAWFUNCPAGE?OSDMENUFUNC003
  +--> ?PR?DRAWSOUNDPAGE?OSDMENUFUNC003

?PR?DRAWCOLORPAGE?OSDMENUFUNC003                 -----    -----      -----    -----      -----    -----      FB87H    00
>> 02H
  +--> ?PR?_DRAWCOLORPAGEMENUITEM?OSDMENUFUN...
  +--> ?PR?_DRAWPAGENULLLINE?OSDMENUFUNC003

?PR?_DRAWCOLORPAGEMENUITEM?OSDMENUFUN...         -----    -----      -----    -----      -----    -----      FB89H    00
>> 02H
  +--> ?PR?OSDMENUFUNC003
  +--> ?PR?_DRAWBRIGHT?OSDMENUFUNC003
  +--> ?PR?_DRAWCONTRAST?OSDMENUFUNC003
  +--> ?PR?_DRAWHUE?OSDMENUFUNC003
BL51 BANKED LINKER/LOCATER V5.11                                                      10/05/2015  09:30:23  PAGE 44


  +--> ?PR?_DRAWSATURATION?OSDMENUFUNC003
  +--> ?PR?_DRAWCOLORTEMP?OSDMENUFUNC003

?PR?_DRAWBRIGHT?OSDMENUFUNC003                   -----    -----      -----    -----      -----    -----      FB8BH    00
>> 04H
  +--> ?PR?OSDMENUFUNC003
  +--> ?PR?_GETSHOWINDEX?OSDPROC003
  +--> ?PR?_STATECOLOR?OSDMENUFUNC003
  +--> ?CO?OSDRES003
  +--> ?PR?_SUBMENUTEXTOUT?OSDMENUFUNC003
  +--> ?PR?_OSDSLIDER?OSDMENUFUNC003

?PR?_SUBMENUTEXTOUT?OSDMENUFUNC003               -----    -----      -----    -----      -----    -----      FB90H    00
>> 06H
  +--> ?PR?OSDMENUFUNC003
  +--> ?PR?_OSDLINE?GMIOSDFUNC
  +--> ?PR?_TEXTOUTCALCWIDTH?OSDPROC003

?PR?_TEXTOUTCALCWIDTH?OSDPROC003                 -----    -----      -----    -----      -----    -----      FB96H    00
>> 09H
  +--> ?PR?_CTEXTOUTBASE?GMIOSDFUNC
  +--> ?PR?_STRLEN?GMIOSDFUNC
  +--> ?PR?_CSCALERSENDADDR?RTDACCESS
  +--> ?PR?_GOTOXY?GMIOSDFUNC
  +--> ?PR?_CSCALERWRITE?RTDACCESS

?PR?_CTEXTOUTBASE?GMIOSDFUNC                     -----    -----      -----    -----      -----    -----      FB9FH    00
>> 08H
  +--> ?PR?GMIOSDFUNC
  +--> ?PR?_GOTOXY?GMIOSDFUNC
  +--> ?PR?_TEXTOUT?GMIOSDFUNC
  +--> ?PR?_STRLEN?GMIOSDFUNC
  +--> ?PR?_CSCALERSENDADDR?RTDACCESS
  +--> ?PR?_GETCHARWDITH?GMIOSDFUNC

?PR?_TEXTOUT?GMIOSDFUNC                          -----    -----      -----    -----      -----    -----      FBA7H    00
>> 03H
  +--> ?PR?GMIOSDFUNC
  +--> ?PR?_CSCALERSENDADDR?RTDACCESS

?PR?_GETCHARWDITH?GMIOSDFUNC                     -----    -----      -----    -----      -----    -----      -----    --
>> ---
  +--> ?PR?GMIOSDFUNC

?PR?_OSDSLIDER?OSDMENUFUNC003                    -----    -----      0023H    000AH      -----    -----      -----    --
>> ---
  +--> ?PR?_OSDLINE?GMIOSDFUNC
  +--> ?PR?_GOTOXY?GMIOSDFUNC
  +--> ?PR?_OUTPUTCHAR?GMIOSDFUNC
  +--> ?PR?_CSHOWNUMBER?GMIOSDFUNC

?PR?_CSHOWNUMBER?GMIOSDFUNC                      -----    -----      -----    -----      -----    -----      FB8FH    00
>> 06H
  +--> ?PR?GMIOSDFUNC
  +--> ?PR?_CTEXTOUTBASE?GMIOSDFUNC
  +--> ?PR?_CSETBLANKWIDTH?GMIOSDFUNC

BL51 BANKED LINKER/LOCATER V5.11                                                      10/05/2015  09:30:23  PAGE 45


?PR?_CSETBLANKWIDTH?GMIOSDFUNC                   -----    -----      -----    -----      -----    -----      FB9CH    00
>> 01H
  +--> ?PR?_GOTOXY?GMIOSDFUNC
  +--> ?PR?_CSCALERWRITE?RTDACCESS

?PR?_DRAWCONTRAST?OSDMENUFUNC003                 -----    -----      -----    -----      -----    -----      FB8BH    00
>> 04H
  +--> ?PR?OSDMENUFUNC003
  +--> ?PR?_GETSHOWINDEX?OSDPROC003
  +--> ?PR?_STATECOLOR?OSDMENUFUNC003
  +--> ?CO?OSDRES003
  +--> ?PR?_SUBMENUTEXTOUT?OSDMENUFUNC003
  +--> ?PR?_OSDSLIDER?OSDMENUFUNC003

?PR?_DRAWHUE?OSDMENUFUNC003                      -----    -----      -----    -----      -----    -----      FB8BH    00
>> 04H
  +--> ?PR?OSDMENUFUNC003
  +--> ?PR?_GETSHOWINDEX?OSDPROC003
  +--> ?PR?_STATECOLOR?OSDMENUFUNC003
  +--> ?CO?OSDRES003
  +--> ?PR?_SUBMENUTEXTOUT?OSDMENUFUNC003
  +--> ?PR?_OSDSLIDER?OSDMENUFUNC003

?PR?_DRAWSATURATION?OSDMENUFUNC003               -----    -----      -----    -----      -----    -----      FB8BH    00
>> 04H
  +--> ?PR?OSDMENUFUNC003
  +--> ?PR?_GETSHOWINDEX?OSDPROC003
  +--> ?PR?_STATECOLOR?OSDMENUFUNC003
  +--> ?CO?OSDRES003
  +--> ?PR?_SUBMENUTEXTOUT?OSDMENUFUNC003
  +--> ?PR?_OSDSLIDER?OSDMENUFUNC003

?PR?_DRAWCOLORTEMP?OSDMENUFUNC003                -----    -----      -----    -----      -----    -----      FB8BH    00
>> 05H
  +--> ?PR?OSDMENUFUNC003
  +--> ?PR?_GETSHOWINDEX?OSDPROC003
  +--> ?CO?OSDRES003
  +--> ?PR?_SUBMENUTEXTOUT?OSDMENUFUNC003
  +--> ?PR?_CTEXTOUTEX?GMIOSDFUNC

?PR?_CTEXTOUTEX?GMIOSDFUNC                       -----    -----      -----    -----      -----    -----      FB96H    00
>> 06H
  +--> ?PR?GMIOSDFUNC
  +--> ?PR?_STRLEN?GMIOSDFUNC
  +--> ?PR?_CTEXTOUTBASE?GMIOSDFUNC
  +--> ?PR?_CSETBLANKWIDTH?GMIOSDFUNC

?PR?_DRAWPAGENULLLINE?OSDMENUFUNC003             -----    -----      -----    -----      -----    -----      FB89H    00
>> 01H
  +--> ?PR?_GETSHOWCOUNT?OSDPROC003
  +--> ?CO?OSDRES003
  +--> ?PR?OSDMENUFUNC003
  +--> ?PR?_TEXTOUTCALCWIDTH?OSDPROC003

?PR?_GETSHOWCOUNT?OSDPROC003                     0020H.3  0000H.2    -----    -----      -----    -----      FB8AH    00
>> 03H

BL51 BANKED LINKER/LOCATER V5.11                                                      10/05/2015  09:30:23  PAGE 46


?PR?DRAWADJUSTPAGE?OSDMENUFUNC003                -----    -----      -----    -----      -----    -----      FB87H    00
>> 02H
  +--> ?PR?_DRAWADJUSTPAGEMENUITEM?OSDMENUFU...
  +--> ?PR?_DRAWPAGENULLLINE?OSDMENUFUNC003

?PR?_DRAWADJUSTPAGEMENUITEM?OSDMENUFU...         -----    -----      -----    -----      -----    -----      FB89H    00
>> 02H
  +--> ?PR?OSDMENUFUNC003
  +--> ?PR?_DRAWAUTOADJUST?OSDMENUFUNC003
  +--> ?PR?_DRAWHPOSITION?OSDMENUFUNC003
  +--> ?PR?_DRAWVPOSITION?OSDMENUFUNC003
  +--> ?PR?_DRAWPHASE?OSDMENUFUNC003
  +--> ?PR?_DRAWCLOCK?OSDMENUFUNC003

?PR?_DRAWAUTOADJUST?OSDMENUFUNC003               -----    -----      -----    -----      -----    -----      FB8BH    00
>> 01H
  +--> ?PR?OSDMENUFUNC003
  +--> ?PR?_GETSHOWINDEX?OSDPROC003
  +--> ?CO?OSDRES003
  +--> ?PR?_SUBMENUTEXTOUT?OSDMENUFUNC003

?PR?_DRAWHPOSITION?OSDMENUFUNC003                -----    -----      -----    -----      -----    -----      FB8BH    00
>> 04H
  +--> ?PR?OSDMENUFUNC003
  +--> ?PR?_GETSHOWINDEX?OSDPROC003
  +--> ?PR?_STATECOLOR?OSDMENUFUNC003
  +--> ?CO?OSDRES003
  +--> ?PR?_SUBMENUTEXTOUT?OSDMENUFUNC003
  +--> ?PR?COSDCTRLGETHPOSITION?GMIOSDFUNC
  +--> ?PR?_OSDSLIDER?OSDMENUFUNC003

?PR?COSDCTRLGETHPOSITION?GMIOSDFUNC              -----    -----      -----    -----      -----    -----      FB8FH    00
>> 02H
  +--> ?PR?GMIOSDFUNC
  +--> ?PR?_ABS?ABS

?PR?_DRAWVPOSITION?OSDMENUFUNC003                -----    -----      -----    -----      -----    -----      FB8BH    00
>> 04H
  +--> ?PR?OSDMENUFUNC003
  +--> ?PR?_GETSHOWINDEX?OSDPROC003
  +--> ?PR?_STATECOLOR?OSDMENUFUNC003
  +--> ?CO?OSDRES003
  +--> ?PR?_SUBMENUTEXTOUT?OSDMENUFUNC003
  +--> ?PR?COSDCTRLGETVPOSITION?GMIOSDFUNC
  +--> ?PR?_OSDSLIDER?OSDMENUFUNC003

?PR?COSDCTRLGETVPOSITION?GMIOSDFUNC              -----    -----      -----    -----      -----    -----      FB8FH    00
>> 02H
  +--> ?PR?GMIOSDFUNC
  +--> ?PR?_ABS?ABS

?PR?_DRAWPHASE?OSDMENUFUNC003                    -----    -----      -----    -----      -----    -----      FB8BH    00
>> 04H
  +--> ?PR?OSDMENUFUNC003
  +--> ?PR?_GETSHOWINDEX?OSDPROC003
  +--> ?PR?_STATECOLOR?OSDMENUFUNC003
  +--> ?CO?OSDRES003
BL51 BANKED LINKER/LOCATER V5.11                                                      10/05/2015  09:30:23  PAGE 47


  +--> ?PR?_SUBMENUTEXTOUT?OSDMENUFUNC003
  +--> ?PR?_OSDSLIDER?OSDMENUFUNC003

?PR?_DRAWCLOCK?OSDMENUFUNC003                    -----    -----      -----    -----      -----    -----      FB8BH    00
>> 04H
  +--> ?PR?OSDMENUFUNC003
  +--> ?PR?_GETSHOWINDEX?OSDPROC003
  +--> ?PR?_STATECOLOR?OSDMENUFUNC003
  +--> ?CO?OSDRES003
  +--> ?PR?_SUBMENUTEXTOUT?OSDMENUFUNC003
  +--> ?PR?COSDCTRLGETCLOCK?GMIOSDFUNC
  +--> ?PR?_OSDSLIDER?OSDMENUFUNC003

?PR?COSDCTRLGETCLOCK?GMIOSDFUNC                  -----    -----      -----    -----      -----    -----      FB8FH    00
>> 02H
  +--> ?PR?_COSDFXGETADCCLOCKRANGE?GMIOSDFUNC
  +--> ?PR?GMIOSDFUNC

?PR?_COSDFXGETADCCLOCKRANGE?GMIOSDFUNC           -----    -----      -----    -----      -----    -----      FB91H    00
>> 03H
  +--> ?PR?_CADJUSTCHECKADCCLOCKRANGE?ADJUST

?PR?_CADJUSTCHECKADCCLOCKRANGE?ADJUST            -----    -----      -----    -----      -----    -----      FB94H    00
>> 05H
  +--> ?PR?ADJUST

?PR?DRAWOSDPAGE?OSDMENUFUNC003                   -----    -----      -----    -----      -----    -----      FB87H    00
>> 02H
  +--> ?PR?_DRAWOSDPAGEMENUITEM?OSDMENUFUNC003
  +--> ?PR?_DRAWPAGENULLLINE?OSDMENUFUNC003

?PR?_DRAWOSDPAGEMENUITEM?OSDMENUFUNC003          -----    -----      -----    -----      -----    -----      FB89H    00
>> 02H
  +--> ?PR?OSDMENUFUNC003
  +--> ?PR?_DRAWLANGUAGE?OSDMENUFUNC003
  +--> ?PR?_DRAWOSDHPOSITION?OSDMENUFUNC003
  +--> ?PR?_DRAWOSDVPOSITION?OSDMENUFUNC003
  +--> ?PR?_DRAWOSDTIMER?OSDMENUFUNC003
  +--> ?PR?_DRAWDOUBLE?OSDMENUFUNC003
  +--> ?PR?_DRAWTRANSPARENT?OSDMENUFUNC003

?PR?_DRAWLANGUAGE?OSDMENUFUNC003                 -----    -----      -----    -----      -----    -----      FB8BH    00
>> 02H
  +--> ?PR?OSDMENUFUNC003
  +--> ?PR?_GETSHOWINDEX?OSDPROC003
  +--> ?CO?OSDRES003
  +--> ?PR?_SUBMENUTEXTOUT?OSDMENUFUNC003
  +--> ?PR?_CTEXTOUTEX?GMIOSDFUNC

?PR?_DRAWOSDHPOSITION?OSDMENUFUNC003             -----    -----      -----    -----      -----    -----      FB8BH    00
>> 04H
  +--> ?PR?OSDMENUFUNC003
  +--> ?PR?_GETSHOWINDEX?OSDPROC003
  +--> ?PR?_STATECOLOR?OSDMENUFUNC003
  +--> ?CO?OSDRES003
  +--> ?PR?_SUBMENUTEXTOUT?OSDMENUFUNC003
  +--> ?PR?_OSDSLIDER?OSDMENUFUNC003
BL51 BANKED LINKER/LOCATER V5.11                                                      10/05/2015  09:30:23  PAGE 48



?PR?_DRAWOSDVPOSITION?OSDMENUFUNC003             -----    -----      -----    -----      -----    -----      FB8BH    00
>> 04H
  +--> ?PR?OSDMENUFUNC003
  +--> ?PR?_GETSHOWINDEX?OSDPROC003
  +--> ?PR?_STATECOLOR?OSDMENUFUNC003
  +--> ?CO?OSDRES003
  +--> ?PR?_SUBMENUTEXTOUT?OSDMENUFUNC003
  +--> ?PR?_OSDSLIDER?OSDMENUFUNC003

?PR?_DRAWOSDTIMER?OSDMENUFUNC003                 -----    -----      -----    -----      -----    -----      FB8BH    00
>> 04H
  +--> ?PR?OSDMENUFUNC003
  +--> ?PR?_GETSHOWINDEX?OSDPROC003
  +--> ?PR?_STATECOLOR?OSDMENUFUNC003
  +--> ?CO?OSDRES003
  +--> ?PR?_SUBMENUTEXTOUT?OSDMENUFUNC003
  +--> ?PR?_OSDLINE?GMIOSDFUNC
  +--> ?PR?_CTEXTOUTEX?GMIOSDFUNC
  +--> ?PR?_CSHOWNUMBER?GMIOSDFUNC

?PR?_DRAWDOUBLE?OSDMENUFUNC003                   -----    -----      -----    -----      -----    -----      FB8BH    00
>> 05H
  +--> ?PR?OSDMENUFUNC003
  +--> ?PR?_GETSHOWINDEX?OSDPROC003
  +--> ?CO?OSDRES003
  +--> ?PR?_SUBMENUTEXTOUT?OSDMENUFUNC003
  +--> ?PR?_CTEXTOUTEX?GMIOSDFUNC

?PR?_DRAWTRANSPARENT?OSDMENUFUNC003              -----    -----      -----    -----      -----    -----      FB8BH    00
>> 04H
  +--> ?PR?OSDMENUFUNC003
  +--> ?PR?_GETSHOWINDEX?OSDPROC003
  +--> ?PR?_STATECOLOR?OSDMENUFUNC003
  +--> ?CO?OSDRES003
  +--> ?PR?_SUBMENUTEXTOUT?OSDMENUFUNC003
  +--> ?PR?_OSDLINE?GMIOSDFUNC
  +--> ?PR?_CTEXTOUTEX?GMIOSDFUNC
  +--> ?PR?_CSHOWNUMBER?GMIOSDFUNC

?PR?DRAWTVPAGE?OSDMENUFUNC003                    -----    -----      -----    -----      -----    -----      FB87H    00
>> 02H
  +--> ?PR?_DRAWTVPAGEMENUITEM?OSDMENUFUNC003
  +--> ?PR?_DRAWPAGENULLLINE?OSDMENUFUNC003

?PR?_DRAWTVPAGEMENUITEM?OSDMENUFUNC003           -----    -----      -----    -----      -----    -----      FB89H    00
>> 02H
  +--> ?PR?OSDMENUFUNC003
  +--> ?PR?_DRAWCHANNEL?OSDMENUFUNC003
  +--> ?PR?_DRAWSYSTEM?OSDMENUFUNC003
  +--> ?PR?_DRAWAUTOSEARCH?OSDMENUFUNC003
  +--> ?PR?_DRAWMANUALSEARCH?OSDMENUFUNC003
  +--> ?PR?_DRAWTUNING?OSDMENUFUNC003
  +--> ?PR?_DRAWSKIP?OSDMENUFUNC003
  +--> ?PR?_DRAWSWAP?OSDMENUFUNC003
  +--> ?PR?_DRAWAFC?OSDMENUFUNC003

BL51 BANKED LINKER/LOCATER V5.11                                                      10/05/2015  09:30:23  PAGE 49


?PR?_DRAWCHANNEL?OSDMENUFUNC003                  -----    -----      -----    -----      -----    -----      FB8BH    00
>> 02H
  +--> ?PR?OSDMENUFUNC003
  +--> ?PR?_GETSHOWINDEX?OSDPROC003
  +--> ?CO?OSDRES003
  +--> ?PR?_SUBMENUTEXTOUT?OSDMENUFUNC003
  +--> ?PR?_CSHOWNUMBER?GMIOSDFUNC

?PR?_DRAWAUTOSEARCH?OSDMENUFUNC003               -----    -----      -----    -----      -----    -----      FB8BH    00
>> 01H
  +--> ?PR?OSDMENUFUNC003
  +--> ?PR?_GETSHOWINDEX?OSDPROC003
  +--> ?CO?OSDRES003
  +--> ?PR?_SUBMENUTEXTOUT?OSDMENUFUNC003

?PR?_DRAWMANUALSEARCH?OSDMENUFUNC003             -----    -----      -----    -----      -----    -----      FB8BH    00
>> 01H
  +--> ?PR?OSDMENUFUNC003
  +--> ?PR?_GETSHOWINDEX?OSDPROC003
  +--> ?CO?OSDRES003
  +--> ?PR?_SUBMENUTEXTOUT?OSDMENUFUNC003

?PR?DRAWFUNCPAGE?OSDMENUFUNC003                  -----    -----      -----    -----      -----    -----      FB87H    00
>> 02H
  +--> ?PR?_DRAWFUNCPAGEMENUITEM?OSDMENUFUNC003
  +--> ?PR?_DRAWPAGENULLLINE?OSDMENUFUNC003

?PR?_DRAWFUNCPAGEMENUITEM?OSDMENUFUNC003         -----    -----      -----    -----      -----    -----      FB89H    00
>> 02H
  +--> ?PR?OSDMENUFUNC003
  +--> ?PR?_DRAWRESET?OSDMENUFUNC003
  +--> ?PR?_DRAWDISPLAYRATIO?OSDMENUFUNC003
  +--> ?PR?_DRAWAUTOPOWERDOWN?OSDMENUFUNC003
  +--> ?PR?_DRAWBLUESCREEN?OSDMENUFUNC003
  +--> ?PR?_DRAWSHARPNESS?OSDMENUFUNC003

?PR?_DRAWRESET?OSDMENUFUNC003                    -----    -----      -----    -----      -----    -----      FB8BH    00
>> 01H
  +--> ?PR?OSDMENUFUNC003
  +--> ?PR?_GETSHOWINDEX?OSDPROC003
  +--> ?CO?OSDRES003
  +--> ?PR?_SUBMENUTEXTOUT?OSDMENUFUNC003

?PR?_DRAWDISPLAYRATIO?OSDMENUFUNC003             -----    -----      -----    -----      -----    -----      FB8BH    00
>> 05H
  +--> ?PR?OSDMENUFUNC003
  +--> ?PR?_GETSHOWINDEX?OSDPROC003
  +--> ?CO?OSDRES003
  +--> ?PR?_SUBMENUTEXTOUT?OSDMENUFUNC003
  +--> ?PR?_CTEXTOUTEX?GMIOSDFUNC

?PR?_DRAWAUTOPOWERDOWN?OSDMENUFUNC003            -----    -----      -----    -----      -----    -----      FB8BH    00
>> 05H
  +--> ?PR?OSDMENUFUNC003
  +--> ?PR?_GETSHOWINDEX?OSDPROC003
  +--> ?CO?OSDRES003
  +--> ?PR?_SUBMENUTEXTOUT?OSDMENUFUNC003
BL51 BANKED LINKER/LOCATER V5.11                                                      10/05/2015  09:30:23  PAGE 50


  +--> ?PR?_CTEXTOUTEX?GMIOSDFUNC

?PR?_DRAWBLUESCREEN?OSDMENUFUNC003               -----    -----      -----    -----      -----    -----      FB8BH    00
>> 05H
  +--> ?PR?OSDMENUFUNC003
  +--> ?PR?_GETSHOWINDEX?OSDPROC003
  +--> ?CO?OSDRES003
  +--> ?PR?_SUBMENUTEXTOUT?OSDMENUFUNC003
  +--> ?PR?_CTEXTOUTEX?GMIOSDFUNC

?PR?_DRAWSHARPNESS?OSDMENUFUNC003                -----    -----      -----    -----      -----    -----      FB8BH    00
>> 02H
  +--> ?PR?OSDMENUFUNC003
  +--> ?PR?_GETSHOWINDEX?OSDPROC003
  +--> ?CO?OSDRES003
  +--> ?PR?_SUBMENUTEXTOUT?OSDMENUFUNC003
  +--> ?PR?_CSHOWNUMBER?GMIOSDFUNC

?PR?DRAWSOUNDPAGE?OSDMENUFUNC003                 -----    -----      -----    -----      -----    -----      FB87H    00
>> 02H
  +--> ?PR?_DRAWSOUNDPAGEMENUITEM?OSDMENUFUN...
  +--> ?PR?_DRAWPAGENULLLINE?OSDMENUFUNC003

?PR?_DRAWSOUNDPAGEMENUITEM?OSDMENUFUN...         -----    -----      -----    -----      -----    -----      FB89H    00
>> 02H
  +--> ?PR?OSDMENUFUNC003
  +--> ?PR?_DRAWVOLUME?OSDMENUFUNC003
  +--> ?PR?_DRAWBALANCE?OSDMENUFUNC003
  +--> ?PR?_DRAWBASS?OSDMENUFUNC003
  +--> ?PR?_DRAWTREBLE?OSDMENUFUNC003
  +--> ?PR?_DRAWSRS?OSDMENUFUNC003
  +--> ?PR?_DRAWBBE?OSDMENUFUNC003

?PR?_DRAWVOLUME?OSDMENUFUNC003                   -----    -----      -----    -----      -----    -----      FB8BH    00
>> 04H
  +--> ?PR?OSDMENUFUNC003
  +--> ?PR?_GETSHOWINDEX?OSDPROC003
  +--> ?PR?_STATECOLOR?OSDMENUFUNC003
  +--> ?CO?OSDRES003
  +--> ?PR?_SUBMENUTEXTOUT?OSDMENUFUNC003
  +--> ?PR?_OSDSLIDER?OSDMENUFUNC003

?PR?_DRAWBALANCE?OSDMENUFUNC003                  -----    -----      -----    -----      -----    -----      FB8BH    00
>> 04H
  +--> ?PR?OSDMENUFUNC003
  +--> ?PR?_GETSHOWINDEX?OSDPROC003
  +--> ?PR?_STATECOLOR?OSDMENUFUNC003
  +--> ?CO?OSDRES003
  +--> ?PR?_SUBMENUTEXTOUT?OSDMENUFUNC003
  +--> ?PR?_OSDSLIDER?OSDMENUFUNC003

?PR?_DRAWBASS?OSDMENUFUNC003                     -----    -----      -----    -----      -----    -----      FB8BH    00
>> 04H
  +--> ?PR?OSDMENUFUNC003
  +--> ?PR?_GETSHOWINDEX?OSDPROC003
  +--> ?PR?_STATECOLOR?OSDMENUFUNC003
  +--> ?CO?OSDRES003
BL51 BANKED LINKER/LOCATER V5.11                                                      10/05/2015  09:30:23  PAGE 51


  +--> ?PR?_SUBMENUTEXTOUT?OSDMENUFUNC003
  +--> ?PR?_OSDSLIDER?OSDMENUFUNC003

?PR?_DRAWTREBLE?OSDMENUFUNC003                   -----    -----      -----    -----      -----    -----      FB8BH    00
>> 04H
  +--> ?PR?OSDMENUFUNC003
  +--> ?PR?_GETSHOWINDEX?OSDPROC003
  +--> ?PR?_STATECOLOR?OSDMENUFUNC003
  +--> ?CO?OSDRES003
  +--> ?PR?_SUBMENUTEXTOUT?OSDMENUFUNC003
  +--> ?PR?_OSDSLIDER?OSDMENUFUNC003

?PR?_DRAWSRS?OSDMENUFUNC003                      -----    -----      -----    -----      -----    -----      FB8BH    00
>> 02H
  +--> ?PR?OSDMENUFUNC003
  +--> ?PR?_GETSHOWINDEX?OSDPROC003
  +--> ?PR?_STATECOLOR?OSDMENUFUNC003
  +--> ?CO?OSDRES003
  +--> ?PR?_SUBMENUTEXTOUT?OSDMENUFUNC003

?PR?_DRAWBBE?OSDMENUFUNC003                      -----    -----      -----    -----      -----    -----      FB8BH    00
>> 02H
  +--> ?PR?OSDMENUFUNC003
  +--> ?PR?_GETSHOWINDEX?OSDPROC003
  +--> ?PR?_STATECOLOR?OSDMENUFUNC003
  +--> ?CO?OSDRES003
  +--> ?PR?_SUBMENUTEXTOUT?OSDMENUFUNC003

?PR?_CSHOWMODE?OSDMENUFUNC003                    -----    -----      -----    -----      -----    -----      FB88H    00
>> 02H
  +--> ?PR?_CSHOWHDMIMODE?OSDMENUFUNC003
  +--> ?PR?_CSHOWVGAMODE?OSDMENUFUNC003
  +--> ?CO?OSDRES003
  +--> ?PR?_STRLEN?GMIOSDFUNC
  +--> ?PR?OSDMENUFUNC003
  +--> ?PR?_CTEXTOUTEX?GMIOSDFUNC

?PR?_CSHOWHDMIMODE?OSDMENUFUNC003                0020H.2  0000H.1    -----    -----      -----    -----      FB8AH    00
>> 08H
  +--> ?PR?OSDMENUFUNC003
  +--> ?CO?OSDMENUFUNC003
  +--> ?PR?_STRLEN?GMIOSDFUNC
  +--> ?PR?_CTEXTOUTEX?GMIOSDFUNC
  +--> ?PR?_CSCALERPAGESELECT?RTDACCESS
  +--> ?PR?_CSCALERGETDATAPORTBYTE?SCALER
  +--> ?PR?_CSCALERREAD?RTDACCESS
  +--> ?PR?_GOTOXY?GMIOSDFUNC
  +--> ?PR?_CSHOWNUMBER1?GMIOSDFUNC
  +--> ?PR?_OUTPUTCHAR?GMIOSDFUNC

?PR?_CSCALERGETDATAPORTBYTE?SCALER               0020H.3  0000H.1    -----    -----      -----    -----      FB96H    00
>> 06H
  +--> ?PR?_CSCALERSETBYTE?RTDACCESS
  +--> ?PR?_CSCALERREAD?RTDACCESS

?PR?_CSHOWNUMBER1?GMIOSDFUNC                     -----    -----      -----    -----      -----    -----      FB92H    00
>> 06H
BL51 BANKED LINKER/LOCATER V5.11                                                      10/05/2015  09:30:23  PAGE 52


  +--> ?PR?GMIOSDFUNC
  +--> ?PR?_CSCALERSENDADDR?RTDACCESS

?PR?_CSHOWVGAMODE?OSDMENUFUNC003                 -----    -----      -----    -----      -----    -----      -----    --
>> ---
  +--> ?PR?_GOTOXY?GMIOSDFUNC
  +--> ?PR?_OUTPUTCHAR?GMIOSDFUNC
  +--> ?PR?OSDMENUFUNC003
  +--> ?PR?_CSHOWNUMBER1?GMIOSDFUNC

?PR?DRAWSOURCEMENU?OSDMENUFUNC003                -----    -----      -----    -----      -----    -----      FB85H    00
>> 03H
  +--> ?PR?_GETSHOWCOUNT?OSDPROC003
  +--> ?PR?CMODERESETMODE?MODE
  +--> ?PR?CPOWERPANELON?POWER
  +--> ?PR?CPOWERLIGHTPOWERON?POWER
  +--> ?PR?INITOSDFRAME?OSDPROC003
  +--> ?PR?OSDMENUFUNC003
  +--> ?PR?_OSDCLEAR?GMIOSDFUNC
  +--> ?PR?_SETOSDDOUBLE?GMIOSDFUNC
  +--> ?PR?_OSDLINE?GMIOSDFUNC
  +--> ?PR?_DRAWSOURCEMENUITEM?OSDMENUFUNC003
  +--> ?PR?_COSDFXDRAWWINDOW?GMIOSDFUNC
  +--> ?PR?_OSDPOSITION?GMIOSDFUNC
  +--> ?PR?COSDFXENABLEOSD?GMIOSDFUNC

?PR?_DRAWSOURCEMENUITEM?OSDMENUFUNC003           -----    -----      -----    -----      -----    -----      FB88H    00
>> 05H
  +--> ?PR?_GETSHOWINDEX?OSDPROC003
  +--> ?PR?OSDMENUFUNC003
  +--> ?PR?_OSDLINE?GMIOSDFUNC
  +--> ?CO?OSDRES003
  +--> ?PR?_CTEXTOUTEX?GMIOSDFUNC

?PR?ENTERSCBRIGHT?OSDMENUFUNC003                 -----    -----      -----    -----      -----    -----      -----    --
>> ---
  +--> ?PR?DRAWSHORTCUTEMENU?OSDMENUFUNC003
  +--> ?PR?OSDMENUFUNC003
  +--> ?CO?OSDRES003
  +--> ?PR?_CCENTERTEXTOUT?GMIOSDFUNC
  +--> ?PR?_OSDSLIDER?OSDMENUFUNC003
  +--> ?PR?COSDFXENABLEOSD?GMIOSDFUNC

?PR?DRAWSHORTCUTEMENU?OSDMENUFUNC003             -----    -----      -----    -----      -----    -----      -----    --
>> ---
  +--> ?PR?INITOSDFRAME?OSDPROC003
  +--> ?PR?_SETOSDDOUBLE?GMIOSDFUNC
  +--> ?PR?OSDMENUFUNC003
  +--> ?PR?_OSDLINE?GMIOSDFUNC
  +--> ?PR?_COSDFXDRAWWINDOW?GMIOSDFUNC
  +--> ?PR?_CSETOSDPOSITION?OSDMENUFUNC003

?PR?_CCENTERTEXTOUT?GMIOSDFUNC                   -----    -----      -----    -----      -----    -----      FB85H    00
>> 07H
  +--> ?PR?GMIOSDFUNC
  +--> ?PR?_CCALCTEXTPIXCELLEN?GMIOSDFUNC
  +--> ?PR?_CTEXTOUTEX?GMIOSDFUNC
BL51 BANKED LINKER/LOCATER V5.11                                                      10/05/2015  09:30:23  PAGE 53



?PR?_CCALCTEXTPIXCELLEN?GMIOSDFUNC               -----    -----      -----    -----      -----    -----      FB8CH    00
>> 05H
  +--> ?PR?GMIOSDFUNC
  +--> ?PR?_GETCHARWDITH?GMIOSDFUNC

?PR?ENTERSCVOLUME?OSDMENUFUNC003                 -----    -----      -----    -----      -----    -----      -----    --
>> ---
  +--> ?PR?DRAWSHORTCUTEMENU?OSDMENUFUNC003
  +--> ?PR?OSDMENUFUNC003
  +--> ?CO?OSDRES003
  +--> ?PR?_CCENTERTEXTOUT?GMIOSDFUNC
  +--> ?PR?_OSDSLIDER?OSDMENUFUNC003
  +--> ?PR?COSDFXENABLEOSD?GMIOSDFUNC
  +--> ?PR?CSETVOLUME?FUNC

?PR?CSETVOLUME?FUNC                              -----    -----      -----    -----      -----    -----      -----    --
>> ---
  +--> ?PR?CMUTEON?FUNC
  +--> ?PR?CMUTEOFF?FUNC
  +--> ?PR?_CSETPWM?ADJUST

?PR?CSETMUTESTATE?OSDPROC003                     -----    -----      -----    -----      -----    -----      -----    --
>> ---
  +--> ?PR?CDRAWMUTESTATE?OSDPROC003
  +--> ?PR?CSETVOLUME?FUNC

?PR?CDRAWMUTESTATE?OSDPROC003                    -----    -----      -----    -----      -----    -----      -----    --
>> ---
  +--> ?PR?COSDFXDISABLEOSD?GMIOSDFUNC
  +--> ?PR?_SETOSDDOUBLE?GMIOSDFUNC
  +--> ?CO?OSDRES003
  +--> ?PR?_SETOSDMAP?GMIOSDFUNC
  +--> ?PR?_OSDCLEAR?GMIOSDFUNC
  +--> ?CO?GMIOSDFUNC
  +--> ?PR?_COSDFXCODEWRITE?GMIOSDFUNC
  +--> ?PR?_OSDPOSITION?GMIOSDFUNC
  +--> ?PR?_COSDLOAD1BITFONT?GMIOSDFUNC
  +--> ?PR?_GOTOXY?GMIOSDFUNC
  +--> ?PR?_OUTPUTCHAR?GMIOSDFUNC
  +--> ?PR?_COSDFXDRAWWINDOW?GMIOSDFUNC
  +--> ?PR?COSDFXENABLEOSD?GMIOSDFUNC
  +--> ?PR?COSDDISPOSDTIMEREVENT?OSDPROC003
  +--> ?PR?_CTIMERCANCELTIMEREVENT?TIMER
  +--> ?PR?_CTIMERREACTIVETIMEREVENT?TIMER

?PR?_COSDLOAD1BITFONT?GMIOSDFUNC                 -----    -----      -----    -----      -----    -----      FB86H    00
>> 09H
  +--> ?PR?_CSCALERLOADHARDWAREVLCFONT?RTDAC...
  +--> ?PR?GMIOSDFUNC
  +--> ?PR?_SETCHARWDITH?GMIOSDFUNC

?PR?CDISPLAYCURRENTSOURCEMESSAGE?OSDM...         -----    -----      -----    -----      -----    -----      FB85H    00
>> 03H
  +--> ?PR?COSDFXDISABLEOSD?GMIOSDFUNC
  +--> ?CO?OSDRES003
  +--> ?PR?_SETOSDMAP?GMIOSDFUNC
BL51 BANKED LINKER/LOCATER V5.11                                                      10/05/2015  09:30:23  PAGE 54


  +--> ?CO?GMIOSDFUNC
  +--> ?PR?_COSDFXCODEWRITE?GMIOSDFUNC
  +--> ?PR?OSDMENUFUNC003
  +--> ?PR?_OSDCLEAR?GMIOSDFUNC
  +--> ?PR?_SETOSDDOUBLE?GMIOSDFUNC
  +--> ?PR?_OSDPOSITION?GMIOSDFUNC
  +--> ?PR?_CSHOWNUMBER?GMIOSDFUNC
  +--> ?PR?_CTEXTOUTEX?GMIOSDFUNC
  +--> ?PR?_CSHOWMODE?OSDMENUFUNC003
  +--> ?PR?COSDDISPOSDTIMEREVENT?OSDPROC003
  +--> ?PR?_CTIMERREACTIVETIMEREVENT?TIMER
  +--> ?PR?COSDFXENABLEOSD?GMIOSDFUNC

?PR?MMAINMENUPROC?OSDMENUFUNC003                 -----    -----      -----    -----      -----    -----      -----    --
>> ---
  +--> ?PR?_MMAINMENUVALUEADJ?OSDMENUFUNC003
  +--> ?PR?_MMAINMENUMENUADJ?OSDMENUFUNC003
  +--> ?PR?MMAINMENUENTERSUBMENU?OSDMENUFUNC003
  +--> ?PR?MMAINMENURETURNUPMENU?OSDMENUFUNC003

?PR?_MMAINMENUMENUADJ?OSDMENUFUNC003             -----    -----      -----    -----      -----    -----      FB85H    00
>> 01H
  +--> ?PR?_ADJUSTMENUITEM?OSDPROC003
  +--> ?PR?OSDMENUFUNC003
  +--> ?PR?_DRAWMAINMENUITEM?OSDMENUFUNC003
  +--> ?PR?MAINMENUITEMCHGCLEAR?OSDMENUFUNC003
  +--> ?PR?_LOADCHIFONT?OSDPROC003
  +--> ?CO?OSDRES003
  +--> ?PR?_COSDLOAD1BITFONT?GMIOSDFUNC
  +--> ?PR?_DRAWMAINITEMTITLE?OSDMENUFUNC003
  +--> ?PR?_DRAWSUBMENU?OSDMENUFUNC003

?PR?_ADJUSTMENUITEM?OSDPROC003                   -----    -----      -----    -----      -----    -----      FB86H    00
>> 06H
  +--> ?PR?_VALUEINRANGECHANGE?GMIOSDFUNC

?PR?_VALUEINRANGECHANGE?GMIOSDFUNC               -----    -----      -----    -----      -----    -----      FB8CH    00
>> 09H
  +--> ?PR?GMIOSDFUNC

?PR?MAINMENUITEMCHGCLEAR?OSDMENUFUNC003          -----    -----      -----    -----      -----    -----      FB86H    00
>> 01H
  +--> ?PR?OSDMENUFUNC003
  +--> ?PR?_OSDCLEAR?GMIOSDFUNC
  +--> ?PR?_OSDLINE?GMIOSDFUNC

?PR?MMAINMENUENTERSUBMENU?OSDMENUFUNC003         -----    -----      -----    -----      -----    -----      -----    --
>> ---
  +--> ?PR?_DRAWCOLORPAGEMENUITEM?OSDMENUFUN...
  +--> ?PR?_DRAWADJUSTPAGEMENUITEM?OSDMENUFU...
  +--> ?PR?_DRAWOSDPAGEMENUITEM?OSDMENUFUNC003
  +--> ?PR?OSDMENUFUNC003
  +--> ?PR?_DRAWTVPAGEMENUITEM?OSDMENUFUNC003
  +--> ?PR?_DRAWFUNCPAGEMENUITEM?OSDMENUFUNC003
  +--> ?PR?_DRAWSOUNDPAGEMENUITEM?OSDMENUFUN...

?PR?MMAINMENURETURNUPMENU?OSDMENUFUNC003         -----    -----      -----    -----      -----    -----      -----    --
BL51 BANKED LINKER/LOCATER V5.11                                                      10/05/2015  09:30:23  PAGE 55


>> ---
  +--> ?PR?COSDDISPOSDTIMEREVENT?OSDPROC003

?PR?MCOLORPROC?OSDMENUFUNC003                    -----    -----      -----    -----      -----    -----      -----    --
>> ---
  +--> ?PR?_MCOLORVALUEADJ?OSDMENUFUNC003
  +--> ?PR?_MCOLORMENUADJ?OSDMENUFUNC003
  +--> ?PR?MCOLORENTERSUBMENU?OSDMENUFUNC003
  +--> ?PR?MCOLORRETURNUPMENU?OSDMENUFUNC003

?PR?_MCOLORVALUEADJ?OSDMENUFUNC003               -----    -----      -----    -----      -----    -----      FB85H    00
>> 01H
  +--> ?PR?_BRIGHTADJUST?OSDMENUFUNC003
  +--> ?PR?_CONTRASTADJUST?OSDMENUFUNC003
  +--> ?PR?_HUEADJUST?OSDMENUFUNC003
  +--> ?PR?_SATURATIONADJUST?OSDMENUFUNC003
  +--> ?PR?ENTERCOLORTEMPMENU?OSDMENUFUNC003

?PR?_BRIGHTADJUST?OSDMENUFUNC003                 -----    -----      -----    -----      -----    -----      -----    --
>> ---
  +--> ?PR?OSDMENUFUNC003
  +--> ?PR?_VALUEINRANGECHANGE?GMIOSDFUNC
  +--> ?PR?CADJUSTBRIGHTNESS?ADJUST_CUSTOMER
  +--> ?PR?_GETSHOWINDEX?OSDPROC003
  +--> ?PR?_OSDSLIDER?OSDMENUFUNC003

?PR?_CONTRASTADJUST?OSDMENUFUNC003               -----    -----      -----    -----      -----    -----      -----    --
>> ---
  +--> ?PR?OSDMENUFUNC003
  +--> ?PR?_VALUEINRANGECHANGE?GMIOSDFUNC
  +--> ?PR?CADJUSTCONTRAST?ADJUST_CUSTOMER
  +--> ?PR?_GETSHOWINDEX?OSDPROC003
  +--> ?PR?_OSDSLIDER?OSDMENUFUNC003

?PR?_HUEADJUST?OSDMENUFUNC003                    -----    -----      -----    -----      -----    -----      -----    --
>> ---
  +--> ?PR?OSDMENUFUNC003
  +--> ?PR?_VALUEINRANGECHANGE?GMIOSDFUNC
  +--> ?PR?BSOURCEVIDEO?SOURCE
  +--> ?PR?_GMI_CADJUSTVDCHUE?RTD2662
  +--> ?PR?_CADJUSTYPBPRHUE?ADJUST_CUSTOMER
  +--> ?PR?_GETSHOWINDEX?OSDPROC003
  +--> ?PR?_OSDSLIDER?OSDMENUFUNC003

?PR?_GMI_CADJUSTVDCHUE?RTD2662                   -----    -----      -----    -----      -----    -----      FB89H    00
>> 02H
  +--> ?PR?CGMIFUNC?GMIBASE
  +--> ?PR?_CSCALERPAGESELECT?RTDACCESS
  +--> ?PR?_CSCALERSETBYTE?RTDACCESS

?PR?_CADJUSTYPBPRHUE?ADJUST_CUSTOMER             -----    -----      -----    -----      -----    -----      -----    --
>> ---
  +--> ?PR?_CADJUSTSATURATIONHUE?ADJUST_CUST...

?PR?_CADJUSTSATURATIONHUE?ADJUST_CUST...         0020H.3  0000H.1    -----    -----      -----    -----      FB91H    00
>> 28H
  +--> ?PR?ADJUST_CUSTOMER
BL51 BANKED LINKER/LOCATER V5.11                                                      10/05/2015  09:30:23  PAGE 56


  +--> ?CO?ADJUST_CUSTOMER
  +--> ?PR?_CADJUSTCOSINE?ADJUST_CUSTOMER
  +--> ?PR?_CADJUSTSINE?ADJUST_CUSTOMER
  +--> ?PR?_CADJUSTMATRIXMULTIPLY?ADJUST_CUS...
  +--> ?PR?CADJUSTSETYPBPRRHUE?ADJUST
  +--> ?PR?CADJUSTSETYPBPRGHUE?ADJUST
  +--> ?PR?CADJUSTSETYPBPRBHUE?ADJUST
  +--> ?PR?_CSCALERSETBIT?RTDACCESS

?PR?ADJUST_CUSTOMER                              -----    -----      -----    -----      -----    -----      -----    --
>> ---
  +--> ?CO?ADJUST_CUSTOMER

?PR?_CADJUSTCOSINE?ADJUST_CUSTOMER               -----    -----      -----    -----      -----    -----      FBB9H    00
>> 08H
  +--> ?PR?ADJUST_CUSTOMER
  +--> ?CO?ADJUST_CUSTOMER

?PR?_CADJUSTSINE?ADJUST_CUSTOMER                 -----    -----      -----    -----      -----    -----      FBB9H    00
>> 08H
  +--> ?PR?ADJUST_CUSTOMER
  +--> ?CO?ADJUST_CUSTOMER

?PR?_CADJUSTMATRIXMULTIPLY?ADJUST_CUS...         -----    -----      -----    -----      -----    -----      FBB9H    00
>> 2FH
  +--> ?PR?ADJUST_CUSTOMER

?PR?CADJUSTSETYPBPRRHUE?ADJUST                   -----    -----      -----    -----      -----    -----      -----    --
>> ---
  +--> ?PR?_CSCALERSETBIT?RTDACCESS
  +--> ?PR?ADJUST
  +--> ?PR?_CSCALERWRITE?RTDACCESS

?PR?CADJUSTSETYPBPRGHUE?ADJUST                   -----    -----      -----    -----      -----    -----      -----    --
>> ---
  +--> ?PR?_CSCALERSETBIT?RTDACCESS
  +--> ?PR?ADJUST
  +--> ?PR?_CSCALERWRITE?RTDACCESS

?PR?CADJUSTSETYPBPRBHUE?ADJUST                   -----    -----      -----    -----      -----    -----      -----    --
>> ---
  +--> ?PR?_CSCALERSETBIT?RTDACCESS
  +--> ?PR?ADJUST
  +--> ?PR?_CSCALERWRITE?RTDACCESS

?PR?_SATURATIONADJUST?OSDMENUFUNC003             -----    -----      -----    -----      -----    -----      -----    --
>> ---
  +--> ?PR?OSDMENUFUNC003
  +--> ?PR?_VALUEINRANGECHANGE?GMIOSDFUNC
  +--> ?PR?BSOURCEVIDEO?SOURCE
  +--> ?PR?_CVIDEOSETSATURATION?ADJUST_CUSTOMER
  +--> ?PR?_CADJUSTYPBPRSATURATION?ADJUST_CU...
  +--> ?PR?_GETSHOWINDEX?OSDPROC003
  +--> ?PR?_OSDSLIDER?OSDMENUFUNC003

?PR?_CVIDEOSETSATURATION?ADJUST_CUSTOMER         -----    -----      -----    -----      -----    -----      FB89H    00
>> 01H
BL51 BANKED LINKER/LOCATER V5.11                                                      10/05/2015  09:30:23  PAGE 57


  +--> ?PR?ADJUST_CUSTOMER
  +--> ?PR?_CVIDEOSETVDCSATURATION?VIDEO

?PR?_CVIDEOSETVDCSATURATION?VIDEO                -----    -----      -----    -----      -----    -----      FB9AH    00
>> 01H
  +--> ?PR?_CSCALERPAGESELECT?RTDACCESS
  +--> ?PR?_CSCALERSETBYTE?RTDACCESS

?PR?_CADJUSTYPBPRSATURATION?ADJUST_CU...         -----    -----      -----    -----      -----    -----      FB89H    00
>> 04H
  +--> ?PR?_CSCALERPAGESELECT?RTDACCESS
  +--> ?PR?ADJUST_CUSTOMER
  +--> ?PR?_CSCALERSETBYTE?RTDACCESS
  +--> ?PR?_CADJUSTSATURATIONHUE?ADJUST_CUST...

?PR?ENTERCOLORTEMPMENU?OSDMENUFUNC003            -----    -----      -----    -----      -----    -----      FB86H    00
>> 02H
  +--> ?PR?_CREATEPOPUPMENU?OSDMENUFUNC003
  +--> ?PR?OSDMENUFUNC003
  +--> ?PR?_DRAWCOLORTEMPMENUITEM?OSDMENUFUN...

?PR?_CREATEPOPUPMENU?OSDMENUFUNC003              -----    -----      -----    -----      -----    -----      FB88H    00
>> 0BH
  +--> ?PR?OSDMENUFUNC003
  +--> ?PR?_OSDLINE?GMIOSDFUNC
  +--> ?CO?OSDRES003
  +--> ?PR?_COSDFXDRAWWINDOW?GMIOSDFUNC

?PR?_DRAWCOLORTEMPMENUITEM?OSDMENUFUN...         -----    -----      -----    -----      -----    -----      FB88H    00
>> 05H
  +--> ?PR?OSDMENUFUNC003
  +--> ?PR?_GETSHOWINDEX?OSDPROC003
  +--> ?CO?OSDRES003
  +--> ?PR?_DRAWAPOPUPMENUITEM1?OSDMENUFUNC003

?PR?_DRAWAPOPUPMENUITEM1?OSDMENUFUNC003          -----    -----      -----    -----      -----    -----      FB8DH    00
>> 08H
  +--> ?PR?OSDMENUFUNC003
  +--> ?PR?_OSDLINE?GMIOSDFUNC
  +--> ?PR?_GOTOXY?GMIOSDFUNC
  +--> ?PR?_OUTPUTCHAR?GMIOSDFUNC
  +--> ?PR?_CTEXTOUTEX?GMIOSDFUNC

?PR?_MCOLORMENUADJ?OSDMENUFUNC003                -----    -----      -----    -----      -----    -----      FB85H    00
>> 01H
  +--> ?PR?_ADJUSTMENUITEM?OSDPROC003
  +--> ?PR?OSDMENUFUNC003
  +--> ?PR?_DRAWCOLORPAGEMENUITEM?OSDMENUFUN...

?PR?MCOLORENTERSUBMENU?OSDMENUFUNC003            -----    -----      -----    -----      -----    -----      -----    --
>> ---
  +--> ?PR?_DRAWBRIGHT?OSDMENUFUNC003
  +--> ?PR?_DRAWCONTRAST?OSDMENUFUNC003
  +--> ?PR?_DRAWHUE?OSDMENUFUNC003
  +--> ?PR?_DRAWSATURATION?OSDMENUFUNC003
  +--> ?PR?_DRAWCOLORTEMP?OSDMENUFUNC003
  +--> ?PR?ENTERCOLORTEMPMENU?OSDMENUFUNC003
BL51 BANKED LINKER/LOCATER V5.11                                                      10/05/2015  09:30:23  PAGE 58



?PR?MCOLORRETURNUPMENU?OSDMENUFUNC003            -----    -----      -----    -----      -----    -----      -----    --
>> ---
  +--> ?PR?OSDMENUFUNC003
  +--> ?PR?_DRAWCOLORPAGEMENUITEM?OSDMENUFUN...

?PR?CVIDEONTSCENABLE?OSDMENUFUNC003              -----    -----      -----    -----      -----    -----      -----    --
>> ---
  +--> ?PR?BSOURCEVIDEO?SOURCE

?PR?CVIDEOENABLE?OSDMENUFUNC003                  -----    -----      -----    -----      -----    -----      -----    --
>> ---
  +--> ?PR?BSOURCEVIDEO?SOURCE

?PR?MBRIGHTNESSPROC?OSDMENUFUNC003               -----    -----      -----    -----      -----    -----      -----    --
>> ---
  +--> ?PR?_MBRIGHTNESSVALUEADJ?OSDMENUFUNC003
  +--> ?PR?MBRIGHTNESSRETURNUPMENU?OSDMENUFU...
  +--> ?PR?_MCOLORMENUADJ?OSDMENUFUNC003
  +--> ?PR?MCOLORENTERSUBMENU?OSDMENUFUNC003

?PR?_MBRIGHTNESSVALUEADJ?OSDMENUFUNC003          -----    -----      -----    -----      -----    -----      -----    --
>> ---
  +--> ?PR?_BRIGHTADJUST?OSDMENUFUNC003

?PR?MBRIGHTNESSRETURNUPMENU?OSDMENUFU...         -----    -----      -----    -----      -----    -----      -----    --
>> ---
  +--> ?PR?_DRAWBRIGHT?OSDMENUFUNC003

?PR?MCONTRASTPROC?OSDMENUFUNC003                 -----    -----      -----    -----      -----    -----      -----    --
>> ---
  +--> ?PR?_MCONTRASTVALUEADJ?OSDMENUFUNC003
  +--> ?PR?MCONTRASTRETURNUPMENU?OSDMENUFUNC003
  +--> ?PR?_MCOLORMENUADJ?OSDMENUFUNC003
  +--> ?PR?MCOLORENTERSUBMENU?OSDMENUFUNC003

?PR?_MCONTRASTVALUEADJ?OSDMENUFUNC003            -----    -----      -----    -----      -----    -----      -----    --
>> ---
  +--> ?PR?_CONTRASTADJUST?OSDMENUFUNC003

?PR?MCONTRASTRETURNUPMENU?OSDMENUFUNC003         -----    -----      -----    -----      -----    -----      -----    --
>> ---
  +--> ?PR?_DRAWCONTRAST?OSDMENUFUNC003

?PR?MHUEPROC?OSDMENUFUNC003                      -----    -----      -----    -----      -----    -----      -----    --
>> ---
  +--> ?PR?_MHUEVALUEADJ?OSDMENUFUNC003
  +--> ?PR?MHUERETURNUPMENU?OSDMENUFUNC003
  +--> ?PR?_MCOLORMENUADJ?OSDMENUFUNC003
  +--> ?PR?MCOLORENTERSUBMENU?OSDMENUFUNC003

?PR?_MHUEVALUEADJ?OSDMENUFUNC003                 -----    -----      -----    -----      -----    -----      -----    --
>> ---
  +--> ?PR?_HUEADJUST?OSDMENUFUNC003

?PR?MHUERETURNUPMENU?OSDMENUFUNC003              -----    -----      -----    -----      -----    -----      -----    --
>> ---
BL51 BANKED LINKER/LOCATER V5.11                                                      10/05/2015  09:30:23  PAGE 59


  +--> ?PR?_DRAWHUE?OSDMENUFUNC003

?PR?MSATURATIONPROC?OSDMENUFUNC003               -----    -----      -----    -----      -----    -----      -----    --
>> ---
  +--> ?PR?_MSATURATIONVALUEADJ?OSDMENUFUNC003
  +--> ?PR?MSATURATIONRETURNUPMENU?OSDMENUFU...
  +--> ?PR?_MCOLORMENUADJ?OSDMENUFUNC003
  +--> ?PR?MCOLORENTERSUBMENU?OSDMENUFUNC003

?PR?_MSATURATIONVALUEADJ?OSDMENUFUNC003          -----    -----      -----    -----      -----    -----      -----    --
>> ---
  +--> ?PR?_SATURATIONADJUST?OSDMENUFUNC003

?PR?MSATURATIONRETURNUPMENU?OSDMENUFU...         -----    -----      -----    -----      -----    -----      -----    --
>> ---
  +--> ?PR?_DRAWSATURATION?OSDMENUFUNC003

?PR?MCOLORTEMPPROC?OSDMENUFUNC003                -----    -----      -----    -----      -----    -----      -----    --
>> ---
  +--> ?PR?_MCOLORTEMPMENUADJ?OSDMENUFUNC003
  +--> ?PR?MCOLORTEMPENTERSUBMENU?OSDMENUFUN...
  +--> ?PR?MCOLORTEMPRETURNUPMENU?OSDMENUFUN...

?PR?_MCOLORTEMPMENUADJ?OSDMENUFUNC003            -----    -----      -----    -----      -----    -----      FB85H    00
>> 01H
  +--> ?PR?_ADJUSTMENUITEM?OSDPROC003
  +--> ?PR?OSDMENUFUNC003
  +--> ?PR?_DRAWCOLORTEMPMENUITEM?OSDMENUFUN...
  +--> ?PR?CEEPROMLOADCOLORTEMPDATA?EEPROM
  +--> ?PR?CADJUSTCONTRAST?ADJUST_CUSTOMER

?PR?MCOLORTEMPENTERSUBMENU?OSDMENUFUN...         -----    -----      -----    -----      -----    -----      -----    --
>> ---
  +--> ?PR?OSDMENUFUNC003
  +--> ?PR?ENTERCOLORTEMPUSERMENU?OSDMENUFUN...
  +--> ?PR?MCOLORTEMPRETURNUPMENU?OSDMENUFUN...

?PR?ENTERCOLORTEMPUSERMENU?OSDMENUFUN...         -----    -----      -----    -----      -----    -----      FB85H    00
>> 02H
  +--> ?PR?_CREATEPOPUPMENU?OSDMENUFUNC003
  +--> ?PR?OSDMENUFUNC003
  +--> ?PR?_GOTOXY?GMIOSDFUNC
  +--> ?PR?_OUTPUTCHAR?GMIOSDFUNC
  +--> ?PR?_OSDLINE?GMIOSDFUNC
  +--> ?PR?_DRAWCOLORUSERMENUITEM?OSDMENUFUN...

?PR?_DRAWCOLORUSERMENUITEM?OSDMENUFUN...         -----    -----      -----    -----      -----    -----      FB87H    00
>> 03H
  +--> ?PR?_STATECOLOR?OSDMENUFUNC003
  +--> ?PR?_OSDSLIDER?OSDMENUFUNC003

?PR?MCOLORTEMPRETURNUPMENU?OSDMENUFUN...         -----    -----      -----    -----      -----    -----      -----    --
>> ---
  +--> ?PR?CLEARCOLORTEMPMENU?OSDMENUFUNC003
  +--> ?PR?DRAWCOLORPAGE?OSDMENUFUNC003

?PR?CLEARCOLORTEMPMENU?OSDMENUFUNC003            -----    -----      -----    -----      -----    -----      -----    --
BL51 BANKED LINKER/LOCATER V5.11                                                      10/05/2015  09:30:23  PAGE 60


>> ---
  +--> ?PR?_CLEARPOPUPMENU?OSDMENUFUNC003

?PR?_CLEARPOPUPMENU?OSDMENUFUNC003               -----    -----      -----    -----      -----    -----      FB86H    00
>> 05H
  +--> ?PR?OSDMENUFUNC003
  +--> ?PR?_OSDLINE?GMIOSDFUNC
  +--> ?PR?_COSDFXCLOSEWINDOW?GMIOSDFUNC

?PR?_COSDFXCLOSEWINDOW?GMIOSDFUNC                -----    -----      -----    -----      -----    -----      -----    --
>> ---
  +--> ?PR?GMIOSDFUNC
  +--> ?PR?_CSCALERWRITE?RTDACCESS

?PR?MCOLORUSERPROC?OSDMENUFUNC003                -----    -----      -----    -----      -----    -----      -----    --
>> ---
  +--> ?PR?_MCOLORUSERVALUEADJ?OSDMENUFUNC003
  +--> ?PR?_MCOLORUSERMENUADJ?OSDMENUFUNC003
  +--> ?PR?MCOLORUSERENTERSUBMENU?OSDMENUFUN...
  +--> ?PR?MCOLORUSERRETURNUPMENU?OSDMENUFUN...

?PR?_MCOLORUSERVALUEADJ?OSDMENUFUNC003           -----    -----      -----    -----      -----    -----      FB85H    00
>> 01H
  +--> ?PR?_COLORRADJUST?OSDMENUFUNC003
  +--> ?PR?_COLORGADJUST?OSDMENUFUNC003
  +--> ?PR?_COLORBADJUST?OSDMENUFUNC003
  +--> ?PR?OSDMENUFUNC003
  +--> ?PR?_DRAWCOLORUSERMENUITEM?OSDMENUFUN...
  +--> ?PR?CADJUSTCONTRAST?ADJUST_CUSTOMER

?PR?_COLORRADJUST?OSDMENUFUNC003                 -----    -----      -----    -----      -----    -----      -----    --
>> ---
  +--> ?PR?OSDMENUFUNC003
  +--> ?PR?_VALUEINRANGECHANGE?GMIOSDFUNC
  +--> ?PR?_DRAWCOLORUSERMENUITEM?OSDMENUFUN...

?PR?_COLORGADJUST?OSDMENUFUNC003                 -----    -----      -----    -----      -----    -----      -----    --
>> ---
  +--> ?PR?OSDMENUFUNC003
  +--> ?PR?_VALUEINRANGECHANGE?GMIOSDFUNC
  +--> ?PR?_DRAWCOLORUSERMENUITEM?OSDMENUFUN...

?PR?_COLORBADJUST?OSDMENUFUNC003                 -----    -----      -----    -----      -----    -----      -----    --
>> ---
  +--> ?PR?OSDMENUFUNC003
  +--> ?PR?_VALUEINRANGECHANGE?GMIOSDFUNC
  +--> ?PR?_DRAWCOLORUSERMENUITEM?OSDMENUFUN...

?PR?_MCOLORUSERMENUADJ?OSDMENUFUNC003            -----    -----      -----    -----      -----    -----      FB85H    00
>> 01H
  +--> ?PR?_ADJUSTMENUITEM?OSDPROC003
  +--> ?PR?OSDMENUFUNC003
  +--> ?PR?_DRAWCOLORUSERMENUITEM?OSDMENUFUN...

?PR?MCOLORUSERENTERSUBMENU?OSDMENUFUN...         -----    -----      -----    -----      -----    -----      -----    --
>> ---
  +--> ?PR?_DRAWCOLORUSERMENUITEM?OSDMENUFUN...
BL51 BANKED LINKER/LOCATER V5.11                                                      10/05/2015  09:30:23  PAGE 61



?PR?MCOLORUSERRETURNUPMENU?OSDMENUFUN...         -----    -----      -----    -----      -----    -----      -----    --
>> ---
  +--> ?PR?CLEARCOLORUSERMENU?OSDMENUFUNC003
  +--> ?PR?ENTERCOLORTEMPMENU?OSDMENUFUNC003

?PR?CLEARCOLORUSERMENU?OSDMENUFUNC003            -----    -----      -----    -----      -----    -----      -----    --
>> ---
  +--> ?PR?_CLEARPOPUPMENU?OSDMENUFUNC003

?PR?MRPROC?OSDMENUFUNC003                        -----    -----      -----    -----      -----    -----      -----    --
>> ---
  +--> ?PR?_MRVALUEADJ?OSDMENUFUNC003
  +--> ?PR?MRRETURNUPMENU?OSDMENUFUNC003
  +--> ?PR?_MCOLORUSERMENUADJ?OSDMENUFUNC003

?PR?_MRVALUEADJ?OSDMENUFUNC003                   -----    -----      -----    -----      -----    -----      -----    --
>> ---
  +--> ?PR?_COLORRADJUST?OSDMENUFUNC003
  +--> ?PR?CADJUSTCONTRAST?ADJUST_CUSTOMER

?PR?MRRETURNUPMENU?OSDMENUFUNC003                -----    -----      -----    -----      -----    -----      -----    --
>> ---
  +--> ?PR?_DRAWCOLORUSERMENUITEM?OSDMENUFUN...

?PR?MGPROC?OSDMENUFUNC003                        -----    -----      -----    -----      -----    -----      -----    --
>> ---
  +--> ?PR?_MGVALUEADJ?OSDMENUFUNC003
  +--> ?PR?MGRETURNUPMENU?OSDMENUFUNC003
  +--> ?PR?_MCOLORUSERMENUADJ?OSDMENUFUNC003

?PR?_MGVALUEADJ?OSDMENUFUNC003                   -----    -----      -----    -----      -----    -----      -----    --
>> ---
  +--> ?PR?_COLORGADJUST?OSDMENUFUNC003
  +--> ?PR?CADJUSTCONTRAST?ADJUST_CUSTOMER

?PR?MGRETURNUPMENU?OSDMENUFUNC003                -----    -----      -----    -----      -----    -----      -----    --
>> ---
  +--> ?PR?_DRAWCOLORUSERMENUITEM?OSDMENUFUN...

?PR?MBPROC?OSDMENUFUNC003                        -----    -----      -----    -----      -----    -----      -----    --
>> ---
  +--> ?PR?_MBVALUEADJ?OSDMENUFUNC003
  +--> ?PR?MBRETURNUPMENU?OSDMENUFUNC003
  +--> ?PR?_MCOLORUSERMENUADJ?OSDMENUFUNC003

?PR?_MBVALUEADJ?OSDMENUFUNC003                   -----    -----      -----    -----      -----    -----      -----    --
>> ---
  +--> ?PR?_COLORBADJUST?OSDMENUFUNC003
  +--> ?PR?CADJUSTCONTRAST?ADJUST_CUSTOMER

?PR?MBRETURNUPMENU?OSDMENUFUNC003                -----    -----      -----    -----      -----    -----      -----    --
>> ---
  +--> ?PR?_DRAWCOLORUSERMENUITEM?OSDMENUFUN...

?PR?MADJUSTPROC?OSDMENUFUNC003                   -----    -----      -----    -----      -----    -----      -----    --
>> ---
BL51 BANKED LINKER/LOCATER V5.11                                                      10/05/2015  09:30:23  PAGE 62


  +--> ?PR?_MADJUSTVALUEADJ?OSDMENUFUNC003
  +--> ?PR?_MADJUSTMENUADJ?OSDMENUFUNC003
  +--> ?PR?MADJUSTENTERSUBMENU?OSDMENUFUNC003
  +--> ?PR?MADJUSTRETURNUPMENU?OSDMENUFUNC003

?PR?_MADJUSTVALUEADJ?OSDMENUFUNC003              -----    -----      -----    -----      -----    -----      FB85H    00
>> 01H
  +--> ?PR?ENTERAUTOCONFIGMENU?OSDMENUFUNC003
  +--> ?PR?_HPOSITIONADJUST?OSDMENUFUNC003
  +--> ?PR?_VPOSITIONADJUST?OSDMENUFUNC003
  +--> ?PR?_PHASEADJUST?OSDMENUFUNC003
  +--> ?PR?_CLOCKADJUST?OSDMENUFUNC003

?PR?ENTERAUTOCONFIGMENU?OSDMENUFUNC003           -----    -----      -----    -----      -----    -----      -----    --
>> ---
  +--> ?PR?_CREATEPOPUPMENU?OSDMENUFUNC003
  +--> ?PR?_DRAWAUTOCONFIGMENUITEM?OSDMENUFU...

?PR?_DRAWAUTOCONFIGMENUITEM?OSDMENUFU...         -----    -----      -----    -----      -----    -----      FB86H    00
>> 06H
  +--> ?PR?OSDMENUFUNC003
  +--> ?PR?_GETSHOWINDEX?OSDPROC003
  +--> ?PR?_DRAWAPOPUPMENUITEM?OSDMENUFUNC003

?PR?_DRAWAPOPUPMENUITEM?OSDMENUFUNC003           -----    -----      -----    -----      -----    -----      FB8EH    00
>> 08H
  +--> ?PR?OSDMENUFUNC003
  +--> ?PR?_OSDLINE?GMIOSDFUNC
  +--> ?PR?_GOTOXY?GMIOSDFUNC
  +--> ?PR?_OUTPUTCHAR?GMIOSDFUNC
  +--> ?PR?_CTEXTOUTEX?GMIOSDFUNC

?PR?_HPOSITIONADJUST?OSDMENUFUNC003              -----    -----      -----    -----      -----    -----      FB86H    00
>> 02H
  +--> ?PR?OSDMENUFUNC003
  +--> ?PR?_ABS?ABS
  +--> ?PR?_VALUEINRANGECHANGE?GMIOSDFUNC
  +--> ?PR?CADJUSTHPOSITION?ADJUST
  +--> ?PR?_GETSHOWINDEX?OSDPROC003
  +--> ?PR?COSDCTRLGETHPOSITION?GMIOSDFUNC
  +--> ?PR?_OSDSLIDER?OSDMENUFUNC003

?PR?CADJUSTHPOSITION?ADJUST                      -----    -----      -----    -----      -----    -----      -----    --
>> ---
  +--> ?PR?_CADJUSTPHASE?ADJUST

?PR?_CADJUSTPHASE?ADJUST                         -----    -----      -----    -----      -----    -----      FB9FH    00
>> 03H
  +--> ?PR?_CADJUSTENABLEWATCHDOG?ADJUST
  +--> ?PR?ADJUST
  +--> ?PR?_CSCALERPAGESELECT?RTDACCESS
  +--> ?PR?_CSCALERSETBIT?RTDACCESS
  +--> ?PR?_CADJUSTIHSDELAY?ADJUST
  +--> ?PR?CMISCAPPLYDOUBLEBUFFER?MISC
  +--> ?PR?CMISCCLEARSTATUSREGISTER?MISC

?PR?_CADJUSTENABLEWATCHDOG?ADJUST                -----    -----      -----    -----      -----    -----      FBB6H    00
BL51 BANKED LINKER/LOCATER V5.11                                                      10/05/2015  09:30:23  PAGE 63


>> 01H
  +--> ?PR?BCNOCHECKSYNCMODE?SYNC
  +--> ?PR?_CSCALERSETBYTE?RTDACCESS
  +--> ?PR?CMISCCLEARSTATUSREGISTER?MISC
  +--> ?PR?_CSCALERSETBIT?RTDACCESS

?PR?_CADJUSTIHSDELAY?ADJUST                      -----    -----      -----    -----      -----    -----      FBA2H    00
>> 02H
  +--> ?PR?_CSCALERSETBIT?RTDACCESS
  +--> ?PR?_CSCALERSETBYTE?RTDACCESS

?PR?CMISCAPPLYDOUBLEBUFFER?MISC                  -----    -----      -----    -----      -----    -----      FBA2H    00
>> 01H
  +--> ?PR?_CSCALERGETBIT?RTDACCESS
  +--> ?PR?_CSCALERSETBIT?RTDACCESS
  +--> ?PR?_CTIMERDELAYXMS?TIMER
  +--> ?PR?CMISCAPPLYDOUBLEBUFFERPOLLINGEVEN...

?PR?CMISCAPPLYDOUBLEBUFFERPOLLINGEVEN...         -----    -----      -----    -----      -----    -----      -----    --
>> ---
  +--> ?PR?_CSCALERGETBIT?RTDACCESS

?PR?_VPOSITIONADJUST?OSDMENUFUNC003              -----    -----      -----    -----      -----    -----      FB86H    00
>> 02H
  +--> ?PR?OSDMENUFUNC003
  +--> ?PR?_VALUEINRANGECHANGE?GMIOSDFUNC
  +--> ?PR?CADJUSTVPOSITION?ADJUST
  +--> ?PR?_GETSHOWINDEX?OSDPROC003
  +--> ?PR?COSDCTRLGETVPOSITION?GMIOSDFUNC
  +--> ?PR?_OSDSLIDER?OSDMENUFUNC003
  +--> ?PR?_ABS?ABS

?PR?CADJUSTVPOSITION?ADJUST                      -----    -----      -----    -----      -----    -----      -----    --
>> ---
  +--> ?PR?_CADJUSTENABLEWATCHDOG?ADJUST
  +--> ?PR?ADJUST
  +--> ?PR?_CADJUSTIVSDELAY?ADJUST
  +--> ?PR?CMISCAPPLYDOUBLEBUFFER?MISC
  +--> ?PR?_CTIMERWAITFOREVENT?TIMER
  +--> ?PR?CMISCCLEARSTATUSREGISTER?MISC

?PR?_CADJUSTIVSDELAY?ADJUST                      -----    -----      -----    -----      -----    -----      FB92H    00
>> 02H
  +--> ?PR?_CSCALERSETBIT?RTDACCESS
  +--> ?PR?_CSCALERSETBYTE?RTDACCESS

?PR?_PHASEADJUST?OSDMENUFUNC003                  -----    -----      -----    -----      -----    -----      -----    --
>> ---
  +--> ?PR?OSDMENUFUNC003
  +--> ?PR?_VALUEINRANGECHANGE?GMIOSDFUNC
  +--> ?PR?_CADJUSTPHASE?ADJUST
  +--> ?PR?_GETSHOWINDEX?OSDPROC003
  +--> ?PR?_OSDSLIDER?OSDMENUFUNC003

?PR?_CLOCKADJUST?OSDMENUFUNC003                  -----    -----      -----    -----      -----    -----      FB86H    00
>> 02H
  +--> ?PR?OSDMENUFUNC003
BL51 BANKED LINKER/LOCATER V5.11                                                      10/05/2015  09:30:23  PAGE 64


  +--> ?PR?_COSDFXGETADCCLOCKRANGE?GMIOSDFUNC
  +--> ?PR?_VALUEINRANGECHANGE?GMIOSDFUNC
  +--> ?PR?_CADJUSTADCCLOCK?ADJUST
  +--> ?PR?_GETSHOWINDEX?OSDPROC003
  +--> ?PR?COSDCTRLGETCLOCK?GMIOSDFUNC
  +--> ?PR?_OSDSLIDER?OSDMENUFUNC003

?PR?_CADJUSTADCCLOCK?ADJUST                      -----    -----      -----    -----      -----    -----      FB98H    00
>> 10H
  +--> ?PR?ADJUST
  +--> ?PR?_CADJUSTAPLLFASTLOCK?ADJUST
  +--> ?PR?_CADJUSTADCCLOCK_OSD?ADJUST
  +--> ?PR?_CADJUSTENABLEWATCHDOG?ADJUST
  +--> ?PR?_CSCALERPAGESELECT?RTDACCESS
  +--> ?PR?_CSCALERSETBYTE?RTDACCESS
  +--> ?PR?_CSCALERSETBIT?RTDACCESS
  +--> ?PR?_CADJUSTGETAPLLSETTING?ADJUST
  +--> ?PR?_CTIMERDELAYXMS?TIMER
  +--> ?PR?_CSCALERREAD?RTDACCESS
  +--> ?PR?CPOWERADCAPLLON?POWER
  +--> ?PR?_CTIMERWAITFOREVENT?TIMER
  +--> ?PR?CMISCCLEARSTATUSREGISTER?MISC

?PR?_CADJUSTAPLLFASTLOCK?ADJUST                  -----    -----      -----    -----      -----    -----      FBA8H    00
>> 27H
  +--> ?CO?ADJUST
  +--> ?PR?ADJUST
  +--> ?PR?_CSCALERPAGESELECT?RTDACCESS
  +--> ?PR?_CSCALERSETBYTE?RTDACCESS
  +--> ?PR?_CTIMERDELAYXMS?TIMER
  +--> ?PR?_CSCALERREAD?RTDACCESS

?PR?_CADJUSTADCCLOCK_OSD?ADJUST                  -----    -----      -----    -----      -----    -----      FBA8H    00
>> 0EH
  +--> ?PR?_CSCALERPAGESELECT?RTDACCESS
  +--> ?PR?_CSCALERSETBIT?RTDACCESS
  +--> ?PR?ADJUST
  +--> ?PR?_CSCALERSETBYTE?RTDACCESS
  +--> ?PR?_CSCALERWRITE?RTDACCESS
  +--> ?PR?_CTIMERDELAYXMS?TIMER
  +--> ?PR?_CSCALERREAD?RTDACCESS
  +--> ?PR?_CADJUSTDISABLEWATCHDOG?ADJUST
  +--> ?PR?_CADJUSTENABLEWATCHDOG?ADJUST
  +--> ?PR?CMISCCLEARSTATUSREGISTER?MISC

?PR?_CADJUSTGETAPLLSETTING?ADJUST                -----    -----      -----    -----      -----    -----      FBA8H    00
>> 04H
  +--> ?PR?_CSCALERPAGESELECT?RTDACCESS
  +--> ?PR?_CSCALERREAD?RTDACCESS

?PR?_MADJUSTMENUADJ?OSDMENUFUNC003               -----    -----      -----    -----      -----    -----      FB85H    00
>> 01H
  +--> ?PR?_ADJUSTMENUITEM?OSDPROC003
  +--> ?PR?OSDMENUFUNC003
  +--> ?PR?_DRAWADJUSTPAGEMENUITEM?OSDMENUFU...

?PR?MADJUSTENTERSUBMENU?OSDMENUFUNC003           -----    -----      -----    -----      -----    -----      -----    --
BL51 BANKED LINKER/LOCATER V5.11                                                      10/05/2015  09:30:23  PAGE 65


>> ---
  +--> ?PR?_DRAWAUTOADJUST?OSDMENUFUNC003
  +--> ?PR?ENTERAUTOCONFIGMENU?OSDMENUFUNC003
  +--> ?PR?_DRAWHPOSITION?OSDMENUFUNC003
  +--> ?PR?_DRAWVPOSITION?OSDMENUFUNC003
  +--> ?PR?_DRAWPHASE?OSDMENUFUNC003
  +--> ?PR?_DRAWCLOCK?OSDMENUFUNC003

?PR?MADJUSTRETURNUPMENU?OSDMENUFUNC003           -----    -----      -----    -----      -----    -----      -----    --
>> ---
  +--> ?PR?OSDMENUFUNC003
  +--> ?PR?_DRAWADJUSTPAGEMENUITEM?OSDMENUFU...

?PR?MAUTOADJUSTPROC?OSDMENUFUNC003               -----    -----      -----    -----      -----    -----      -----    --
>> ---
  +--> ?PR?_MAUTOADJUSTVALUEADJ?OSDMENUFUNC003
  +--> ?PR?_MAUTOADJUSTMENUADJ?OSDMENUFUNC003
  +--> ?PR?MAUTOADJUSTENTERSUBMENU?OSDMENUFU...
  +--> ?PR?MAUTOADJUSTRETURNUPMENU?OSDMENUFU...

?PR?_MAUTOADJUSTMENUADJ?OSDMENUFUNC003           -----    -----      -----    -----      -----    -----      FB85H    00
>> 01H
  +--> ?PR?_ADJUSTMENUITEM?OSDPROC003
  +--> ?PR?OSDMENUFUNC003
  +--> ?PR?_DRAWAUTOCONFIGMENUITEM?OSDMENUFU...

?PR?MAUTOADJUSTENTERSUBMENU?OSDMENUFU...         0020H.2  0000H.1    -----    -----      -----    -----      -----    --
>> ---
  +--> ?PR?MAUTOADJUSTRETURNUPMENU?OSDMENUFU...
  +--> ?PR?CAUTODOAUTOCONFIG?AUTO
  +--> ?PR?CAUTODOWHITEBALANCE?AUTO
  +--> ?PR?_DRAWHPOSITION?OSDMENUFUNC003
  +--> ?PR?_DRAWVPOSITION?OSDMENUFUNC003
  +--> ?PR?_DRAWPHASE?OSDMENUFUNC003
  +--> ?PR?_DRAWCLOCK?OSDMENUFUNC003

?PR?MAUTOADJUSTRETURNUPMENU?OSDMENUFU...         -----    -----      -----    -----      -----    -----      -----    --
>> ---
  +--> ?PR?CLEARAUTOCONFIGMENU?OSDMENUFUNC003
  +--> ?PR?DRAWADJUSTPAGE?OSDMENUFUNC003

?PR?CLEARAUTOCONFIGMENU?OSDMENUFUNC003           -----    -----      -----    -----      -----    -----      -----    --
>> ---
  +--> ?PR?_CLEARPOPUPMENU?OSDMENUFUNC003

?PR?CAUTODOAUTOCONFIG?AUTO                       -----    -----      -----    -----      -----    -----      FB89H    00
>> 03H
  +--> ?PR?_CSCALERREAD?RTDACCESS
  +--> ?PR?_CSCALERSETBYTE?RTDACCESS
  +--> ?PR?CMISCCLEARSTATUSREGISTER?MISC
  +--> ?PR?CAUTODOAUTOPOSITION?AUTO
  +--> ?PR?CAUTODOAUTOCLOCK?AUTO
  +--> ?PR?CAUTODOAUTOPHASE?AUTO
  +--> ?PR?AUTO
  +--> ?PR?_CADJUSTPHASE?ADJUST
  +--> ?PR?_CADJUSTADCCLOCK?ADJUST
  +--> ?PR?CADJUSTHPOSITION?ADJUST
BL51 BANKED LINKER/LOCATER V5.11                                                      10/05/2015  09:30:23  PAGE 66


  +--> ?PR?CADJUSTVPOSITION?ADJUST
  +--> ?PR?_CEEPROMSAVEMODEDATA?EEPROM
  +--> ?PR?CADJUSTUPDATECENTERDATA?ADJUST
  +--> ?PR?_CEEPROMSAVECENTERMODEDATA?EEPROM

?PR?CAUTODOAUTOPOSITION?AUTO                     -----    -----      -----    -----      -----    -----      FB8CH    00
>> 06H
  +--> ?PR?_CAUTOMEASUREPOSITIONV?AUTO
  +--> ?PR?_CAUTOMEASUREPOSITIONH?AUTO
  +--> ?PR?AUTO
  +--> ?PR?_CSCALERREAD?RTDACCESS
  +--> ?PR?_ABS?ABS
  +--> ?PR?CADJUSTVPOSITION?ADJUST
  +--> ?PR?CADJUSTHPOSITION?ADJUST

?PR?_CAUTOMEASUREPOSITIONV?AUTO                  -----    -----      -----    -----      -----    -----      FB98H    00
>> 05H
  +--> ?PR?AUTO
  +--> ?PR?_CSCALERSETBIT?RTDACCESS
  +--> ?PR?_CSCALERWRITE?RTDACCESS
  +--> ?PR?CAUTOWAITFINISH?AUTO
  +--> ?PR?_CSCALERREAD?RTDACCESS

?PR?CAUTOWAITFINISH?AUTO                         -----    -----      -----    -----      -----    -----      FBACH    00
>> 03H
  +--> ?PR?CMISCCLEARSTATUSREGISTER?MISC
  +--> ?PR?_CSCALERREAD?RTDACCESS
  +--> ?PR?_CTIMERDELAYXMS?TIMER
  +--> ?PR?AUTO
  +--> ?PR?_CSCALERSETBYTE?RTDACCESS

?PR?_CAUTOMEASUREPOSITIONH?AUTO                  -----    -----      -----    -----      -----    -----      FB9FH    00
>> 05H
  +--> ?PR?AUTO
  +--> ?PR?_CSCALERSETBIT?RTDACCESS
  +--> ?PR?_CSCALERWRITE?RTDACCESS
  +--> ?PR?CAUTOWAITFINISH?AUTO
  +--> ?PR?_CSCALERREAD?RTDACCESS

?PR?CAUTODOAUTOCLOCK?AUTO                        -----    -----      -----    -----      -----    -----      FB8CH    00
>> 0CH
  +--> ?PR?AUTO
  +--> ?PR?_CADJUSTADCCLOCK?ADJUST
  +--> ?PR?_CAUTOMEASUREPOSITIONV?AUTO
  +--> ?PR?_CAUTOMEASUREPOSITIONH?AUTO
  +--> ?PR?_CSCALERSETBYTE?RTDACCESS
  +--> ?PR?_CAUTOPHASESEARCH?AUTO

?PR?_CAUTOPHASESEARCH?AUTO                       -----    -----      -----    -----      -----    -----      FB9FH    00
>> 0DH
  +--> ?PR?AUTO
  +--> ?PR?_CSCALERSETBYTE?RTDACCESS
  +--> ?PR?_CSCALERSETBIT?RTDACCESS
  +--> ?PR?_CSCALERPAGESELECT?RTDACCESS
  +--> ?PR?_CAUTOWAITFORIVS?AUTO
  +--> ?PR?_CSCALERGETBIT?RTDACCESS
  +--> ?PR?_CSCALERREAD?RTDACCESS
BL51 BANKED LINKER/LOCATER V5.11                                                      10/05/2015  09:30:23  PAGE 67


  +--> ?PR?_CTIMERWAITFOREVENT?TIMER
  +--> ?PR?CAUTOWAITFINISH?AUTO

?PR?_CAUTOWAITFORIVS?AUTO                        -----    -----      -----    -----      -----    -----      FBACH    00
>> 02H
  +--> ?PR?_CSCALERSETBYTE?RTDACCESS
  +--> ?PR?_CTIMERDELAYXMS?TIMER
  +--> ?PR?AUTO
  +--> ?PR?_CSCALERREAD?RTDACCESS

?PR?CAUTODOAUTOPHASE?AUTO                        -----    -----      -----    -----      -----    -----      FB8CH    00
>> 13H
  +--> ?PR?_CAUTOMEASUREPOSITIONH?AUTO
  +--> ?PR?AUTO
  +--> ?PR?_CAUTOPHASESEARCH?AUTO
  +--> ?PR?_CADJUSTPHASE?ADJUST
  +--> ?PR?_CAUTOREADPHASEINFO?AUTO
  +--> ?PR?_CSCALERSETBYTE?RTDACCESS

?PR?_CAUTOREADPHASEINFO?AUTO                     -----    -----      -----    -----      -----    -----      -----    --
>> ---
  +--> ?PR?_CSCALERSETBIT?RTDACCESS
  +--> ?PR?_CSCALERSETBYTE?RTDACCESS
  +--> ?PR?CAUTOWAITFINISH?AUTO
  +--> ?PR?AUTO
  +--> ?PR?_CSCALERREAD?RTDACCESS

?PR?CADJUSTUPDATECENTERDATA?ADJUST               -----    -----      -----    -----      -----    -----      FB8CH    00
>> 02H
  +--> ?PR?_CADJUSTCHECKADCCLOCKRANGE?ADJUST
  +--> ?PR?ADJUST

?PR?CAUTODOWHITEBALANCE?AUTO                     -----    -----      -----    -----      -----    -----      FB89H    00
>> 01H
  +--> ?PR?CAUTOTUNEBALANCE?AUTO
  +--> ?PR?CEEPROMSAVEADCDATA?EEPROM
  +--> ?PR?CEEPROMLOADADCDATADEFAULT?EEPROM
  +--> ?PR?CEEPROMLOADYPBPRDATADEFAULT?EEPROM
  +--> ?PR?BSOURCEVIDEO?SOURCE
  +--> ?PR?CEEPROMSAVESYSTEMDATA?EEPROM

?PR?CAUTOTUNEBALANCE?AUTO                        -----    -----      -----    -----      -----    -----      FB8AH    00
>> 07H
  +--> ?PR?AUTO
  +--> ?PR?CADJUSTADCGAINOFFSET?ADJUST
  +--> ?PR?BSOURCEVIDEO?SOURCE
